{
  "address": "0xd81cFfa66914174F7E4824fA226caB73eEBA12AD",
  "abi": [
    {
      "inputs": [
        {
          "internalType": "address",
          "name": "_oracle",
          "type": "address"
        },
        {
          "internalType": "string",
          "name": "_jobId",
          "type": "string"
        },
        {
          "internalType": "uint256",
          "name": "_fee",
          "type": "uint256"
        },
        {
          "internalType": "address",
          "name": "_link",
          "type": "address"
        }
      ],
      "stateMutability": "nonpayable",
      "type": "constructor"
    },
    {
      "anonymous": false,
      "inputs": [
        {
          "indexed": true,
          "internalType": "address",
          "name": "previousOwner",
          "type": "address"
        },
        {
          "indexed": true,
          "internalType": "address",
          "name": "newOwner",
          "type": "address"
        }
      ],
      "name": "OwnershipTransferred",
      "type": "event"
    },
    {
      "anonymous": false,
      "inputs": [
        {
          "indexed": true,
          "internalType": "uint256",
          "name": "id",
          "type": "uint256"
        }
      ],
      "name": "RequestAdded",
      "type": "event"
    },
    {
      "anonymous": false,
      "inputs": [
        {
          "indexed": true,
          "internalType": "address",
          "name": "wrappedTCO2Address",
          "type": "address"
        }
      ],
      "name": "WrappedTCO2Created",
      "type": "event"
    },
    {
      "inputs": [
        {
          "internalType": "string",
          "name": "url",
          "type": "string"
        },
        {
          "internalType": "string",
          "name": "path",
          "type": "string"
        }
      ],
      "name": "addRequest",
      "outputs": [],
      "stateMutability": "nonpayable",
      "type": "function"
    },
    {
      "inputs": [
        {
          "internalType": "address",
          "name": "_tco2TokenAddress",
          "type": "address"
        }
      ],
      "name": "createWrappedTCO2",
      "outputs": [],
      "stateMutability": "nonpayable",
      "type": "function"
    },
    {
      "inputs": [
        {
          "internalType": "address[]",
          "name": "_tco2TokensAddress",
          "type": "address[]"
        }
      ],
      "name": "createWrappedTCO2s",
      "outputs": [],
      "stateMutability": "nonpayable",
      "type": "function"
    },
    {
      "inputs": [],
      "name": "fee",
      "outputs": [
        {
          "internalType": "uint256",
          "name": "",
          "type": "uint256"
        }
      ],
      "stateMutability": "view",
      "type": "function"
    },
    {
      "inputs": [
        {
          "internalType": "uint256",
          "name": "id",
          "type": "uint256"
        }
      ],
      "name": "getRequestDetails",
      "outputs": [
        {
          "components": [
            {
              "internalType": "string",
              "name": "url",
              "type": "string"
            },
            {
              "internalType": "string",
              "name": "path",
              "type": "string"
            }
          ],
          "internalType": "struct IOracleUrlSource.RequestDetails",
          "name": "",
          "type": "tuple"
        }
      ],
      "stateMutability": "view",
      "type": "function"
    },
    {
      "inputs": [],
      "name": "getWrappedTCO2Contracts",
      "outputs": [
        {
          "internalType": "address[]",
          "name": "",
          "type": "address[]"
        }
      ],
      "stateMutability": "view",
      "type": "function"
    },
    {
      "inputs": [],
      "name": "jobId",
      "outputs": [
        {
          "internalType": "bytes32",
          "name": "",
          "type": "bytes32"
        }
      ],
      "stateMutability": "view",
      "type": "function"
    },
    {
      "inputs": [],
      "name": "link",
      "outputs": [
        {
          "internalType": "address",
          "name": "",
          "type": "address"
        }
      ],
      "stateMutability": "view",
      "type": "function"
    },
    {
      "inputs": [],
      "name": "oracle",
      "outputs": [
        {
          "internalType": "address",
          "name": "",
          "type": "address"
        }
      ],
      "stateMutability": "view",
      "type": "function"
    },
    {
      "inputs": [],
      "name": "owner",
      "outputs": [
        {
          "internalType": "address",
          "name": "",
          "type": "address"
        }
      ],
      "stateMutability": "view",
      "type": "function"
    },
    {
      "inputs": [],
      "name": "renounceOwnership",
      "outputs": [],
      "stateMutability": "nonpayable",
      "type": "function"
    },
    {
      "inputs": [
        {
          "internalType": "uint256",
          "name": "",
          "type": "uint256"
        }
      ],
      "name": "requests",
      "outputs": [
        {
          "internalType": "string",
          "name": "url",
          "type": "string"
        },
        {
          "internalType": "string",
          "name": "path",
          "type": "string"
        }
      ],
      "stateMutability": "view",
      "type": "function"
    },
    {
      "inputs": [
        {
          "internalType": "string",
          "name": "source",
          "type": "string"
        }
      ],
      "name": "stringToBytes32",
      "outputs": [
        {
          "internalType": "bytes32",
          "name": "result",
          "type": "bytes32"
        }
      ],
      "stateMutability": "pure",
      "type": "function"
    },
    {
      "inputs": [
        {
          "internalType": "address",
          "name": "newOwner",
          "type": "address"
        }
      ],
      "name": "transferOwnership",
      "outputs": [],
      "stateMutability": "nonpayable",
      "type": "function"
    },
    {
      "inputs": [
        {
          "internalType": "address",
          "name": "",
          "type": "address"
        }
      ],
      "name": "underlyingToWrapped",
      "outputs": [
        {
          "internalType": "address",
          "name": "",
          "type": "address"
        }
      ],
      "stateMutability": "view",
      "type": "function"
    },
    {
      "inputs": [
        {
          "internalType": "uint256",
          "name": "",
          "type": "uint256"
        }
      ],
      "name": "wrappedTCO2Contracts",
      "outputs": [
        {
          "internalType": "address",
          "name": "",
          "type": "address"
        }
      ],
      "stateMutability": "view",
      "type": "function"
    }
  ],
  "transactionHash": "0xac87175c1a22676e0002b0b00c6a7e6c2917855f9277856e2ea34f40c21d084c",
  "args": [
    "0x40193c8518BB267228Fc409a613bDbD8eC5a97b3",
    "7d80a6386ef543a3abb52817f6707e3b",
    "100000000000000000",
    "0x326C977E6efc84E512bB9C30f76E30c160eD06FB"
  ],
  "numDeployments": 1,
  "solcInputHash": "681541fc7391277e4af8a28b7d8ba0f3",
  "bytecode": "0x60806040523480156200001157600080fd5b50604051620052d3380380620052d3833981016040819052620000349162000139565b6200003f3362000096565b600580546001600160a01b0319166001600160a01b0386161790556200006583620000e6565b600355600491909155600680546001600160a01b0319166001600160a01b0390921691909117905550620002489050565b600080546001600160a01b038381166001600160a01b0319831681178455604051919092169283917f8be0079c531659141344cd1fd0a4f28419497f9722a3daafe3b4186f6b6457e09190a35050565b805160009082908203620000fd5750600092915050565b50506020015190565b80516001600160a01b03811681146200011e57600080fd5b919050565b634e487b7160e01b600052604160045260246000fd5b600080600080608085870312156200015057600080fd5b6200015b8562000106565b602086810151919550906001600160401b03808211156200017b57600080fd5b818801915088601f8301126200019057600080fd5b815181811115620001a557620001a562000123565b604051601f8201601f19908116603f01168101908382118183101715620001d057620001d062000123565b816040528281528b86848701011115620001e957600080fd5b600093505b828410156200020d5784840186015181850187015292850192620001ee565b828411156200021f5760008684830101525b809850505050505050604085015191506200023d6060860162000106565b905092959194509250565b61507b80620002586000396000f3fe60806040523480156200001157600080fd5b5060043610620001155760003560e01c8063b4ec337211620000a3578063ddca3f43116200006e578063ddca3f43146200029d578063e73ebd8114620002a7578063f2fde38b14620002c0578063f34d4c6314620002d757600080fd5b8063b4ec3372146200021d578063b9da4af81462000256578063c2939d97146200026d578063cfb51928146200028657600080fd5b806381d12c5811620000e457806381d12c5814620001a957806383d00d2914620001d05780638da5cb5b14620001e75780639559c07f146200020657600080fd5b80631c4695f4146200011a578063591368181462000165578063715018a6146200017e5780637dc0d1d01462000188575b600080fd5b6006546200013b9073ffffffffffffffffffffffffffffffffffffffff1681565b60405173ffffffffffffffffffffffffffffffffffffffff90911681526020015b60405180910390f35b6200017c6200017636600462000d11565b620002fd565b005b6200017c6200034a565b6005546200013b9073ffffffffffffffffffffffffffffffffffffffff1681565b620001c0620001ba36600462000dcb565b62000362565b6040516200015c92919062000e53565b6200013b620001e136600462000dcb565b620004b7565b60005473ffffffffffffffffffffffffffffffffffffffff166200013b565b6200017c6200021736600462000e85565b620004ef565b6200013b6200022e36600462000e85565b60026020526000908152604090205473ffffffffffffffffffffffffffffffffffffffff1681565b6200017c6200026736600462000f3f565b620006b9565b6200027760035481565b6040519081526020016200015c565b620002776200029736600462000faa565b62000781565b6200027760045481565b620002b1620007a1565b6040516200015c919062000feb565b6200017c620002d136600462000e85565b62000812565b620002ee620002e836600462000dcb565b620008cf565b6040516200015c919062001047565b60005b8151811015620003465762000331828281518110620003235762000323620010a2565b6020026020010151620004ef565b806200033d8162001100565b91505062000300565b5050565b6200035462000aba565b62000360600062000b3d565b565b600781815481106200037357600080fd5b906000526020600020906002020160009150905080600001805462000398906200113b565b80601f0160208091040260200160405190810160405280929190818152602001828054620003c6906200113b565b8015620004175780601f10620003eb5761010080835404028352916020019162000417565b820191906000526020600020905b815481529060010190602001808311620003f957829003601f168201915b5050505050908060010180546200042e906200113b565b80601f01602080910402602001604051908101604052809291908181526020018280546200045c906200113b565b8015620004ad5780601f106200048157610100808354040283529160200191620004ad565b820191906000526020600020905b8154815290600101906020018083116200048f57829003601f168201915b5050505050905082565b60018181548110620004c857600080fd5b60009182526020909120015473ffffffffffffffffffffffffffffffffffffffff16905081565b73ffffffffffffffffffffffffffffffffffffffff818116600090815260026020526040902054161562000584576040517f08c379a000000000000000000000000000000000000000000000000000000000815260206004820152601a60248201527f5772617070656454434f3220616c72656164792065786973747300000000000060448201526064015b60405180910390fd5b600654604051600091839173ffffffffffffffffffffffffffffffffffffffff909116903090620005b59062000bb2565b73ffffffffffffffffffffffffffffffffffffffff938416815291831660208301529091166040820152606001604051809103906000f080158015620005ff573d6000803e3d6000fd5b50600180548082019091557fb10e2d527612073b26eecdfd717e6a320cf44b4afac2b0732d9fcbe2b7fa0cf601805473ffffffffffffffffffffffffffffffffffffffff8084167fffffffffffffffffffffffff00000000000000000000000000000000000000009283168117909355851660009081526002602052604080822080549093168417909255905192935090917f68dbab7bf7ba33cc24097f8864673e416548ae0c59e0d3a20d51eb3b6a8206fb9190a25050565b620006c362000aba565b604080518082019091528281526020808201839052600780546001810182556000919091528251805160029092027fa66cc928b5edb82af9bd49922954155ab7b0942694bea4ce44661d9a8736c6880192620007259284929091019062000bc0565b50602082810151805162000740926001850192019062000bc0565b505060075462000754915060019062001190565b6040517f1241757208f08d63f291d85cafba51f9c01fc80b77f21fb69b4b7ce9908b9a0e90600090a25050565b805160009082908203620007985750600092915050565b50506020015190565b606060018054806020026020016040519081016040528092919081815260200182805480156200080857602002820191906000526020600020905b815473ffffffffffffffffffffffffffffffffffffffff168152600190910190602001808311620007dc575b5050505050905090565b6200081c62000aba565b73ffffffffffffffffffffffffffffffffffffffff8116620008c1576040517f08c379a000000000000000000000000000000000000000000000000000000000815260206004820152602660248201527f4f776e61626c653a206e6577206f776e657220697320746865207a65726f206160448201527f646472657373000000000000000000000000000000000000000000000000000060648201526084016200057b565b620008cc8162000b3d565b50565b6040805180820190915260608082526020820152600754821062000950576040517f08c379a000000000000000000000000000000000000000000000000000000000815260206004820152601260248201527f496e76616c69642072657175657374206964000000000000000000000000000060448201526064016200057b565b60078281548110620009665762000966620010a2565b906000526020600020906002020160405180604001604052908160008201805462000991906200113b565b80601f0160208091040260200160405190810160405280929190818152602001828054620009bf906200113b565b801562000a105780601f10620009e45761010080835404028352916020019162000a10565b820191906000526020600020905b815481529060010190602001808311620009f257829003601f168201915b5050505050815260200160018201805462000a2b906200113b565b80601f016020809104026020016040519081016040528092919081815260200182805462000a59906200113b565b801562000aaa5780601f1062000a7e5761010080835404028352916020019162000aaa565b820191906000526020600020905b81548152906001019060200180831162000a8c57829003601f168201915b5050505050815250509050919050565b60005473ffffffffffffffffffffffffffffffffffffffff16331462000360576040517f08c379a000000000000000000000000000000000000000000000000000000000815260206004820181905260248201527f4f776e61626c653a2063616c6c6572206973206e6f7420746865206f776e657260448201526064016200057b565b6000805473ffffffffffffffffffffffffffffffffffffffff8381167fffffffffffffffffffffffff0000000000000000000000000000000000000000831681178455604051919092169283917f8be0079c531659141344cd1fd0a4f28419497f9722a3daafe3b4186f6b6457e09190a35050565b613ec480620011ab83390190565b82805462000bce906200113b565b90600052602060002090601f01602090048101928262000bf2576000855562000c3d565b82601f1062000c0d57805160ff191683800117855562000c3d565b8280016001018555821562000c3d579182015b8281111562000c3d57825182559160200191906001019062000c20565b5062000c4b92915062000c4f565b5090565b5b8082111562000c4b576000815560010162000c50565b7f4e487b7100000000000000000000000000000000000000000000000000000000600052604160045260246000fd5b604051601f82017fffffffffffffffffffffffffffffffffffffffffffffffffffffffffffffffe016810167ffffffffffffffff8111828210171562000cdf5762000cdf62000c66565b604052919050565b803573ffffffffffffffffffffffffffffffffffffffff8116811462000d0c57600080fd5b919050565b6000602080838503121562000d2557600080fd5b823567ffffffffffffffff8082111562000d3e57600080fd5b818501915085601f83011262000d5357600080fd5b81358181111562000d685762000d6862000c66565b8060051b915062000d7b84830162000c95565b818152918301840191848101908884111562000d9657600080fd5b938501935b8385101562000dbf5762000daf8562000ce7565b8252938501939085019062000d9b565b98975050505050505050565b60006020828403121562000dde57600080fd5b5035919050565b6000815180845260005b8181101562000e0d5760208185018101518683018201520162000def565b8181111562000e20576000602083870101525b50601f017fffffffffffffffffffffffffffffffffffffffffffffffffffffffffffffffe0169290920160200192915050565b60408152600062000e68604083018562000de5565b828103602084015262000e7c818562000de5565b95945050505050565b60006020828403121562000e9857600080fd5b62000ea38262000ce7565b9392505050565b600082601f83011262000ebc57600080fd5b813567ffffffffffffffff81111562000ed95762000ed962000c66565b62000f0c60207fffffffffffffffffffffffffffffffffffffffffffffffffffffffffffffffe0601f8401160162000c95565b81815284602083860101111562000f2257600080fd5b816020850160208301376000918101602001919091529392505050565b6000806040838503121562000f5357600080fd5b823567ffffffffffffffff8082111562000f6c57600080fd5b62000f7a8683870162000eaa565b9350602085013591508082111562000f9157600080fd5b5062000fa08582860162000eaa565b9150509250929050565b60006020828403121562000fbd57600080fd5b813567ffffffffffffffff81111562000fd557600080fd5b62000fe38482850162000eaa565b949350505050565b6020808252825182820181905260009190848201906040850190845b818110156200103b57835173ffffffffffffffffffffffffffffffffffffffff168352928401929184019160010162001007565b50909695505050505050565b60208152600082516040602084015262001065606084018262000de5565b905060208401517fffffffffffffffffffffffffffffffffffffffffffffffffffffffffffffffe084830301604085015262000e7c828262000de5565b7f4e487b7100000000000000000000000000000000000000000000000000000000600052603260045260246000fd5b7f4e487b7100000000000000000000000000000000000000000000000000000000600052601160045260246000fd5b60007fffffffffffffffffffffffffffffffffffffffffffffffffffffffffffffffff8203620011345762001134620010d1565b5060010190565b600181811c908216806200115057607f821691505b6020821081036200118a577f4e487b7100000000000000000000000000000000000000000000000000000000600052602260045260246000fd5b50919050565b600082821015620011a557620011a5620010d1565b50039056fe608060405260016009553480156200001657600080fd5b5060405162003ec438038062003ec48339810160408190526200003991620002f0565b6200004483620000e8565b6200004f846200018d565b8151620000649060039060208501906200022d565b5080516200007a9060049060208401906200022d565b5050600c80546001600160a01b0319166001600160a01b03861617905550620000bf82600780546001600160a01b0319166001600160a01b0392909216919091179055565b600b80546001600160a01b0319166001600160a01b0392909216919091179055506200053c9050565b60606000829050600080826001600160a01b03166364c5a4036040518163ffffffff1660e01b8152600401600060405180830381865afa15801562000131573d6000803e3d6000fd5b505050506040513d6000823e601f3d908101601f191682016040526200015b919081019062000414565b915091508181604051602001620001749291906200047e565b6040516020818303038152906040529350505050919050565b606060008290506000816001600160a01b03166364c5a4036040518163ffffffff1660e01b8152600401600060405180830381865afa158015620001d5573d6000803e3d6000fd5b505050506040513d6000823e601f3d908101601f19168201604052620001ff919081019062000414565b50905080604051602001620002159190620004d0565b60405160208183030381529060405292505050919050565b8280546200023b9062000500565b90600052602060002090601f0160209004810192826200025f5760008555620002aa565b82601f106200027a57805160ff1916838001178555620002aa565b82800160010185558215620002aa579182015b82811115620002aa5782518255916020019190600101906200028d565b50620002b8929150620002bc565b5090565b5b80821115620002b85760008155600101620002bd565b80516001600160a01b0381168114620002eb57600080fd5b919050565b6000806000606084860312156200030657600080fd5b6200031184620002d3565b92506200032160208501620002d3565b91506200033160408501620002d3565b90509250925092565b634e487b7160e01b600052604160045260246000fd5b60005b838110156200036d57818101518382015260200162000353565b838111156200037d576000848401525b50505050565b600082601f8301126200039557600080fd5b81516001600160401b0380821115620003b257620003b26200033a565b604051601f8301601f19908116603f01168101908282118183101715620003dd57620003dd6200033a565b81604052838152866020858801011115620003f757600080fd5b6200040a84602083016020890162000350565b9695505050505050565b600080604083850312156200042857600080fd5b82516001600160401b03808211156200044057600080fd5b6200044e8683870162000383565b935060208501519150808211156200046557600080fd5b50620004748582860162000383565b9150509250929050565b657754434f322d60d01b815260008351620004a181600685016020880162000350565b602d60f81b6006918401918201528351620004c481600784016020880162000350565b01600701949350505050565b657754434f322d60d01b815260008251620004f381600685016020870162000350565b9190910160060192915050565b600181811c908216806200051557607f821691505b6020821081036200053657634e487b7160e01b600052602260045260246000fd5b50919050565b613978806200054c6000396000f3fe608060405234801561001057600080fd5b50600436106101ae5760003560e01c80636746e7be116100ee578063a457c2d711610097578063de0e9a3e11610071578063de0e9a3e146103ef578063e819426c14610402578063ea598cb01461040a578063f2e148381461041d57600080fd5b8063a457c2d714610383578063a9059cbb14610396578063dd62ed3e146103a957600080fd5b806379cc6790116100c857806379cc67901461034857806391da1ed21461035b57806395d89b411461037b57600080fd5b80636746e7be146102ec5780636b24ffd6146102ff57806370a082311461031257600080fd5b80632ef292901161015b578063395093511161013557806339509351146102795780633a8f0f3d1461028c5780633c31175e1461029f57806345a54ca6146102a757600080fd5b80632ef2929014610242578063313ce56714610257578063374419961461026657600080fd5b806318160ddd1161018c57806318160ddd1461020a57806323b872dd1461021c5780632adb9e3c1461022f57600080fd5b806306fdde03146101b3578063095ea7b3146101d1578063152583de146101f4575b600080fd5b6101bb610430565b6040516101c89190612750565b60405180910390f35b6101e46101df366004612795565b6104c2565b60405190151581526020016101c8565b6101fc6104dc565b6040516101c89291906128ca565b6002545b6040519081526020016101c8565b6101e461022a366004612a34565b610682565b61020e61023d366004612a75565b6106a6565b610255610250366004612ad7565b610af5565b005b604051601281526020016101c8565b610255610274366004612c9f565b610b9f565b6101e4610287366004612795565b610cf2565b61020e61029a366004612a75565b610d3e565b6101bb610f19565b600c546102c79073ffffffffffffffffffffffffffffffffffffffff1681565b60405173ffffffffffffffffffffffffffffffffffffffff90911681526020016101c8565b6102556102fa366004612d29565b610fd4565b61020e61030d366004612795565b611070565b61020e610320366004612d81565b73ffffffffffffffffffffffffffffffffffffffff1660009081526020819052604090205490565b610255610356366004612795565b611115565b600b546102c79073ffffffffffffffffffffffffffffffffffffffff1681565b6101bb611174565b6101e4610391366004612795565b611183565b6101e46103a4366004612795565b611254565b61020e6103b7366004612d9e565b73ffffffffffffffffffffffffffffffffffffffff918216600090815260016020908152604080832093909416825291909152205490565b6102556103fd366004612a75565b611262565b61020e6113e9565b610255610418366004612a75565b61147d565b6101bb61042b366004612a75565b61158e565b60606003805461043f90612dcc565b80601f016020809104026020016040519081016040528092919081815260200182805461046b90612dcc565b80156104b85780601f1061048d576101008083540402835291602001916104b8565b820191906000526020600020905b81548152906001019060200180831161049b57829003601f168201915b5050505050905090565b6000336104d0818585611628565b60019150505b92915050565b610548604051806101400160405280606081526020016060815260200160608152602001606081526020016060815260200160608152602001606081526020016060815260200160608152602001600073ffffffffffffffffffffffffffffffffffffffff1681525090565b6105c760405180610160016040528060608152602001600067ffffffffffffffff168152602001600067ffffffffffffffff16815260200160008152602001600067ffffffffffffffff168152602001600015158152602001600015158152602001606081526020016060815260200160608152602001606081525090565b600c60009054906101000a900473ffffffffffffffffffffffffffffffffffffffff1673ffffffffffffffffffffffffffffffffffffffff1663152583de6040518163ffffffff1660e01b8152600401600060405180830381865afa158015610634573d6000803e3d6000fd5b505050506040513d6000823e601f3d9081017fffffffffffffffffffffffffffffffffffffffffffffffffffffffffffffffe016820160405261067a9190810190612fd5565b915091509091565b6000336106908582856117db565b61069b8585856118b2565b506001949350505050565b600080610764600b60009054906101000a900473ffffffffffffffffffffffffffffffffffffffff1673ffffffffffffffffffffffffffffffffffffffff1663c2939d976040518163ffffffff1660e01b8152600401602060405180830381865afa158015610719573d6000803e3d6000fd5b505050506040513d601f19601f8201168201806040525081019061073d919061319d565b307f3744199600000000000000000000000000000000000000000000000000000000611b21565b600b546040517ff34d4c630000000000000000000000000000000000000000000000000000000081526004810186905291925060009173ffffffffffffffffffffffffffffffffffffffff9091169063f34d4c6390602401600060405180830381865afa1580156107d9573d6000803e3d6000fd5b505050506040513d6000823e601f3d9081017fffffffffffffffffffffffffffffffffffffffffffffffffffffffffffffffe016820160405261081f91908101906131b6565b90506000600c60009054906101000a900473ffffffffffffffffffffffffffffffffffffffff1673ffffffffffffffffffffffffffffffffffffffff166364c5a4036040518163ffffffff1660e01b8152600401600060405180830381865afa158015610890573d6000803e3d6000fd5b505050506040513d6000823e601f3d9081017fffffffffffffffffffffffffffffffffffffffffffffffffffffffffffffffe01682016040526108d6919081019061325d565b50905061095f6040518060400160405280600381526020017f67657400000000000000000000000000000000000000000000000000000000008152508360000151836040516020016109299291906132b7565b604080517fffffffffffffffffffffffffffffffffffffffffffffffffffffffffffffffe0818403018152919052859190611bb2565b6109ad6040518060400160405280600481526020017f7061746800000000000000000000000000000000000000000000000000000000815250836020015185611bb29092919063ffffffff16565b600b54604080517f7dc0d1d00000000000000000000000000000000000000000000000000000000081529051610ada9273ffffffffffffffffffffffffffffffffffffffff1691637dc0d1d09160048083019260209291908290030181865afa158015610a1e573d6000803e3d6000fd5b505050506040513d601f19601f82011682018060405250810190610a4291906132e6565b600b54604080517fddca3f430000000000000000000000000000000000000000000000000000000081529051879273ffffffffffffffffffffffffffffffffffffffff169163ddca3f439160048083019260209291908290030181865afa158015610ab1573d6000803e3d6000fd5b505050506040513d601f19601f82011682018060405250810190610ad5919061319d565b611bd5565b6000818152600d602052604090209590955550929392505050565b610aff3382611ccc565b600c546040517f2ef2929000000000000000000000000000000000000000000000000000000000815273ffffffffffffffffffffffffffffffffffffffff90911690632ef2929090610b63908b908b908b908b908b908b908b908b9060040161334c565b600060405180830381600087803b158015610b7d57600080fd5b505af1158015610b91573d6000803e3d6000fd5b505050505050505050505050565b6000828152600a6020526040902054829073ffffffffffffffffffffffffffffffffffffffff163314610c59576040517f08c379a000000000000000000000000000000000000000000000000000000000815260206004820152602860248201527f536f75726365206d75737420626520746865206f7261636c65206f662074686560448201527f207265717565737400000000000000000000000000000000000000000000000060648201526084015b60405180910390fd5b6000818152600a602052604080822080547fffffffffffffffffffffffff00000000000000000000000000000000000000001690555182917f7cc135e0cebb02c3480ae5d74d377283180a2601f8f644edf7987b009316c63a91a26000838152600d6020908152604080832054808452600e835292208451610cdd92860190612641565b505050600091825250600d6020526040812055565b33600081815260016020908152604080832073ffffffffffffffffffffffffffffffffffffffff871684529091528120549091906104d09082908690610d399087906133e9565b611628565b6000610d5f60075473ffffffffffffffffffffffffffffffffffffffff1690565b73ffffffffffffffffffffffffffffffffffffffff166323b872dd3330600b60009054906101000a900473ffffffffffffffffffffffffffffffffffffffff1673ffffffffffffffffffffffffffffffffffffffff1663ddca3f436040518163ffffffff1660e01b8152600401602060405180830381865afa158015610de9573d6000803e3d6000fd5b505050506040513d601f19601f82011682018060405250810190610e0d919061319d565b6040517fffffffff0000000000000000000000000000000000000000000000000000000060e086901b16815273ffffffffffffffffffffffffffffffffffffffff938416600482015292909116602483015260448201526064016020604051808303816000875af1158015610e86573d6000803e3d6000fd5b505050506040513d601f19601f82011682018060405250810190610eaa9190613401565b610f10576040517f08c379a000000000000000000000000000000000000000000000000000000000815260206004820152601760248201527f556e61626c6520746f207472616e73666572204c494e4b0000000000000000006044820152606401610c50565b6104d6826106a6565b600c54604080517f3c31175e000000000000000000000000000000000000000000000000000000008152905160609273ffffffffffffffffffffffffffffffffffffffff1691633c31175e9160048083019260009291908290030181865afa158015610f89573d6000803e3d6000fd5b505050506040513d6000823e601f3d9081017fffffffffffffffffffffffffffffffffffffffffffffffffffffffffffffffe0168201604052610fcf919081019061341c565b905090565b610fe2338260200135611ccc565b600c546040517f6746e7be00000000000000000000000000000000000000000000000000000000815273ffffffffffffffffffffffffffffffffffffffff90911690636746e7be9061103a908590859060040161356b565b600060405180830381600087803b15801561105457600080fd5b505af1158015611068573d6000803e3d6000fd5b505050505050565b600c546040517f6b24ffd600000000000000000000000000000000000000000000000000000000815273ffffffffffffffffffffffffffffffffffffffff8481166004830152602482018490526000921690636b24ffd6906044016020604051808303816000875af11580156110ea573d6000803e3d6000fd5b505050506040513d601f19601f8201168201806040525081019061110e919061319d565b9392505050565b600c546040517f79cc679000000000000000000000000000000000000000000000000000000000815273ffffffffffffffffffffffffffffffffffffffff848116600483015260248201849052909116906379cc67909060440161103a565b60606004805461043f90612dcc565b33600081815260016020908152604080832073ffffffffffffffffffffffffffffffffffffffff8716845290915281205490919083811015611247576040517f08c379a000000000000000000000000000000000000000000000000000000000815260206004820152602560248201527f45524332303a2064656372656173656420616c6c6f77616e63652062656c6f7760448201527f207a65726f0000000000000000000000000000000000000000000000000000006064820152608401610c50565b61069b8286868403611628565b6000336104d08185856118b2565b336000908152602081905260409020548111156112db576040517f08c379a000000000000000000000000000000000000000000000000000000000815260206004820152601460248201527f496e73756666696369656e742062616c616e63650000000000000000000000006044820152606401610c50565b6112e53382611ccc565b600c546040517fa9059cbb0000000000000000000000000000000000000000000000000000000081523360048201526024810183905273ffffffffffffffffffffffffffffffffffffffff9091169063a9059cbb906044016020604051808303816000875af115801561135c573d6000803e3d6000fd5b505050506040513d601f19601f820116820180604052508101906113809190613401565b6113e6576040517f08c379a000000000000000000000000000000000000000000000000000000000815260206004820152600f60248201527f5472616e73666572206661696c656400000000000000000000000000000000006044820152606401610c50565b50565b600c54604080517fe819426c000000000000000000000000000000000000000000000000000000008152905160009273ffffffffffffffffffffffffffffffffffffffff169163e819426c9160048083019260209291908290030181865afa158015611459573d6000803e3d6000fd5b505050506040513d601f19601f82011682018060405250810190610fcf919061319d565b600c546040517f23b872dd0000000000000000000000000000000000000000000000000000000081523360048201523060248201526044810183905273ffffffffffffffffffffffffffffffffffffffff909116906323b872dd906064016020604051808303816000875af11580156114fa573d6000803e3d6000fd5b505050506040513d601f19601f8201168201806040525081019061151e9190613401565b611584576040517f08c379a000000000000000000000000000000000000000000000000000000000815260206004820152600f60248201527f5472616e73666572206661696c656400000000000000000000000000000000006044820152606401610c50565b6113e63382611e90565b600e60205260009081526040902080546115a790612dcc565b80601f01602080910402602001604051908101604052809291908181526020018280546115d390612dcc565b80156116205780601f106115f557610100808354040283529160200191611620565b820191906000526020600020905b81548152906001019060200180831161160357829003601f168201915b505050505081565b73ffffffffffffffffffffffffffffffffffffffff83166116ca576040517f08c379a0000000000000000000000000000000000000000000000000000000008152602060048201526024808201527f45524332303a20617070726f76652066726f6d20746865207a65726f2061646460448201527f72657373000000000000000000000000000000000000000000000000000000006064820152608401610c50565b73ffffffffffffffffffffffffffffffffffffffff821661176d576040517f08c379a000000000000000000000000000000000000000000000000000000000815260206004820152602260248201527f45524332303a20617070726f766520746f20746865207a65726f20616464726560448201527f73730000000000000000000000000000000000000000000000000000000000006064820152608401610c50565b73ffffffffffffffffffffffffffffffffffffffff83811660008181526001602090815260408083209487168084529482529182902085905590518481527f8c5be1e5ebec7d5bd14f71427d1e84f3dd0314c0f7b2291e5b200ac8c7c3b925910160405180910390a3505050565b73ffffffffffffffffffffffffffffffffffffffff8381166000908152600160209081526040808320938616835292905220547fffffffffffffffffffffffffffffffffffffffffffffffffffffffffffffffff81146118ac578181101561189f576040517f08c379a000000000000000000000000000000000000000000000000000000000815260206004820152601d60248201527f45524332303a20696e73756666696369656e7420616c6c6f77616e63650000006044820152606401610c50565b6118ac8484848403611628565b50505050565b73ffffffffffffffffffffffffffffffffffffffff8316611955576040517f08c379a000000000000000000000000000000000000000000000000000000000815260206004820152602560248201527f45524332303a207472616e736665722066726f6d20746865207a65726f20616460448201527f64726573730000000000000000000000000000000000000000000000000000006064820152608401610c50565b73ffffffffffffffffffffffffffffffffffffffff82166119f8576040517f08c379a000000000000000000000000000000000000000000000000000000000815260206004820152602360248201527f45524332303a207472616e7366657220746f20746865207a65726f206164647260448201527f65737300000000000000000000000000000000000000000000000000000000006064820152608401610c50565b73ffffffffffffffffffffffffffffffffffffffff831660009081526020819052604090205481811015611aae576040517f08c379a000000000000000000000000000000000000000000000000000000000815260206004820152602660248201527f45524332303a207472616e7366657220616d6f756e742065786365656473206260448201527f616c616e636500000000000000000000000000000000000000000000000000006064820152608401610c50565b73ffffffffffffffffffffffffffffffffffffffff848116600081815260208181526040808320878703905593871680835291849020805487019055925185815290927fddf252ad1be2c89b69c2b068fc378daa952ba7f163c4a11628f55a4df523b3ef910160405180910390a36118ac565b611b5f6040805160a0810182526000808252602080830182905282840182905260608084018390528451808601909552845283015290608082015290565b611b9d6040805160a0810182526000808252602080830182905282840182905260608084018390528451808601909552845283015290608082015290565b611ba981868686611f83565b95945050505050565b6080830151611bc19083612024565b6080830151611bd09082612024565b505050565b600954600090611be68160016133e9565b600955835160408086015160808701515191516000937f404299460000000000000000000000000000000000000000000000000000000093611c379386938493923092918a916001916024016136f2565b604080517fffffffffffffffffffffffffffffffffffffffffffffffffffffffffffffffe08184030181529190526020810180517bffffffffffffffffffffffffffffffffffffffffffffffffffffffff167fffffffff00000000000000000000000000000000000000000000000000000000909316929092179091529050611cc28683868461203b565b9695505050505050565b73ffffffffffffffffffffffffffffffffffffffff8216611d6f576040517f08c379a000000000000000000000000000000000000000000000000000000000815260206004820152602160248201527f45524332303a206275726e2066726f6d20746865207a65726f2061646472657360448201527f73000000000000000000000000000000000000000000000000000000000000006064820152608401610c50565b73ffffffffffffffffffffffffffffffffffffffff821660009081526020819052604090205481811015611e25576040517f08c379a000000000000000000000000000000000000000000000000000000000815260206004820152602260248201527f45524332303a206275726e20616d6f756e7420657863656564732062616c616e60448201527f63650000000000000000000000000000000000000000000000000000000000006064820152608401610c50565b73ffffffffffffffffffffffffffffffffffffffff83166000818152602081815260408083208686039055600280548790039055518581529192917fddf252ad1be2c89b69c2b068fc378daa952ba7f163c4a11628f55a4df523b3ef910160405180910390a3505050565b73ffffffffffffffffffffffffffffffffffffffff8216611f0d576040517f08c379a000000000000000000000000000000000000000000000000000000000815260206004820152601f60248201527f45524332303a206d696e7420746f20746865207a65726f2061646472657373006044820152606401610c50565b8060026000828254611f1f91906133e9565b909155505073ffffffffffffffffffffffffffffffffffffffff8216600081815260208181526040808320805486019055518481527fddf252ad1be2c89b69c2b068fc378daa952ba7f163c4a11628f55a4df523b3ef910160405180910390a35050565b611fc16040805160a0810182526000808252602080830182905282840182905260608084018390528451808601909552845283015290608082015290565b611fd18560800151610100612249565b505082845273ffffffffffffffffffffffffffffffffffffffff821660208501527fffffffff0000000000000000000000000000000000000000000000000000000081166040850152835b949350505050565b61203182600383516122ae565b611bd082826123bd565b6040517fffffffffffffffffffffffffffffffffffffffff0000000000000000000000003060601b16602082015260348101849052600090605401604080518083037fffffffffffffffffffffffffffffffffffffffffffffffffffffffffffffffe001815282825280516020918201206000818152600a90925291812080547fffffffffffffffffffffffff00000000000000000000000000000000000000001673ffffffffffffffffffffffffffffffffffffffff8a1617905590925082917fb5e6e01e79f91267dc17b4e6314d5d4d03593d2ceee0fbb452b750bd70ea5af99190a26007546040517f4000aea000000000000000000000000000000000000000000000000000000000815273ffffffffffffffffffffffffffffffffffffffff90911690634000aea09061217a9088908790879060040161377b565b6020604051808303816000875af1158015612199573d6000803e3d6000fd5b505050506040513d601f19601f820116820180604052508101906121bd9190613401565b61201c576040517f08c379a000000000000000000000000000000000000000000000000000000000815260206004820152602360248201527f756e61626c6520746f207472616e73666572416e6443616c6c20746f206f726160448201527f636c6500000000000000000000000000000000000000000000000000000000006064820152608401610c50565b6040805180820190915260608152600060208201526122696020836137b0565b15612291576122796020836137b0565b6122849060206137eb565b61228e90836133e9565b91505b506020828101829052604080518085526000815290920101905290565b60178167ffffffffffffffff16116122d3576118ac8360e0600585901b1683176123e4565b60ff8167ffffffffffffffff1611612311576122fa836018611fe0600586901b16176123e4565b506118ac8367ffffffffffffffff83166001612409565b61ffff8167ffffffffffffffff161161235057612339836019611fe0600586901b16176123e4565b506118ac8367ffffffffffffffff83166002612409565b63ffffffff8167ffffffffffffffff16116123915761237a83601a611fe0600586901b16176123e4565b506118ac8367ffffffffffffffff83166004612409565b6123a683601b611fe0600586901b16176123e4565b506118ac8367ffffffffffffffff83166008612409565b60408051808201909152606081526000602082015261110e8384600001515184855161242f565b60408051808201909152606081526000602082015261110e8384600001515184612537565b60408051808201909152606081526000602082015261201c848560000151518585612592565b604080518082019091526060815260006020820152825182111561245257600080fd5b602085015161246183866133e9565b111561249457612494856124848760200151878661247f91906133e9565b612613565b61248f906002613802565b61262a565b6000808651805187602083010193508088870111156124b35787860182525b505050602084015b602084106124f357805182526124d26020836133e9565b91506124df6020826133e9565b90506124ec6020856137eb565b93506124bb565b5181517fffffffffffffffffffffffffffffffffffffffffffffffffffffffffffffffff60208690036101000a019081169019919091161790525083949350505050565b6040805180820190915260608152600060208201528360200151831061256c5761256c848560200151600261248f9190613802565b8351805160208583010184815350808503612588576001810182525b5093949350505050565b60408051808201909152606081526000602082015260208501516125b685846133e9565b11156125ca576125ca8561248486856133e9565b600060016125da8461010061395f565b6125e491906137eb565b90508551838682010185831982511617815250805184870111156126085783860181525b509495945050505050565b6000818311156126245750816104d6565b50919050565b81516126368383612249565b506118ac83826123bd565b82805461264d90612dcc565b90600052602060002090601f01602090048101928261266f57600085556126b5565b82601f1061268857805160ff19168380011785556126b5565b828001600101855582156126b5579182015b828111156126b557825182559160200191906001019061269a565b506126c19291506126c5565b5090565b5b808211156126c157600081556001016126c6565b60005b838110156126f55781810151838201526020016126dd565b838111156118ac5750506000910152565b6000815180845261271e8160208601602086016126da565b601f017fffffffffffffffffffffffffffffffffffffffffffffffffffffffffffffffe0169290920160200192915050565b60208152600061110e6020830184612706565b73ffffffffffffffffffffffffffffffffffffffff811681146113e657600080fd5b803561279081612763565b919050565b600080604083850312156127a857600080fd5b82356127b381612763565b946020939093013593505050565b600061016082518185526127d782860182612706565b91505060208301516127f5602086018267ffffffffffffffff169052565b506040830151612811604086018267ffffffffffffffff169052565b50606083015160608501526080830151612837608086018267ffffffffffffffff169052565b5060a083015161284b60a086018215159052565b5060c083015161285f60c086018215159052565b5060e083015184820360e08601526128778282612706565b91505061010080840151858303828701526128928382612706565b9250505061012080840151858303828701526128ae8382612706565b925050506101408084015185830382870152611cc28382612706565b60408152600083516101408060408501526128e9610180850183612706565b915060208601517fffffffffffffffffffffffffffffffffffffffffffffffffffffffffffffffc0808685030160608701526129258483612706565b935060408801519150808685030160808701526129428483612706565b935060608801519150808685030160a087015261295f8483612706565b935060808801519150808685030160c087015261297c8483612706565b935060a08801519150808685030160e08701526129998483612706565b935060c088015191506101008187860301818801526129b88584612706565b945060e089015192506101208288870301818901526129d78685612706565b9550818a015193508288870301858901526129f28685612706565b9550808a0151945050505050612a2161016085018273ffffffffffffffffffffffffffffffffffffffff169052565b508281036020840152611ba981856127c1565b600080600060608486031215612a4957600080fd5b8335612a5481612763565b92506020840135612a6481612763565b929592945050506040919091013590565b600060208284031215612a8757600080fd5b5035919050565b60008083601f840112612aa057600080fd5b50813567ffffffffffffffff811115612ab857600080fd5b602083019150836020828501011115612ad057600080fd5b9250929050565b60008060008060008060008060a0898b031215612af357600080fd5b883567ffffffffffffffff80821115612b0b57600080fd5b612b178c838d01612a8e565b909a50985060208b01359150612b2c82612763565b90965060408a01359080821115612b4257600080fd5b612b4e8c838d01612a8e565b909750955060608b0135915080821115612b6757600080fd5b50612b748b828c01612a8e565b999c989b50969995989497949560800135949350505050565b7f4e487b7100000000000000000000000000000000000000000000000000000000600052604160045260246000fd5b604051610160810167ffffffffffffffff81118282101715612be057612be0612b8d565b60405290565b604051610140810167ffffffffffffffff81118282101715612be057612be0612b8d565b604051601f82017fffffffffffffffffffffffffffffffffffffffffffffffffffffffffffffffe016810167ffffffffffffffff81118282101715612c5157612c51612b8d565b604052919050565b600067ffffffffffffffff821115612c7357612c73612b8d565b50601f017fffffffffffffffffffffffffffffffffffffffffffffffffffffffffffffffe01660200190565b60008060408385031215612cb257600080fd5b82359150602083013567ffffffffffffffff811115612cd057600080fd5b8301601f81018513612ce157600080fd5b8035612cf4612cef82612c59565b612c0a565b818152866020838501011115612d0957600080fd5b816020840160208301376000602083830101528093505050509250929050565b60008060408385031215612d3c57600080fd5b8235612d4781612763565b9150602083013567ffffffffffffffff811115612d6357600080fd5b83016101408186031215612d7657600080fd5b809150509250929050565b600060208284031215612d9357600080fd5b813561110e81612763565b60008060408385031215612db157600080fd5b8235612dbc81612763565b91506020830135612d7681612763565b600181811c90821680612de057607f821691505b602082108103612624577f4e487b7100000000000000000000000000000000000000000000000000000000600052602260045260246000fd5b600082601f830112612e2a57600080fd5b8151612e38612cef82612c59565b818152846020838601011115612e4d57600080fd5b61201c8260208301602087016126da565b805161279081612763565b805167ffffffffffffffff8116811461279057600080fd5b8051801515811461279057600080fd5b60006101608284031215612ea457600080fd5b612eac612bbc565b9050815167ffffffffffffffff80821115612ec657600080fd5b612ed285838601612e19565b8352612ee060208501612e69565b6020840152612ef160408501612e69565b604084015260608401516060840152612f0c60808501612e69565b6080840152612f1d60a08501612e81565b60a0840152612f2e60c08501612e81565b60c084015260e0840151915080821115612f4757600080fd5b612f5385838601612e19565b60e084015261010091508184015181811115612f6e57600080fd5b612f7a86828701612e19565b838501525061012091508184015181811115612f9557600080fd5b612fa186828701612e19565b838501525061014091508184015181811115612fbc57600080fd5b612fc886828701612e19565b8385015250505092915050565b60008060408385031215612fe857600080fd5b825167ffffffffffffffff8082111561300057600080fd5b90840190610140828703121561301557600080fd5b61301d612be6565b82518281111561302c57600080fd5b61303888828601612e19565b82525060208301518281111561304d57600080fd5b61305988828601612e19565b60208301525060408301518281111561307157600080fd5b61307d88828601612e19565b60408301525060608301518281111561309557600080fd5b6130a188828601612e19565b6060830152506080830151828111156130b957600080fd5b6130c588828601612e19565b60808301525060a0830151828111156130dd57600080fd5b6130e988828601612e19565b60a08301525060c08301518281111561310157600080fd5b61310d88828601612e19565b60c08301525060e08301518281111561312557600080fd5b61313188828601612e19565b60e083015250610100808401518381111561314b57600080fd5b61315789828701612e19565b82840152505061012061316b818501612e5e565b90820152602086015190945091508082111561318657600080fd5b5061319385828601612e91565b9150509250929050565b6000602082840312156131af57600080fd5b5051919050565b6000602082840312156131c857600080fd5b815167ffffffffffffffff808211156131e057600080fd5b90830190604082860312156131f457600080fd5b60405160408101818110838211171561320f5761320f612b8d565b60405282518281111561322157600080fd5b61322d87828601612e19565b82525060208301518281111561324257600080fd5b61324e87828601612e19565b60208301525095945050505050565b6000806040838503121561327057600080fd5b825167ffffffffffffffff8082111561328857600080fd5b61329486838701612e19565b935060208501519150808211156132aa57600080fd5b5061319385828601612e19565b600083516132c98184602088016126da565b8351908301906132dd8183602088016126da565b01949350505050565b6000602082840312156132f857600080fd5b815161110e81612763565b8183528181602085013750600060208284010152600060207fffffffffffffffffffffffffffffffffffffffffffffffffffffffffffffffe0601f840116840101905092915050565b60a08152600061336060a083018a8c613303565b73ffffffffffffffffffffffffffffffffffffffff89166020840152828103604084015261338f81888a613303565b905082810360608401526133a4818688613303565b9150508260808301529998505050505050505050565b7f4e487b7100000000000000000000000000000000000000000000000000000000600052601160045260246000fd5b600082198211156133fc576133fc6133ba565b500190565b60006020828403121561341357600080fd5b61110e82612e81565b60006020828403121561342e57600080fd5b815167ffffffffffffffff81111561344557600080fd5b61201c84828501612e19565b60008083357fffffffffffffffffffffffffffffffffffffffffffffffffffffffffffffffe184360301811261348657600080fd5b830160208101925035905067ffffffffffffffff8111156134a657600080fd5b8060051b3603821315612ad057600080fd5b81835260007f07ffffffffffffffffffffffffffffffffffffffffffffffffffffffffffffff8311156134ea57600080fd5b8260051b8083602087013760009401602001938452509192915050565b60008083357fffffffffffffffffffffffffffffffffffffffffffffffffffffffffffffffe184360301811261353c57600080fd5b830160208101925035905067ffffffffffffffff81111561355c57600080fd5b803603821315612ad057600080fd5b73ffffffffffffffffffffffffffffffffffffffff831681526040602082015260006135978384613451565b6101408060408601526135af610180860183856134b8565b9250602086013560608601526135c86040870187613507565b92507fffffffffffffffffffffffffffffffffffffffffffffffffffffffffffffffc080878603016080880152613600858584613303565b945061360e60608901612785565b73ffffffffffffffffffffffffffffffffffffffff811660a089015293506136396080890189613507565b94509150808786030160c0880152613652858584613303565b945061366160a0890189613507565b94509150808786030160e088015261367a858584613303565b945061368960c0890189613507565b945091506101008188870301818901526136a4868685613303565b95506136b360e08a018a613507565b955092506101208289880301818a01526136ce878786613303565b918a0135948901949094529290970135610160909601959095529695505050505050565b600061010073ffffffffffffffffffffffffffffffffffffffff808c1684528a60208501528960408501528089166060850152507fffffffff00000000000000000000000000000000000000000000000000000000871660808401528560a08401528460c08401528060e084015261376c81840185612706565b9b9a5050505050505050505050565b73ffffffffffffffffffffffffffffffffffffffff84168152826020820152606060408201526000611ba96060830184612706565b6000826137e6577f4e487b7100000000000000000000000000000000000000000000000000000000600052601260045260246000fd5b500690565b6000828210156137fd576137fd6133ba565b500390565b6000817fffffffffffffffffffffffffffffffffffffffffffffffffffffffffffffffff048311821515161561383a5761383a6133ba565b500290565b600181815b8085111561389857817fffffffffffffffffffffffffffffffffffffffffffffffffffffffffffffffff0482111561387e5761387e6133ba565b8085161561388b57918102915b93841c9390800290613844565b509250929050565b6000826138af575060016104d6565b816138bc575060006104d6565b81600181146138d257600281146138dc576138f8565b60019150506104d6565b60ff8411156138ed576138ed6133ba565b50506001821b6104d6565b5060208310610133831016604e8410600b841016171561391b575081810a6104d6565b613925838361383f565b807fffffffffffffffffffffffffffffffffffffffffffffffffffffffffffffffff04821115613957576139576133ba565b029392505050565b600061110e83836138a056fea164736f6c634300080e000aa164736f6c634300080e000a",
  "devdoc": {
    "details": "Factory contract to create WrappedTCO2 tokens and manage Chainlink oracle requests.",
    "kind": "dev",
    "methods": {
      "addRequest(string,string)": {
        "details": "Adds a new Chainlink oracle request configuration.",
        "params": {
          "path": "The JSON path for the data point in the API response.",
          "url": "The URL for the oracle request."
        }
      },
      "constructor": {
        "details": "Constructor for WrappedTCO2Factory.",
        "params": {
          "_fee": "Fee for oracle requests.",
          "_jobId": "Job ID for Chainlink oracle.",
          "_link": "LINK token address.",
          "_oracle": "Oracle address for Chainlink requests."
        }
      },
      "createWrappedTCO2(address)": {
        "details": "Creates a new WrappedTCO2 contract.",
        "params": {
          "_tco2TokenAddress": "Address of the underlying Toucan Carbon Offsets token."
        }
      },
      "createWrappedTCO2s(address[])": {
        "details": "Creates WrappedTCO2 contracts for multiple Toucan Carbon Offsets tokens.",
        "params": {
          "_tco2TokensAddress": "Array of addresses of the underlying Toucan Carbon Offsets tokens. This function iterates over an array of TCO2 token addresses and creates a WrappedTCO2 contract for each one using the createWrappedTCO2 function."
        }
      },
      "getRequestDetails(uint256)": {
        "details": "Retrieves details of a specific Chainlink oracle request configuration.",
        "params": {
          "id": "The ID of the request configuration."
        },
        "returns": {
          "_0": "The request details, including URL and JSON path."
        }
      },
      "getWrappedTCO2Contracts()": {
        "details": "Retrieves the list of WrappedTCO2 contract addresses.",
        "returns": {
          "_0": "An array of WrappedTCO2 contract addresses."
        }
      },
      "owner()": {
        "details": "Returns the address of the current owner."
      },
      "renounceOwnership()": {
        "details": "Leaves the contract without owner. It will not be possible to call `onlyOwner` functions. Can only be called by the current owner. NOTE: Renouncing ownership will leave the contract without an owner, thereby disabling any functionality that is only available to the owner."
      },
      "stringToBytes32(string)": {
        "details": "Converts a string to bytes32.",
        "params": {
          "source": "The string to convert."
        },
        "returns": {
          "result": "The resulting bytes32 value."
        }
      },
      "transferOwnership(address)": {
        "details": "Transfers ownership of the contract to a new account (`newOwner`). Can only be called by the current owner."
      }
    },
    "title": "WrappedTCO2Factory",
    "version": 1
  },
  "userdoc": {
    "kind": "user",
    "methods": {},
    "version": 1
  },
  "storageLayout": {
    "storage": [
      {
        "astId": 2183,
        "contract": "contracts/WrappedTCO2Factory.sol:WrappedTCO2Factory",
        "label": "_owner",
        "offset": 0,
        "slot": "0",
        "type": "t_address"
      },
      {
        "astId": 3654,
        "contract": "contracts/WrappedTCO2Factory.sol:WrappedTCO2Factory",
        "label": "wrappedTCO2Contracts",
        "offset": 0,
        "slot": "1",
        "type": "t_array(t_address)dyn_storage"
      },
      {
        "astId": 3658,
        "contract": "contracts/WrappedTCO2Factory.sol:WrappedTCO2Factory",
        "label": "underlyingToWrapped",
        "offset": 0,
        "slot": "2",
        "type": "t_mapping(t_address,t_address)"
      },
      {
        "astId": 3660,
        "contract": "contracts/WrappedTCO2Factory.sol:WrappedTCO2Factory",
        "label": "jobId",
        "offset": 0,
        "slot": "3",
        "type": "t_bytes32"
      },
      {
        "astId": 3662,
        "contract": "contracts/WrappedTCO2Factory.sol:WrappedTCO2Factory",
        "label": "fee",
        "offset": 0,
        "slot": "4",
        "type": "t_uint256"
      },
      {
        "astId": 3664,
        "contract": "contracts/WrappedTCO2Factory.sol:WrappedTCO2Factory",
        "label": "oracle",
        "offset": 0,
        "slot": "5",
        "type": "t_address"
      },
      {
        "astId": 3666,
        "contract": "contracts/WrappedTCO2Factory.sol:WrappedTCO2Factory",
        "label": "link",
        "offset": 0,
        "slot": "6",
        "type": "t_address"
      },
      {
        "astId": 3670,
        "contract": "contracts/WrappedTCO2Factory.sol:WrappedTCO2Factory",
        "label": "requests",
        "offset": 0,
        "slot": "7",
        "type": "t_array(t_struct(RequestDetails)3015_storage)dyn_storage"
      }
    ],
    "types": {
      "t_address": {
        "encoding": "inplace",
        "label": "address",
        "numberOfBytes": "20"
      },
      "t_array(t_address)dyn_storage": {
        "base": "t_address",
        "encoding": "dynamic_array",
        "label": "address[]",
        "numberOfBytes": "32"
      },
      "t_array(t_struct(RequestDetails)3015_storage)dyn_storage": {
        "base": "t_struct(RequestDetails)3015_storage",
        "encoding": "dynamic_array",
        "label": "struct IOracleUrlSource.RequestDetails[]",
        "numberOfBytes": "32"
      },
      "t_bytes32": {
        "encoding": "inplace",
        "label": "bytes32",
        "numberOfBytes": "32"
      },
      "t_mapping(t_address,t_address)": {
        "encoding": "mapping",
        "key": "t_address",
        "label": "mapping(address => address)",
        "numberOfBytes": "32",
        "value": "t_address"
      },
      "t_string_storage": {
        "encoding": "bytes",
        "label": "string",
        "numberOfBytes": "32"
      },
      "t_struct(RequestDetails)3015_storage": {
        "encoding": "inplace",
        "label": "struct IOracleUrlSource.RequestDetails",
        "members": [
          {
            "astId": 3012,
            "contract": "contracts/WrappedTCO2Factory.sol:WrappedTCO2Factory",
            "label": "url",
            "offset": 0,
            "slot": "0",
            "type": "t_string_storage"
          },
          {
            "astId": 3014,
            "contract": "contracts/WrappedTCO2Factory.sol:WrappedTCO2Factory",
            "label": "path",
            "offset": 0,
            "slot": "1",
            "type": "t_string_storage"
          }
        ],
        "numberOfBytes": "64"
      },
      "t_uint256": {
        "encoding": "inplace",
        "label": "uint256",
        "numberOfBytes": "32"
      }
    }
  }
}