{
  "address": "0xBde837e1f2FFCDf4422BD99CE74910C523081EA0",
  "abi": [
    {
      "inputs": [
        {
          "internalType": "address",
          "name": "_oracle",
          "type": "address"
        },
        {
          "internalType": "string",
          "name": "_jobId",
          "type": "string"
        },
        {
          "internalType": "uint256",
          "name": "_fee",
          "type": "uint256"
        },
        {
          "internalType": "address",
          "name": "_link",
          "type": "address"
        }
      ],
      "stateMutability": "nonpayable",
      "type": "constructor"
    },
    {
      "anonymous": false,
      "inputs": [
        {
          "indexed": true,
          "internalType": "address",
          "name": "previousOwner",
          "type": "address"
        },
        {
          "indexed": true,
          "internalType": "address",
          "name": "newOwner",
          "type": "address"
        }
      ],
      "name": "OwnershipTransferred",
      "type": "event"
    },
    {
      "anonymous": false,
      "inputs": [
        {
          "indexed": true,
          "internalType": "uint256",
          "name": "id",
          "type": "uint256"
        }
      ],
      "name": "RequestAdded",
      "type": "event"
    },
    {
      "anonymous": false,
      "inputs": [
        {
          "indexed": true,
          "internalType": "address",
          "name": "wrappedTCO2Address",
          "type": "address"
        }
      ],
      "name": "WrappedTCO2Created",
      "type": "event"
    },
    {
      "inputs": [
        {
          "internalType": "string",
          "name": "url",
          "type": "string"
        },
        {
          "internalType": "string",
          "name": "path",
          "type": "string"
        }
      ],
      "name": "addRequest",
      "outputs": [],
      "stateMutability": "nonpayable",
      "type": "function"
    },
    {
      "inputs": [
        {
          "internalType": "address",
          "name": "_tco2TokenAddress",
          "type": "address"
        }
      ],
      "name": "createWrappedTCO2",
      "outputs": [],
      "stateMutability": "nonpayable",
      "type": "function"
    },
    {
      "inputs": [
        {
          "internalType": "address[]",
          "name": "_tco2TokensAddress",
          "type": "address[]"
        }
      ],
      "name": "createWrappedTCO2s",
      "outputs": [],
      "stateMutability": "nonpayable",
      "type": "function"
    },
    {
      "inputs": [],
      "name": "fee",
      "outputs": [
        {
          "internalType": "uint256",
          "name": "",
          "type": "uint256"
        }
      ],
      "stateMutability": "view",
      "type": "function"
    },
    {
      "inputs": [
        {
          "internalType": "uint256",
          "name": "id",
          "type": "uint256"
        }
      ],
      "name": "getRequestDetails",
      "outputs": [
        {
          "components": [
            {
              "internalType": "string",
              "name": "url",
              "type": "string"
            },
            {
              "internalType": "string",
              "name": "path",
              "type": "string"
            }
          ],
          "internalType": "struct IOracleUrlSource.RequestDetails",
          "name": "",
          "type": "tuple"
        }
      ],
      "stateMutability": "view",
      "type": "function"
    },
    {
      "inputs": [],
      "name": "getWrappedTCO2Contracts",
      "outputs": [
        {
          "internalType": "address[]",
          "name": "",
          "type": "address[]"
        }
      ],
      "stateMutability": "view",
      "type": "function"
    },
    {
      "inputs": [],
      "name": "jobId",
      "outputs": [
        {
          "internalType": "bytes32",
          "name": "",
          "type": "bytes32"
        }
      ],
      "stateMutability": "view",
      "type": "function"
    },
    {
      "inputs": [],
      "name": "link",
      "outputs": [
        {
          "internalType": "address",
          "name": "",
          "type": "address"
        }
      ],
      "stateMutability": "view",
      "type": "function"
    },
    {
      "inputs": [],
      "name": "oracle",
      "outputs": [
        {
          "internalType": "address",
          "name": "",
          "type": "address"
        }
      ],
      "stateMutability": "view",
      "type": "function"
    },
    {
      "inputs": [],
      "name": "owner",
      "outputs": [
        {
          "internalType": "address",
          "name": "",
          "type": "address"
        }
      ],
      "stateMutability": "view",
      "type": "function"
    },
    {
      "inputs": [],
      "name": "renounceOwnership",
      "outputs": [],
      "stateMutability": "nonpayable",
      "type": "function"
    },
    {
      "inputs": [
        {
          "internalType": "uint256",
          "name": "",
          "type": "uint256"
        }
      ],
      "name": "requests",
      "outputs": [
        {
          "internalType": "string",
          "name": "url",
          "type": "string"
        },
        {
          "internalType": "string",
          "name": "path",
          "type": "string"
        }
      ],
      "stateMutability": "view",
      "type": "function"
    },
    {
      "inputs": [
        {
          "internalType": "string",
          "name": "source",
          "type": "string"
        }
      ],
      "name": "stringToBytes32",
      "outputs": [
        {
          "internalType": "bytes32",
          "name": "result",
          "type": "bytes32"
        }
      ],
      "stateMutability": "pure",
      "type": "function"
    },
    {
      "inputs": [
        {
          "internalType": "address",
          "name": "newOwner",
          "type": "address"
        }
      ],
      "name": "transferOwnership",
      "outputs": [],
      "stateMutability": "nonpayable",
      "type": "function"
    },
    {
      "inputs": [
        {
          "internalType": "address",
          "name": "",
          "type": "address"
        }
      ],
      "name": "underlyingToWrapped",
      "outputs": [
        {
          "internalType": "address",
          "name": "",
          "type": "address"
        }
      ],
      "stateMutability": "view",
      "type": "function"
    },
    {
      "inputs": [
        {
          "internalType": "uint256",
          "name": "",
          "type": "uint256"
        }
      ],
      "name": "wrappedTCO2Contracts",
      "outputs": [
        {
          "internalType": "address",
          "name": "",
          "type": "address"
        }
      ],
      "stateMutability": "view",
      "type": "function"
    }
  ],
  "transactionHash": "0xdf9594a255bf7b75a8b3048445f4168c687fecb40c71e1bf3e07de67e8740393",
  "args": [
    "0x40193c8518BB267228Fc409a613bDbD8eC5a97b3",
    "7d80a6386ef543a3abb52817f6707e3b",
    "100000000000000000",
    "0x326C977E6efc84E512bB9C30f76E30c160eD06FB"
  ],
  "numDeployments": 1,
  "solcInputHash": "da6b32342181074723ba9bc1e26930b3",
  "bytecode": "0x60806040523480156200001157600080fd5b506040516200531d3803806200531d833981016040819052620000349162000139565b6200003f3362000096565b600580546001600160a01b0319166001600160a01b0386161790556200006583620000e6565b600355600491909155600680546001600160a01b0319166001600160a01b0390921691909117905550620002489050565b600080546001600160a01b038381166001600160a01b0319831681178455604051919092169283917f8be0079c531659141344cd1fd0a4f28419497f9722a3daafe3b4186f6b6457e09190a35050565b805160009082908203620000fd5750600092915050565b50506020015190565b80516001600160a01b03811681146200011e57600080fd5b919050565b634e487b7160e01b600052604160045260246000fd5b600080600080608085870312156200015057600080fd5b6200015b8562000106565b602086810151919550906001600160401b03808211156200017b57600080fd5b818801915088601f8301126200019057600080fd5b815181811115620001a557620001a562000123565b604051601f8201601f19908116603f01168101908382118183101715620001d057620001d062000123565b816040528281528b86848701011115620001e957600080fd5b600093505b828410156200020d5784840186015181850187015292850192620001ee565b828411156200021f5760008684830101525b809850505050505050604085015191506200023d6060860162000106565b905092959194509250565b6150c580620002586000396000f3fe60806040523480156200001157600080fd5b5060043610620001155760003560e01c8063b4ec337211620000a3578063ddca3f43116200006e578063ddca3f43146200029d578063e73ebd8114620002a7578063f2fde38b14620002c0578063f34d4c6314620002d757600080fd5b8063b4ec3372146200021d578063b9da4af81462000256578063c2939d97146200026d578063cfb51928146200028657600080fd5b806381d12c5811620000e457806381d12c5814620001a957806383d00d2914620001d05780638da5cb5b14620001e75780639559c07f146200020657600080fd5b80631c4695f4146200011a578063591368181462000165578063715018a6146200017e5780637dc0d1d01462000188575b600080fd5b6006546200013b9073ffffffffffffffffffffffffffffffffffffffff1681565b60405173ffffffffffffffffffffffffffffffffffffffff90911681526020015b60405180910390f35b6200017c6200017636600462000d11565b620002fd565b005b6200017c6200034a565b6005546200013b9073ffffffffffffffffffffffffffffffffffffffff1681565b620001c0620001ba36600462000dcb565b62000362565b6040516200015c92919062000e53565b6200013b620001e136600462000dcb565b620004b7565b60005473ffffffffffffffffffffffffffffffffffffffff166200013b565b6200017c6200021736600462000e85565b620004ef565b6200013b6200022e36600462000e85565b60026020526000908152604090205473ffffffffffffffffffffffffffffffffffffffff1681565b6200017c6200026736600462000f3f565b620006b9565b6200027760035481565b6040519081526020016200015c565b620002776200029736600462000faa565b62000781565b6200027760045481565b620002b1620007a1565b6040516200015c919062000feb565b6200017c620002d136600462000e85565b62000812565b620002ee620002e836600462000dcb565b620008cf565b6040516200015c919062001047565b60005b8151811015620003465762000331828281518110620003235762000323620010a2565b6020026020010151620004ef565b806200033d8162001100565b91505062000300565b5050565b6200035462000aba565b62000360600062000b3d565b565b600781815481106200037357600080fd5b906000526020600020906002020160009150905080600001805462000398906200113b565b80601f0160208091040260200160405190810160405280929190818152602001828054620003c6906200113b565b8015620004175780601f10620003eb5761010080835404028352916020019162000417565b820191906000526020600020905b815481529060010190602001808311620003f957829003601f168201915b5050505050908060010180546200042e906200113b565b80601f01602080910402602001604051908101604052809291908181526020018280546200045c906200113b565b8015620004ad5780601f106200048157610100808354040283529160200191620004ad565b820191906000526020600020905b8154815290600101906020018083116200048f57829003601f168201915b5050505050905082565b60018181548110620004c857600080fd5b60009182526020909120015473ffffffffffffffffffffffffffffffffffffffff16905081565b73ffffffffffffffffffffffffffffffffffffffff818116600090815260026020526040902054161562000584576040517f08c379a000000000000000000000000000000000000000000000000000000000815260206004820152601a60248201527f5772617070656454434f3220616c72656164792065786973747300000000000060448201526064015b60405180910390fd5b600654604051600091839173ffffffffffffffffffffffffffffffffffffffff909116903090620005b59062000bb2565b73ffffffffffffffffffffffffffffffffffffffff938416815291831660208301529091166040820152606001604051809103906000f080158015620005ff573d6000803e3d6000fd5b50600180548082019091557fb10e2d527612073b26eecdfd717e6a320cf44b4afac2b0732d9fcbe2b7fa0cf601805473ffffffffffffffffffffffffffffffffffffffff8084167fffffffffffffffffffffffff00000000000000000000000000000000000000009283168117909355851660009081526002602052604080822080549093168417909255905192935090917f68dbab7bf7ba33cc24097f8864673e416548ae0c59e0d3a20d51eb3b6a8206fb9190a25050565b620006c362000aba565b604080518082019091528281526020808201839052600780546001810182556000919091528251805160029092027fa66cc928b5edb82af9bd49922954155ab7b0942694bea4ce44661d9a8736c6880192620007259284929091019062000bc0565b50602082810151805162000740926001850192019062000bc0565b505060075462000754915060019062001190565b6040517f1241757208f08d63f291d85cafba51f9c01fc80b77f21fb69b4b7ce9908b9a0e90600090a25050565b805160009082908203620007985750600092915050565b50506020015190565b606060018054806020026020016040519081016040528092919081815260200182805480156200080857602002820191906000526020600020905b815473ffffffffffffffffffffffffffffffffffffffff168152600190910190602001808311620007dc575b5050505050905090565b6200081c62000aba565b73ffffffffffffffffffffffffffffffffffffffff8116620008c1576040517f08c379a000000000000000000000000000000000000000000000000000000000815260206004820152602660248201527f4f776e61626c653a206e6577206f776e657220697320746865207a65726f206160448201527f646472657373000000000000000000000000000000000000000000000000000060648201526084016200057b565b620008cc8162000b3d565b50565b6040805180820190915260608082526020820152600754821062000950576040517f08c379a000000000000000000000000000000000000000000000000000000000815260206004820152601260248201527f496e76616c69642072657175657374206964000000000000000000000000000060448201526064016200057b565b60078281548110620009665762000966620010a2565b906000526020600020906002020160405180604001604052908160008201805462000991906200113b565b80601f0160208091040260200160405190810160405280929190818152602001828054620009bf906200113b565b801562000a105780601f10620009e45761010080835404028352916020019162000a10565b820191906000526020600020905b815481529060010190602001808311620009f257829003601f168201915b5050505050815260200160018201805462000a2b906200113b565b80601f016020809104026020016040519081016040528092919081815260200182805462000a59906200113b565b801562000aaa5780601f1062000a7e5761010080835404028352916020019162000aaa565b820191906000526020600020905b81548152906001019060200180831162000a8c57829003601f168201915b5050505050815250509050919050565b60005473ffffffffffffffffffffffffffffffffffffffff16331462000360576040517f08c379a000000000000000000000000000000000000000000000000000000000815260206004820181905260248201527f4f776e61626c653a2063616c6c6572206973206e6f7420746865206f776e657260448201526064016200057b565b6000805473ffffffffffffffffffffffffffffffffffffffff8381167fffffffffffffffffffffffff0000000000000000000000000000000000000000831681178455604051919092169283917f8be0079c531659141344cd1fd0a4f28419497f9722a3daafe3b4186f6b6457e09190a35050565b613f0e80620011ab83390190565b82805462000bce906200113b565b90600052602060002090601f01602090048101928262000bf2576000855562000c3d565b82601f1062000c0d57805160ff191683800117855562000c3d565b8280016001018555821562000c3d579182015b8281111562000c3d57825182559160200191906001019062000c20565b5062000c4b92915062000c4f565b5090565b5b8082111562000c4b576000815560010162000c50565b7f4e487b7100000000000000000000000000000000000000000000000000000000600052604160045260246000fd5b604051601f82017fffffffffffffffffffffffffffffffffffffffffffffffffffffffffffffffe016810167ffffffffffffffff8111828210171562000cdf5762000cdf62000c66565b604052919050565b803573ffffffffffffffffffffffffffffffffffffffff8116811462000d0c57600080fd5b919050565b6000602080838503121562000d2557600080fd5b823567ffffffffffffffff8082111562000d3e57600080fd5b818501915085601f83011262000d5357600080fd5b81358181111562000d685762000d6862000c66565b8060051b915062000d7b84830162000c95565b818152918301840191848101908884111562000d9657600080fd5b938501935b8385101562000dbf5762000daf8562000ce7565b8252938501939085019062000d9b565b98975050505050505050565b60006020828403121562000dde57600080fd5b5035919050565b6000815180845260005b8181101562000e0d5760208185018101518683018201520162000def565b8181111562000e20576000602083870101525b50601f017fffffffffffffffffffffffffffffffffffffffffffffffffffffffffffffffe0169290920160200192915050565b60408152600062000e68604083018562000de5565b828103602084015262000e7c818562000de5565b95945050505050565b60006020828403121562000e9857600080fd5b62000ea38262000ce7565b9392505050565b600082601f83011262000ebc57600080fd5b813567ffffffffffffffff81111562000ed95762000ed962000c66565b62000f0c60207fffffffffffffffffffffffffffffffffffffffffffffffffffffffffffffffe0601f8401160162000c95565b81815284602083860101111562000f2257600080fd5b816020850160208301376000918101602001919091529392505050565b6000806040838503121562000f5357600080fd5b823567ffffffffffffffff8082111562000f6c57600080fd5b62000f7a8683870162000eaa565b9350602085013591508082111562000f9157600080fd5b5062000fa08582860162000eaa565b9150509250929050565b60006020828403121562000fbd57600080fd5b813567ffffffffffffffff81111562000fd557600080fd5b62000fe38482850162000eaa565b949350505050565b6020808252825182820181905260009190848201906040850190845b818110156200103b57835173ffffffffffffffffffffffffffffffffffffffff168352928401929184019160010162001007565b50909695505050505050565b60208152600082516040602084015262001065606084018262000de5565b905060208401517fffffffffffffffffffffffffffffffffffffffffffffffffffffffffffffffe084830301604085015262000e7c828262000de5565b7f4e487b7100000000000000000000000000000000000000000000000000000000600052603260045260246000fd5b7f4e487b7100000000000000000000000000000000000000000000000000000000600052601160045260246000fd5b60007fffffffffffffffffffffffffffffffffffffffffffffffffffffffffffffffff8203620011345762001134620010d1565b5060010190565b600181811c908216806200115057607f821691505b6020821081036200118a577f4e487b7100000000000000000000000000000000000000000000000000000000600052602260045260246000fd5b50919050565b600082821015620011a557620011a5620010d1565b50039056fe608060405260016009553480156200001657600080fd5b5060405162003f0e38038062003f0e8339810160408190526200003991620002f0565b6200004483620000e8565b6200004f846200018d565b8151620000649060039060208501906200022d565b5080516200007a9060049060208401906200022d565b5050600c80546001600160a01b0319166001600160a01b03861617905550620000bf82600780546001600160a01b0319166001600160a01b0392909216919091179055565b600b80546001600160a01b0319166001600160a01b0392909216919091179055506200053c9050565b60606000829050600080826001600160a01b03166364c5a4036040518163ffffffff1660e01b8152600401600060405180830381865afa15801562000131573d6000803e3d6000fd5b505050506040513d6000823e601f3d908101601f191682016040526200015b919081019062000414565b915091508181604051602001620001749291906200047e565b6040516020818303038152906040529350505050919050565b606060008290506000816001600160a01b03166364c5a4036040518163ffffffff1660e01b8152600401600060405180830381865afa158015620001d5573d6000803e3d6000fd5b505050506040513d6000823e601f3d908101601f19168201604052620001ff919081019062000414565b50905080604051602001620002159190620004d0565b60405160208183030381529060405292505050919050565b8280546200023b9062000500565b90600052602060002090601f0160209004810192826200025f5760008555620002aa565b82601f106200027a57805160ff1916838001178555620002aa565b82800160010185558215620002aa579182015b82811115620002aa5782518255916020019190600101906200028d565b50620002b8929150620002bc565b5090565b5b80821115620002b85760008155600101620002bd565b80516001600160a01b0381168114620002eb57600080fd5b919050565b6000806000606084860312156200030657600080fd5b6200031184620002d3565b92506200032160208501620002d3565b91506200033160408501620002d3565b90509250925092565b634e487b7160e01b600052604160045260246000fd5b60005b838110156200036d57818101518382015260200162000353565b838111156200037d576000848401525b50505050565b600082601f8301126200039557600080fd5b81516001600160401b0380821115620003b257620003b26200033a565b604051601f8301601f19908116603f01168101908282118183101715620003dd57620003dd6200033a565b81604052838152866020858801011115620003f757600080fd5b6200040a84602083016020890162000350565b9695505050505050565b600080604083850312156200042857600080fd5b82516001600160401b03808211156200044057600080fd5b6200044e8683870162000383565b935060208501519150808211156200046557600080fd5b50620004748582860162000383565b9150509250929050565b657754434f322d60d01b815260008351620004a181600685016020880162000350565b602d60f81b6006918401918201528351620004c481600784016020880162000350565b01600701949350505050565b657754434f322d60d01b815260008251620004f381600685016020870162000350565b9190910160060192915050565b600181811c908216806200051557607f821691505b6020821081036200053657634e487b7160e01b600052602260045260246000fd5b50919050565b6139c2806200054c6000396000f3fe608060405234801561001057600080fd5b50600436106101ae5760003560e01c80636746e7be116100ee578063a457c2d711610097578063de0e9a3e11610071578063de0e9a3e146103ef578063e819426c14610402578063ea598cb01461040a578063f2e148381461041d57600080fd5b8063a457c2d714610383578063a9059cbb14610396578063dd62ed3e146103a957600080fd5b806379cc6790116100c857806379cc67901461034857806391da1ed21461035b57806395d89b411461037b57600080fd5b80636746e7be146102ec5780636b24ffd6146102ff57806370a082311461031257600080fd5b80632ef292901161015b578063395093511161013557806339509351146102795780633a8f0f3d1461028c5780633c31175e1461029f57806345a54ca6146102a757600080fd5b80632ef2929014610242578063313ce56714610257578063374419961461026657600080fd5b806318160ddd1161018c57806318160ddd1461020a57806323b872dd1461021c5780632adb9e3c1461022f57600080fd5b806306fdde03146101b3578063095ea7b3146101d1578063152583de146101f4575b600080fd5b6101bb610430565b6040516101c89190612757565b60405180910390f35b6101e46101df36600461279c565b6104c2565b60405190151581526020016101c8565b6101fc6104dc565b6040516101c89291906128ed565b6002545b6040519081526020016101c8565b6101e461022a366004612a57565b610689565b61020e61023d366004612a98565b6106ad565b610255610250366004612afa565b610afc565b005b604051601281526020016101c8565b610255610274366004612cc2565b610ba6565b6101e461028736600461279c565b610cf9565b61020e61029a366004612a98565b610d45565b6101bb610f20565b600c546102c79073ffffffffffffffffffffffffffffffffffffffff1681565b60405173ffffffffffffffffffffffffffffffffffffffff90911681526020016101c8565b6102556102fa366004612d4c565b610fdb565b61020e61030d36600461279c565b611077565b61020e610320366004612da4565b73ffffffffffffffffffffffffffffffffffffffff1660009081526020819052604090205490565b61025561035636600461279c565b61111c565b600b546102c79073ffffffffffffffffffffffffffffffffffffffff1681565b6101bb61117b565b6101e461039136600461279c565b61118a565b6101e46103a436600461279c565b61125b565b61020e6103b7366004612dc1565b73ffffffffffffffffffffffffffffffffffffffff918216600090815260016020908152604080832093909416825291909152205490565b6102556103fd366004612a98565b611269565b61020e6113f0565b610255610418366004612a98565b611484565b6101bb61042b366004612a98565b611595565b60606003805461043f90612def565b80601f016020809104026020016040519081016040528092919081815260200182805461046b90612def565b80156104b85780601f1061048d576101008083540402835291602001916104b8565b820191906000526020600020905b81548152906001019060200180831161049b57829003601f168201915b5050505050905090565b6000336104d081858561162f565b60019150505b92915050565b610548604051806101400160405280606081526020016060815260200160608152602001606081526020016060815260200160608152602001606081526020016060815260200160608152602001600073ffffffffffffffffffffffffffffffffffffffff1681525090565b6105ce60405180610180016040528060608152602001600067ffffffffffffffff168152602001600067ffffffffffffffff16815260200160008152602001600067ffffffffffffffff16815260200160001515815260200160001515815260200160608152602001606081526020016060815260200160608152602001606081525090565b600c60009054906101000a900473ffffffffffffffffffffffffffffffffffffffff1673ffffffffffffffffffffffffffffffffffffffff1663152583de6040518163ffffffff1660e01b8152600401600060405180830381865afa15801561063b573d6000803e3d6000fd5b505050506040513d6000823e601f3d9081017fffffffffffffffffffffffffffffffffffffffffffffffffffffffffffffffe0168201604052610681919081019061301f565b915091509091565b6000336106978582856117e2565b6106a28585856118b9565b506001949350505050565b60008061076b600b60009054906101000a900473ffffffffffffffffffffffffffffffffffffffff1673ffffffffffffffffffffffffffffffffffffffff1663c2939d976040518163ffffffff1660e01b8152600401602060405180830381865afa158015610720573d6000803e3d6000fd5b505050506040513d601f19601f8201168201806040525081019061074491906131e7565b307f3744199600000000000000000000000000000000000000000000000000000000611b28565b600b546040517ff34d4c630000000000000000000000000000000000000000000000000000000081526004810186905291925060009173ffffffffffffffffffffffffffffffffffffffff9091169063f34d4c6390602401600060405180830381865afa1580156107e0573d6000803e3d6000fd5b505050506040513d6000823e601f3d9081017fffffffffffffffffffffffffffffffffffffffffffffffffffffffffffffffe01682016040526108269190810190613200565b90506000600c60009054906101000a900473ffffffffffffffffffffffffffffffffffffffff1673ffffffffffffffffffffffffffffffffffffffff166364c5a4036040518163ffffffff1660e01b8152600401600060405180830381865afa158015610897573d6000803e3d6000fd5b505050506040513d6000823e601f3d9081017fffffffffffffffffffffffffffffffffffffffffffffffffffffffffffffffe01682016040526108dd91908101906132a7565b5090506109666040518060400160405280600381526020017f6765740000000000000000000000000000000000000000000000000000000000815250836000015183604051602001610930929190613301565b604080517fffffffffffffffffffffffffffffffffffffffffffffffffffffffffffffffe0818403018152919052859190611bb9565b6109b46040518060400160405280600481526020017f7061746800000000000000000000000000000000000000000000000000000000815250836020015185611bb99092919063ffffffff16565b600b54604080517f7dc0d1d00000000000000000000000000000000000000000000000000000000081529051610ae19273ffffffffffffffffffffffffffffffffffffffff1691637dc0d1d09160048083019260209291908290030181865afa158015610a25573d6000803e3d6000fd5b505050506040513d601f19601f82011682018060405250810190610a499190613330565b600b54604080517fddca3f430000000000000000000000000000000000000000000000000000000081529051879273ffffffffffffffffffffffffffffffffffffffff169163ddca3f439160048083019260209291908290030181865afa158015610ab8573d6000803e3d6000fd5b505050506040513d601f19601f82011682018060405250810190610adc91906131e7565b611bdc565b6000818152600d602052604090209590955550929392505050565b610b063382611cd3565b600c546040517f2ef2929000000000000000000000000000000000000000000000000000000000815273ffffffffffffffffffffffffffffffffffffffff90911690632ef2929090610b6a908b908b908b908b908b908b908b908b90600401613396565b600060405180830381600087803b158015610b8457600080fd5b505af1158015610b98573d6000803e3d6000fd5b505050505050505050505050565b6000828152600a6020526040902054829073ffffffffffffffffffffffffffffffffffffffff163314610c60576040517f08c379a000000000000000000000000000000000000000000000000000000000815260206004820152602860248201527f536f75726365206d75737420626520746865206f7261636c65206f662074686560448201527f207265717565737400000000000000000000000000000000000000000000000060648201526084015b60405180910390fd5b6000818152600a602052604080822080547fffffffffffffffffffffffff00000000000000000000000000000000000000001690555182917f7cc135e0cebb02c3480ae5d74d377283180a2601f8f644edf7987b009316c63a91a26000838152600d6020908152604080832054808452600e835292208451610ce492860190612648565b505050600091825250600d6020526040812055565b33600081815260016020908152604080832073ffffffffffffffffffffffffffffffffffffffff871684529091528120549091906104d09082908690610d40908790613433565b61162f565b6000610d6660075473ffffffffffffffffffffffffffffffffffffffff1690565b73ffffffffffffffffffffffffffffffffffffffff166323b872dd3330600b60009054906101000a900473ffffffffffffffffffffffffffffffffffffffff1673ffffffffffffffffffffffffffffffffffffffff1663ddca3f436040518163ffffffff1660e01b8152600401602060405180830381865afa158015610df0573d6000803e3d6000fd5b505050506040513d601f19601f82011682018060405250810190610e1491906131e7565b6040517fffffffff0000000000000000000000000000000000000000000000000000000060e086901b16815273ffffffffffffffffffffffffffffffffffffffff938416600482015292909116602483015260448201526064016020604051808303816000875af1158015610e8d573d6000803e3d6000fd5b505050506040513d601f19601f82011682018060405250810190610eb1919061344b565b610f17576040517f08c379a000000000000000000000000000000000000000000000000000000000815260206004820152601760248201527f556e61626c6520746f207472616e73666572204c494e4b0000000000000000006044820152606401610c57565b6104d6826106ad565b600c54604080517f3c31175e000000000000000000000000000000000000000000000000000000008152905160609273ffffffffffffffffffffffffffffffffffffffff1691633c31175e9160048083019260009291908290030181865afa158015610f90573d6000803e3d6000fd5b505050506040513d6000823e601f3d9081017fffffffffffffffffffffffffffffffffffffffffffffffffffffffffffffffe0168201604052610fd69190810190613466565b905090565b610fe9338260200135611cd3565b600c546040517f6746e7be00000000000000000000000000000000000000000000000000000000815273ffffffffffffffffffffffffffffffffffffffff90911690636746e7be9061104190859085906004016135b5565b600060405180830381600087803b15801561105b57600080fd5b505af115801561106f573d6000803e3d6000fd5b505050505050565b600c546040517f6b24ffd600000000000000000000000000000000000000000000000000000000815273ffffffffffffffffffffffffffffffffffffffff8481166004830152602482018490526000921690636b24ffd6906044016020604051808303816000875af11580156110f1573d6000803e3d6000fd5b505050506040513d601f19601f8201168201806040525081019061111591906131e7565b9392505050565b600c546040517f79cc679000000000000000000000000000000000000000000000000000000000815273ffffffffffffffffffffffffffffffffffffffff848116600483015260248201849052909116906379cc679090604401611041565b60606004805461043f90612def565b33600081815260016020908152604080832073ffffffffffffffffffffffffffffffffffffffff871684529091528120549091908381101561124e576040517f08c379a000000000000000000000000000000000000000000000000000000000815260206004820152602560248201527f45524332303a2064656372656173656420616c6c6f77616e63652062656c6f7760448201527f207a65726f0000000000000000000000000000000000000000000000000000006064820152608401610c57565b6106a2828686840361162f565b6000336104d08185856118b9565b336000908152602081905260409020548111156112e2576040517f08c379a000000000000000000000000000000000000000000000000000000000815260206004820152601460248201527f496e73756666696369656e742062616c616e63650000000000000000000000006044820152606401610c57565b6112ec3382611cd3565b600c546040517fa9059cbb0000000000000000000000000000000000000000000000000000000081523360048201526024810183905273ffffffffffffffffffffffffffffffffffffffff9091169063a9059cbb906044016020604051808303816000875af1158015611363573d6000803e3d6000fd5b505050506040513d601f19601f82011682018060405250810190611387919061344b565b6113ed576040517f08c379a000000000000000000000000000000000000000000000000000000000815260206004820152600f60248201527f5472616e73666572206661696c656400000000000000000000000000000000006044820152606401610c57565b50565b600c54604080517fe819426c000000000000000000000000000000000000000000000000000000008152905160009273ffffffffffffffffffffffffffffffffffffffff169163e819426c9160048083019260209291908290030181865afa158015611460573d6000803e3d6000fd5b505050506040513d601f19601f82011682018060405250810190610fd691906131e7565b600c546040517f23b872dd0000000000000000000000000000000000000000000000000000000081523360048201523060248201526044810183905273ffffffffffffffffffffffffffffffffffffffff909116906323b872dd906064016020604051808303816000875af1158015611501573d6000803e3d6000fd5b505050506040513d601f19601f82011682018060405250810190611525919061344b565b61158b576040517f08c379a000000000000000000000000000000000000000000000000000000000815260206004820152600f60248201527f5472616e73666572206661696c656400000000000000000000000000000000006044820152606401610c57565b6113ed3382611e97565b600e60205260009081526040902080546115ae90612def565b80601f01602080910402602001604051908101604052809291908181526020018280546115da90612def565b80156116275780601f106115fc57610100808354040283529160200191611627565b820191906000526020600020905b81548152906001019060200180831161160a57829003601f168201915b505050505081565b73ffffffffffffffffffffffffffffffffffffffff83166116d1576040517f08c379a0000000000000000000000000000000000000000000000000000000008152602060048201526024808201527f45524332303a20617070726f76652066726f6d20746865207a65726f2061646460448201527f72657373000000000000000000000000000000000000000000000000000000006064820152608401610c57565b73ffffffffffffffffffffffffffffffffffffffff8216611774576040517f08c379a000000000000000000000000000000000000000000000000000000000815260206004820152602260248201527f45524332303a20617070726f766520746f20746865207a65726f20616464726560448201527f73730000000000000000000000000000000000000000000000000000000000006064820152608401610c57565b73ffffffffffffffffffffffffffffffffffffffff83811660008181526001602090815260408083209487168084529482529182902085905590518481527f8c5be1e5ebec7d5bd14f71427d1e84f3dd0314c0f7b2291e5b200ac8c7c3b925910160405180910390a3505050565b73ffffffffffffffffffffffffffffffffffffffff8381166000908152600160209081526040808320938616835292905220547fffffffffffffffffffffffffffffffffffffffffffffffffffffffffffffffff81146118b357818110156118a6576040517f08c379a000000000000000000000000000000000000000000000000000000000815260206004820152601d60248201527f45524332303a20696e73756666696369656e7420616c6c6f77616e63650000006044820152606401610c57565b6118b3848484840361162f565b50505050565b73ffffffffffffffffffffffffffffffffffffffff831661195c576040517f08c379a000000000000000000000000000000000000000000000000000000000815260206004820152602560248201527f45524332303a207472616e736665722066726f6d20746865207a65726f20616460448201527f64726573730000000000000000000000000000000000000000000000000000006064820152608401610c57565b73ffffffffffffffffffffffffffffffffffffffff82166119ff576040517f08c379a000000000000000000000000000000000000000000000000000000000815260206004820152602360248201527f45524332303a207472616e7366657220746f20746865207a65726f206164647260448201527f65737300000000000000000000000000000000000000000000000000000000006064820152608401610c57565b73ffffffffffffffffffffffffffffffffffffffff831660009081526020819052604090205481811015611ab5576040517f08c379a000000000000000000000000000000000000000000000000000000000815260206004820152602660248201527f45524332303a207472616e7366657220616d6f756e742065786365656473206260448201527f616c616e636500000000000000000000000000000000000000000000000000006064820152608401610c57565b73ffffffffffffffffffffffffffffffffffffffff848116600081815260208181526040808320878703905593871680835291849020805487019055925185815290927fddf252ad1be2c89b69c2b068fc378daa952ba7f163c4a11628f55a4df523b3ef910160405180910390a36118b3565b611b666040805160a0810182526000808252602080830182905282840182905260608084018390528451808601909552845283015290608082015290565b611ba46040805160a0810182526000808252602080830182905282840182905260608084018390528451808601909552845283015290608082015290565b611bb081868686611f8a565b95945050505050565b6080830151611bc8908361202b565b6080830151611bd7908261202b565b505050565b600954600090611bed816001613433565b600955835160408086015160808701515191516000937f404299460000000000000000000000000000000000000000000000000000000093611c3e9386938493923092918a9160019160240161373c565b604080517fffffffffffffffffffffffffffffffffffffffffffffffffffffffffffffffe08184030181529190526020810180517bffffffffffffffffffffffffffffffffffffffffffffffffffffffff167fffffffff00000000000000000000000000000000000000000000000000000000909316929092179091529050611cc986838684612042565b9695505050505050565b73ffffffffffffffffffffffffffffffffffffffff8216611d76576040517f08c379a000000000000000000000000000000000000000000000000000000000815260206004820152602160248201527f45524332303a206275726e2066726f6d20746865207a65726f2061646472657360448201527f73000000000000000000000000000000000000000000000000000000000000006064820152608401610c57565b73ffffffffffffffffffffffffffffffffffffffff821660009081526020819052604090205481811015611e2c576040517f08c379a000000000000000000000000000000000000000000000000000000000815260206004820152602260248201527f45524332303a206275726e20616d6f756e7420657863656564732062616c616e60448201527f63650000000000000000000000000000000000000000000000000000000000006064820152608401610c57565b73ffffffffffffffffffffffffffffffffffffffff83166000818152602081815260408083208686039055600280548790039055518581529192917fddf252ad1be2c89b69c2b068fc378daa952ba7f163c4a11628f55a4df523b3ef910160405180910390a3505050565b73ffffffffffffffffffffffffffffffffffffffff8216611f14576040517f08c379a000000000000000000000000000000000000000000000000000000000815260206004820152601f60248201527f45524332303a206d696e7420746f20746865207a65726f2061646472657373006044820152606401610c57565b8060026000828254611f269190613433565b909155505073ffffffffffffffffffffffffffffffffffffffff8216600081815260208181526040808320805486019055518481527fddf252ad1be2c89b69c2b068fc378daa952ba7f163c4a11628f55a4df523b3ef910160405180910390a35050565b611fc86040805160a0810182526000808252602080830182905282840182905260608084018390528451808601909552845283015290608082015290565b611fd88560800151610100612250565b505082845273ffffffffffffffffffffffffffffffffffffffff821660208501527fffffffff0000000000000000000000000000000000000000000000000000000081166040850152835b949350505050565b61203882600383516122b5565b611bd782826123c4565b6040517fffffffffffffffffffffffffffffffffffffffff0000000000000000000000003060601b16602082015260348101849052600090605401604080518083037fffffffffffffffffffffffffffffffffffffffffffffffffffffffffffffffe001815282825280516020918201206000818152600a90925291812080547fffffffffffffffffffffffff00000000000000000000000000000000000000001673ffffffffffffffffffffffffffffffffffffffff8a1617905590925082917fb5e6e01e79f91267dc17b4e6314d5d4d03593d2ceee0fbb452b750bd70ea5af99190a26007546040517f4000aea000000000000000000000000000000000000000000000000000000000815273ffffffffffffffffffffffffffffffffffffffff90911690634000aea090612181908890879087906004016137c5565b6020604051808303816000875af11580156121a0573d6000803e3d6000fd5b505050506040513d601f19601f820116820180604052508101906121c4919061344b565b612023576040517f08c379a000000000000000000000000000000000000000000000000000000000815260206004820152602360248201527f756e61626c6520746f207472616e73666572416e6443616c6c20746f206f726160448201527f636c6500000000000000000000000000000000000000000000000000000000006064820152608401610c57565b6040805180820190915260608152600060208201526122706020836137fa565b15612298576122806020836137fa565b61228b906020613835565b6122959083613433565b91505b506020828101829052604080518085526000815290920101905290565b60178167ffffffffffffffff16116122da576118b38360e0600585901b1683176123eb565b60ff8167ffffffffffffffff161161231857612301836018611fe0600586901b16176123eb565b506118b38367ffffffffffffffff83166001612410565b61ffff8167ffffffffffffffff161161235757612340836019611fe0600586901b16176123eb565b506118b38367ffffffffffffffff83166002612410565b63ffffffff8167ffffffffffffffff16116123985761238183601a611fe0600586901b16176123eb565b506118b38367ffffffffffffffff83166004612410565b6123ad83601b611fe0600586901b16176123eb565b506118b38367ffffffffffffffff83166008612410565b60408051808201909152606081526000602082015261111583846000015151848551612436565b604080518082019091526060815260006020820152611115838460000151518461253e565b604080518082019091526060815260006020820152612023848560000151518585612599565b604080518082019091526060815260006020820152825182111561245957600080fd5b60208501516124688386613433565b111561249b5761249b8561248b876020015187866124869190613433565b61261a565b61249690600261384c565b612631565b6000808651805187602083010193508088870111156124ba5787860182525b505050602084015b602084106124fa57805182526124d9602083613433565b91506124e6602082613433565b90506124f3602085613835565b93506124c2565b5181517fffffffffffffffffffffffffffffffffffffffffffffffffffffffffffffffff60208690036101000a019081169019919091161790525083949350505050565b60408051808201909152606081526000602082015283602001518310612573576125738485602001516002612496919061384c565b835180516020858301018481535080850361258f576001810182525b5093949350505050565b60408051808201909152606081526000602082015260208501516125bd8584613433565b11156125d1576125d18561248b8685613433565b600060016125e1846101006139a9565b6125eb9190613835565b905085518386820101858319825116178152508051848701111561260f5783860181525b509495945050505050565b60008183111561262b5750816104d6565b50919050565b815161263d8383612250565b506118b383826123c4565b82805461265490612def565b90600052602060002090601f01602090048101928261267657600085556126bc565b82601f1061268f57805160ff19168380011785556126bc565b828001600101855582156126bc579182015b828111156126bc5782518255916020019190600101906126a1565b506126c89291506126cc565b5090565b5b808211156126c857600081556001016126cd565b60005b838110156126fc5781810151838201526020016126e4565b838111156118b35750506000910152565b600081518084526127258160208601602086016126e1565b601f017fffffffffffffffffffffffffffffffffffffffffffffffffffffffffffffffe0169290920160200192915050565b602081526000611115602083018461270d565b73ffffffffffffffffffffffffffffffffffffffff811681146113ed57600080fd5b80356127978161276a565b919050565b600080604083850312156127af57600080fd5b82356127ba8161276a565b946020939093013593505050565b600061018082518185526127de8286018261270d565b91505060208301516127fc602086018267ffffffffffffffff169052565b506040830151612818604086018267ffffffffffffffff169052565b5060608301516060850152608083015161283e608086018267ffffffffffffffff169052565b5060a083015161285260a086018215159052565b5060c083015161286660c086018215159052565b5060e083015184820360e086015261287e828261270d565b9150506101008084015185830382870152612899838261270d565b9250505061012080840151858303828701526128b5838261270d565b9250505061014080840151858303828701526128d1838261270d565b925050506101608084015185830382870152611cc9838261270d565b604081526000835161014080604085015261290c61018085018361270d565b915060208601517fffffffffffffffffffffffffffffffffffffffffffffffffffffffffffffffc080868503016060870152612948848361270d565b93506040880151915080868503016080870152612965848361270d565b935060608801519150808685030160a0870152612982848361270d565b935060808801519150808685030160c087015261299f848361270d565b935060a08801519150808685030160e08701526129bc848361270d565b935060c088015191506101008187860301818801526129db858461270d565b945060e089015192506101208288870301818901526129fa868561270d565b9550818a01519350828887030185890152612a15868561270d565b9550808a0151945050505050612a4461016085018273ffffffffffffffffffffffffffffffffffffffff169052565b508281036020840152611bb081856127c8565b600080600060608486031215612a6c57600080fd5b8335612a778161276a565b92506020840135612a878161276a565b929592945050506040919091013590565b600060208284031215612aaa57600080fd5b5035919050565b60008083601f840112612ac357600080fd5b50813567ffffffffffffffff811115612adb57600080fd5b602083019150836020828501011115612af357600080fd5b9250929050565b60008060008060008060008060a0898b031215612b1657600080fd5b883567ffffffffffffffff80821115612b2e57600080fd5b612b3a8c838d01612ab1565b909a50985060208b01359150612b4f8261276a565b90965060408a01359080821115612b6557600080fd5b612b718c838d01612ab1565b909750955060608b0135915080821115612b8a57600080fd5b50612b978b828c01612ab1565b999c989b50969995989497949560800135949350505050565b7f4e487b7100000000000000000000000000000000000000000000000000000000600052604160045260246000fd5b604051610180810167ffffffffffffffff81118282101715612c0357612c03612bb0565b60405290565b604051610140810167ffffffffffffffff81118282101715612c0357612c03612bb0565b604051601f82017fffffffffffffffffffffffffffffffffffffffffffffffffffffffffffffffe016810167ffffffffffffffff81118282101715612c7457612c74612bb0565b604052919050565b600067ffffffffffffffff821115612c9657612c96612bb0565b50601f017fffffffffffffffffffffffffffffffffffffffffffffffffffffffffffffffe01660200190565b60008060408385031215612cd557600080fd5b82359150602083013567ffffffffffffffff811115612cf357600080fd5b8301601f81018513612d0457600080fd5b8035612d17612d1282612c7c565b612c2d565b818152866020838501011115612d2c57600080fd5b816020840160208301376000602083830101528093505050509250929050565b60008060408385031215612d5f57600080fd5b8235612d6a8161276a565b9150602083013567ffffffffffffffff811115612d8657600080fd5b83016101408186031215612d9957600080fd5b809150509250929050565b600060208284031215612db657600080fd5b81356111158161276a565b60008060408385031215612dd457600080fd5b8235612ddf8161276a565b91506020830135612d998161276a565b600181811c90821680612e0357607f821691505b60208210810361262b577f4e487b7100000000000000000000000000000000000000000000000000000000600052602260045260246000fd5b600082601f830112612e4d57600080fd5b8151612e5b612d1282612c7c565b818152846020838601011115612e7057600080fd5b6120238260208301602087016126e1565b80516127978161276a565b805167ffffffffffffffff8116811461279757600080fd5b8051801515811461279757600080fd5b60006101808284031215612ec757600080fd5b612ecf612bdf565b9050815167ffffffffffffffff80821115612ee957600080fd5b612ef585838601612e3c565b8352612f0360208501612e8c565b6020840152612f1460408501612e8c565b604084015260608401516060840152612f2f60808501612e8c565b6080840152612f4060a08501612ea4565b60a0840152612f5160c08501612ea4565b60c084015260e0840151915080821115612f6a57600080fd5b612f7685838601612e3c565b60e084015261010091508184015181811115612f9157600080fd5b612f9d86828701612e3c565b838501525061012091508184015181811115612fb857600080fd5b612fc486828701612e3c565b838501525061014091508184015181811115612fdf57600080fd5b612feb86828701612e3c565b83850152506101609150818401518181111561300657600080fd5b61301286828701612e3c565b8385015250505092915050565b6000806040838503121561303257600080fd5b825167ffffffffffffffff8082111561304a57600080fd5b90840190610140828703121561305f57600080fd5b613067612c09565b82518281111561307657600080fd5b61308288828601612e3c565b82525060208301518281111561309757600080fd5b6130a388828601612e3c565b6020830152506040830151828111156130bb57600080fd5b6130c788828601612e3c565b6040830152506060830151828111156130df57600080fd5b6130eb88828601612e3c565b60608301525060808301518281111561310357600080fd5b61310f88828601612e3c565b60808301525060a08301518281111561312757600080fd5b61313388828601612e3c565b60a08301525060c08301518281111561314b57600080fd5b61315788828601612e3c565b60c08301525060e08301518281111561316f57600080fd5b61317b88828601612e3c565b60e083015250610100808401518381111561319557600080fd5b6131a189828701612e3c565b8284015250506101206131b5818501612e81565b9082015260208601519094509150808211156131d057600080fd5b506131dd85828601612eb4565b9150509250929050565b6000602082840312156131f957600080fd5b5051919050565b60006020828403121561321257600080fd5b815167ffffffffffffffff8082111561322a57600080fd5b908301906040828603121561323e57600080fd5b60405160408101818110838211171561325957613259612bb0565b60405282518281111561326b57600080fd5b61327787828601612e3c565b82525060208301518281111561328c57600080fd5b61329887828601612e3c565b60208301525095945050505050565b600080604083850312156132ba57600080fd5b825167ffffffffffffffff808211156132d257600080fd5b6132de86838701612e3c565b935060208501519150808211156132f457600080fd5b506131dd85828601612e3c565b600083516133138184602088016126e1565b8351908301906133278183602088016126e1565b01949350505050565b60006020828403121561334257600080fd5b81516111158161276a565b8183528181602085013750600060208284010152600060207fffffffffffffffffffffffffffffffffffffffffffffffffffffffffffffffe0601f840116840101905092915050565b60a0815260006133aa60a083018a8c61334d565b73ffffffffffffffffffffffffffffffffffffffff8916602084015282810360408401526133d981888a61334d565b905082810360608401526133ee81868861334d565b9150508260808301529998505050505050505050565b7f4e487b7100000000000000000000000000000000000000000000000000000000600052601160045260246000fd5b6000821982111561344657613446613404565b500190565b60006020828403121561345d57600080fd5b61111582612ea4565b60006020828403121561347857600080fd5b815167ffffffffffffffff81111561348f57600080fd5b61202384828501612e3c565b60008083357fffffffffffffffffffffffffffffffffffffffffffffffffffffffffffffffe18436030181126134d057600080fd5b830160208101925035905067ffffffffffffffff8111156134f057600080fd5b8060051b3603821315612af357600080fd5b81835260007f07ffffffffffffffffffffffffffffffffffffffffffffffffffffffffffffff83111561353457600080fd5b8260051b8083602087013760009401602001938452509192915050565b60008083357fffffffffffffffffffffffffffffffffffffffffffffffffffffffffffffffe184360301811261358657600080fd5b830160208101925035905067ffffffffffffffff8111156135a657600080fd5b803603821315612af357600080fd5b73ffffffffffffffffffffffffffffffffffffffff831681526040602082015260006135e1838461349b565b6101408060408601526135f961018086018385613502565b9250602086013560608601526136126040870187613551565b92507fffffffffffffffffffffffffffffffffffffffffffffffffffffffffffffffc08087860301608088015261364a85858461334d565b94506136586060890161278c565b73ffffffffffffffffffffffffffffffffffffffff811660a089015293506136836080890189613551565b94509150808786030160c088015261369c85858461334d565b94506136ab60a0890189613551565b94509150808786030160e08801526136c485858461334d565b94506136d360c0890189613551565b945091506101008188870301818901526136ee86868561334d565b95506136fd60e08a018a613551565b955092506101208289880301818a015261371887878661334d565b918a0135948901949094529290970135610160909601959095529695505050505050565b600061010073ffffffffffffffffffffffffffffffffffffffff808c1684528a60208501528960408501528089166060850152507fffffffff00000000000000000000000000000000000000000000000000000000871660808401528560a08401528460c08401528060e08401526137b68184018561270d565b9b9a5050505050505050505050565b73ffffffffffffffffffffffffffffffffffffffff84168152826020820152606060408201526000611bb0606083018461270d565b600082613830577f4e487b7100000000000000000000000000000000000000000000000000000000600052601260045260246000fd5b500690565b60008282101561384757613847613404565b500390565b6000817fffffffffffffffffffffffffffffffffffffffffffffffffffffffffffffffff048311821515161561388457613884613404565b500290565b600181815b808511156138e257817fffffffffffffffffffffffffffffffffffffffffffffffffffffffffffffffff048211156138c8576138c8613404565b808516156138d557918102915b93841c939080029061388e565b509250929050565b6000826138f9575060016104d6565b81613906575060006104d6565b816001811461391c576002811461392657613942565b60019150506104d6565b60ff84111561393757613937613404565b50506001821b6104d6565b5060208310610133831016604e8410600b8410161715613965575081810a6104d6565b61396f8383613889565b807fffffffffffffffffffffffffffffffffffffffffffffffffffffffffffffffff048211156139a1576139a1613404565b029392505050565b600061111583836138ea56fea164736f6c634300080e000aa164736f6c634300080e000a",
  "devdoc": {
    "details": "Factory contract to create WrappedTCO2 tokens and manage Chainlink oracle requests.",
    "kind": "dev",
    "methods": {
      "addRequest(string,string)": {
        "details": "Adds a new Chainlink oracle request configuration.",
        "params": {
          "path": "The JSON path for the data point in the API response.",
          "url": "The URL for the oracle request."
        }
      },
      "constructor": {
        "details": "Constructor for WrappedTCO2Factory.",
        "params": {
          "_fee": "Fee for oracle requests.",
          "_jobId": "Job ID for Chainlink oracle.",
          "_link": "LINK token address.",
          "_oracle": "Oracle address for Chainlink requests."
        }
      },
      "createWrappedTCO2(address)": {
        "details": "Creates a new WrappedTCO2 contract.",
        "params": {
          "_tco2TokenAddress": "Address of the underlying Toucan Carbon Offsets token."
        }
      },
      "getRequestDetails(uint256)": {
        "details": "Retrieves details of a specific Chainlink oracle request configuration.",
        "params": {
          "id": "The ID of the request configuration."
        },
        "returns": {
          "_0": "The request details, including URL and JSON path."
        }
      },
      "getWrappedTCO2Contracts()": {
        "details": "Retrieves the list of WrappedTCO2 contract addresses.",
        "returns": {
          "_0": "An array of WrappedTCO2 contract addresses."
        }
      },
      "owner()": {
        "details": "Returns the address of the current owner."
      },
      "renounceOwnership()": {
        "details": "Leaves the contract without owner. It will not be possible to call `onlyOwner` functions. Can only be called by the current owner. NOTE: Renouncing ownership will leave the contract without an owner, thereby disabling any functionality that is only available to the owner."
      },
      "stringToBytes32(string)": {
        "details": "Converts a string to bytes32.",
        "params": {
          "source": "The string to convert."
        },
        "returns": {
          "result": "The resulting bytes32 value."
        }
      },
      "transferOwnership(address)": {
        "details": "Transfers ownership of the contract to a new account (`newOwner`). Can only be called by the current owner."
      }
    },
    "title": "WrappedTCO2Factory",
    "version": 1
  },
  "userdoc": {
    "kind": "user",
    "methods": {},
    "version": 1
  },
  "storageLayout": {
    "storage": [
      {
        "astId": 2183,
        "contract": "contracts/WrappedTCO2Factory.sol:WrappedTCO2Factory",
        "label": "_owner",
        "offset": 0,
        "slot": "0",
        "type": "t_address"
      },
      {
        "astId": 3648,
        "contract": "contracts/WrappedTCO2Factory.sol:WrappedTCO2Factory",
        "label": "wrappedTCO2Contracts",
        "offset": 0,
        "slot": "1",
        "type": "t_array(t_address)dyn_storage"
      },
      {
        "astId": 3652,
        "contract": "contracts/WrappedTCO2Factory.sol:WrappedTCO2Factory",
        "label": "underlyingToWrapped",
        "offset": 0,
        "slot": "2",
        "type": "t_mapping(t_address,t_address)"
      },
      {
        "astId": 3654,
        "contract": "contracts/WrappedTCO2Factory.sol:WrappedTCO2Factory",
        "label": "jobId",
        "offset": 0,
        "slot": "3",
        "type": "t_bytes32"
      },
      {
        "astId": 3656,
        "contract": "contracts/WrappedTCO2Factory.sol:WrappedTCO2Factory",
        "label": "fee",
        "offset": 0,
        "slot": "4",
        "type": "t_uint256"
      },
      {
        "astId": 3658,
        "contract": "contracts/WrappedTCO2Factory.sol:WrappedTCO2Factory",
        "label": "oracle",
        "offset": 0,
        "slot": "5",
        "type": "t_address"
      },
      {
        "astId": 3660,
        "contract": "contracts/WrappedTCO2Factory.sol:WrappedTCO2Factory",
        "label": "link",
        "offset": 0,
        "slot": "6",
        "type": "t_address"
      },
      {
        "astId": 3664,
        "contract": "contracts/WrappedTCO2Factory.sol:WrappedTCO2Factory",
        "label": "requests",
        "offset": 0,
        "slot": "7",
        "type": "t_array(t_struct(RequestDetails)3007_storage)dyn_storage"
      }
    ],
    "types": {
      "t_address": {
        "encoding": "inplace",
        "label": "address",
        "numberOfBytes": "20"
      },
      "t_array(t_address)dyn_storage": {
        "base": "t_address",
        "encoding": "dynamic_array",
        "label": "address[]",
        "numberOfBytes": "32"
      },
      "t_array(t_struct(RequestDetails)3007_storage)dyn_storage": {
        "base": "t_struct(RequestDetails)3007_storage",
        "encoding": "dynamic_array",
        "label": "struct IOracleUrlSource.RequestDetails[]",
        "numberOfBytes": "32"
      },
      "t_bytes32": {
        "encoding": "inplace",
        "label": "bytes32",
        "numberOfBytes": "32"
      },
      "t_mapping(t_address,t_address)": {
        "encoding": "mapping",
        "key": "t_address",
        "label": "mapping(address => address)",
        "numberOfBytes": "32",
        "value": "t_address"
      },
      "t_string_storage": {
        "encoding": "bytes",
        "label": "string",
        "numberOfBytes": "32"
      },
      "t_struct(RequestDetails)3007_storage": {
        "encoding": "inplace",
        "label": "struct IOracleUrlSource.RequestDetails",
        "members": [
          {
            "astId": 3004,
            "contract": "contracts/WrappedTCO2Factory.sol:WrappedTCO2Factory",
            "label": "url",
            "offset": 0,
            "slot": "0",
            "type": "t_string_storage"
          },
          {
            "astId": 3006,
            "contract": "contracts/WrappedTCO2Factory.sol:WrappedTCO2Factory",
            "label": "path",
            "offset": 0,
            "slot": "1",
            "type": "t_string_storage"
          }
        ],
        "numberOfBytes": "64"
      },
      "t_uint256": {
        "encoding": "inplace",
        "label": "uint256",
        "numberOfBytes": "32"
      }
    }
  }
}