{
  "address": "0x4e911C36E9CD0D4D45b60cf610E84b522e9E61cb",
  "abi": [
    {
      "inputs": [
        {
          "internalType": "address",
          "name": "_oracle",
          "type": "address"
        },
        {
          "internalType": "string",
          "name": "_jobId",
          "type": "string"
        },
        {
          "internalType": "uint256",
          "name": "_fee",
          "type": "uint256"
        },
        {
          "internalType": "address",
          "name": "_link",
          "type": "address"
        }
      ],
      "stateMutability": "nonpayable",
      "type": "constructor"
    },
    {
      "anonymous": false,
      "inputs": [
        {
          "indexed": true,
          "internalType": "address",
          "name": "previousOwner",
          "type": "address"
        },
        {
          "indexed": true,
          "internalType": "address",
          "name": "newOwner",
          "type": "address"
        }
      ],
      "name": "OwnershipTransferred",
      "type": "event"
    },
    {
      "anonymous": false,
      "inputs": [
        {
          "indexed": true,
          "internalType": "uint256",
          "name": "id",
          "type": "uint256"
        }
      ],
      "name": "RequestAdded",
      "type": "event"
    },
    {
      "anonymous": false,
      "inputs": [
        {
          "indexed": true,
          "internalType": "address",
          "name": "wrappedTCO2Address",
          "type": "address"
        }
      ],
      "name": "WrappedTCO2Created",
      "type": "event"
    },
    {
      "inputs": [
        {
          "internalType": "string",
          "name": "url",
          "type": "string"
        },
        {
          "internalType": "string",
          "name": "path",
          "type": "string"
        }
      ],
      "name": "addRequest",
      "outputs": [],
      "stateMutability": "nonpayable",
      "type": "function"
    },
    {
      "inputs": [
        {
          "internalType": "address",
          "name": "_tco2TokenAddress",
          "type": "address"
        }
      ],
      "name": "createWrappedTCO2",
      "outputs": [],
      "stateMutability": "nonpayable",
      "type": "function"
    },
    {
      "inputs": [],
      "name": "fee",
      "outputs": [
        {
          "internalType": "uint256",
          "name": "",
          "type": "uint256"
        }
      ],
      "stateMutability": "view",
      "type": "function"
    },
    {
      "inputs": [
        {
          "internalType": "uint256",
          "name": "id",
          "type": "uint256"
        }
      ],
      "name": "getRequestDetails",
      "outputs": [
        {
          "components": [
            {
              "internalType": "string",
              "name": "url",
              "type": "string"
            },
            {
              "internalType": "string",
              "name": "path",
              "type": "string"
            }
          ],
          "internalType": "struct IOracleUrlSource.RequestDetails",
          "name": "",
          "type": "tuple"
        }
      ],
      "stateMutability": "view",
      "type": "function"
    },
    {
      "inputs": [],
      "name": "getWrappedTCO2Contracts",
      "outputs": [
        {
          "internalType": "address[]",
          "name": "",
          "type": "address[]"
        }
      ],
      "stateMutability": "view",
      "type": "function"
    },
    {
      "inputs": [],
      "name": "jobId",
      "outputs": [
        {
          "internalType": "bytes32",
          "name": "",
          "type": "bytes32"
        }
      ],
      "stateMutability": "view",
      "type": "function"
    },
    {
      "inputs": [],
      "name": "link",
      "outputs": [
        {
          "internalType": "address",
          "name": "",
          "type": "address"
        }
      ],
      "stateMutability": "view",
      "type": "function"
    },
    {
      "inputs": [],
      "name": "oracle",
      "outputs": [
        {
          "internalType": "address",
          "name": "",
          "type": "address"
        }
      ],
      "stateMutability": "view",
      "type": "function"
    },
    {
      "inputs": [],
      "name": "owner",
      "outputs": [
        {
          "internalType": "address",
          "name": "",
          "type": "address"
        }
      ],
      "stateMutability": "view",
      "type": "function"
    },
    {
      "inputs": [],
      "name": "renounceOwnership",
      "outputs": [],
      "stateMutability": "nonpayable",
      "type": "function"
    },
    {
      "inputs": [
        {
          "internalType": "uint256",
          "name": "",
          "type": "uint256"
        }
      ],
      "name": "requests",
      "outputs": [
        {
          "internalType": "string",
          "name": "url",
          "type": "string"
        },
        {
          "internalType": "string",
          "name": "path",
          "type": "string"
        }
      ],
      "stateMutability": "view",
      "type": "function"
    },
    {
      "inputs": [
        {
          "internalType": "string",
          "name": "source",
          "type": "string"
        }
      ],
      "name": "stringToBytes32",
      "outputs": [
        {
          "internalType": "bytes32",
          "name": "result",
          "type": "bytes32"
        }
      ],
      "stateMutability": "pure",
      "type": "function"
    },
    {
      "inputs": [
        {
          "internalType": "address",
          "name": "newOwner",
          "type": "address"
        }
      ],
      "name": "transferOwnership",
      "outputs": [],
      "stateMutability": "nonpayable",
      "type": "function"
    },
    {
      "inputs": [
        {
          "internalType": "address",
          "name": "",
          "type": "address"
        }
      ],
      "name": "underlyingToWrapped",
      "outputs": [
        {
          "internalType": "address",
          "name": "",
          "type": "address"
        }
      ],
      "stateMutability": "view",
      "type": "function"
    },
    {
      "inputs": [
        {
          "internalType": "uint256",
          "name": "",
          "type": "uint256"
        }
      ],
      "name": "wrappedTCO2Contracts",
      "outputs": [
        {
          "internalType": "address",
          "name": "",
          "type": "address"
        }
      ],
      "stateMutability": "view",
      "type": "function"
    }
  ],
  "transactionHash": "0xed7b4d58d4b08ea5e1410d266c06af92218bac4903a74c91e20089938e738516",
  "args": [
    "0x40193c8518BB267228Fc409a613bDbD8eC5a97b3",
    "7d80a6386ef543a3abb52817f6707e3b",
    "100000000000000000",
    "0x326C977E6efc84E512bB9C30f76E30c160eD06FB"
  ],
  "numDeployments": 1,
  "solcInputHash": "8fe2479639792da55cc745c48b3400fc",
  "bytecode": "0x60806040523480156200001157600080fd5b506040516200524538038062005245833981016040819052620000349162000139565b6200003f3362000096565b600580546001600160a01b0319166001600160a01b0386161790556200006583620000e6565b600355600491909155600680546001600160a01b0319166001600160a01b0390921691909117905550620002489050565b600080546001600160a01b038381166001600160a01b0319831681178455604051919092169283917f8be0079c531659141344cd1fd0a4f28419497f9722a3daafe3b4186f6b6457e09190a35050565b805160009082908203620000fd5750600092915050565b50506020015190565b80516001600160a01b03811681146200011e57600080fd5b919050565b634e487b7160e01b600052604160045260246000fd5b600080600080608085870312156200015057600080fd5b6200015b8562000106565b602086810151919550906001600160401b03808211156200017b57600080fd5b818801915088601f8301126200019057600080fd5b815181811115620001a557620001a562000123565b604051601f8201601f19908116603f01168101908382118183101715620001d057620001d062000123565b816040528281528b86848701011115620001e957600080fd5b600093505b828410156200020d5784840186015181850187015292850192620001ee565b828411156200021f5760008684830101525b809850505050505050604085015191506200023d6060860162000106565b905092959194509250565b614fed80620002586000396000f3fe60806040523480156200001157600080fd5b5060043610620001095760003560e01c8063b4ec337211620000a3578063ddca3f43116200006e578063ddca3f43146200027a578063e73ebd811462000284578063f2fde38b146200029d578063f34d4c6314620002b457600080fd5b8063b4ec337214620001fa578063b9da4af81462000233578063c2939d97146200024a578063cfb51928146200026357600080fd5b806381d12c5811620000e457806381d12c58146200018657806383d00d2914620001ad5780638da5cb5b14620001c45780639559c07f14620001e357600080fd5b80631c4695f4146200010e578063715018a614620001595780637dc0d1d01462000165575b600080fd5b6006546200012f9073ffffffffffffffffffffffffffffffffffffffff1681565b60405173ffffffffffffffffffffffffffffffffffffffff90911681526020015b60405180910390f35b62000163620002da565b005b6005546200012f9073ffffffffffffffffffffffffffffffffffffffff1681565b6200019d6200019736600462000bf6565b620002f2565b6040516200015092919062000c7e565b6200012f620001be36600462000bf6565b62000447565b60005473ffffffffffffffffffffffffffffffffffffffff166200012f565b62000163620001f436600462000cb0565b6200047f565b6200012f6200020b36600462000cb0565b60026020526000908152604090205473ffffffffffffffffffffffffffffffffffffffff1681565b620001636200024436600462000dd1565b62000649565b6200025460035481565b60405190815260200162000150565b620002546200027436600462000e3c565b62000711565b6200025460045481565b6200028e62000731565b60405162000150919062000e7d565b62000163620002ae36600462000cb0565b620007a2565b620002cb620002c536600462000bf6565b6200085f565b60405162000150919062000ed9565b620002e462000a4a565b620002f0600062000acd565b565b600781815481106200030357600080fd5b9060005260206000209060020201600091509050806000018054620003289062000f34565b80601f0160208091040260200160405190810160405280929190818152602001828054620003569062000f34565b8015620003a75780601f106200037b57610100808354040283529160200191620003a7565b820191906000526020600020905b8154815290600101906020018083116200038957829003601f168201915b505050505090806001018054620003be9062000f34565b80601f0160208091040260200160405190810160405280929190818152602001828054620003ec9062000f34565b80156200043d5780601f1062000411576101008083540402835291602001916200043d565b820191906000526020600020905b8154815290600101906020018083116200041f57829003601f168201915b5050505050905082565b600181815481106200045857600080fd5b60009182526020909120015473ffffffffffffffffffffffffffffffffffffffff16905081565b73ffffffffffffffffffffffffffffffffffffffff818116600090815260026020526040902054161562000514576040517f08c379a000000000000000000000000000000000000000000000000000000000815260206004820152601a60248201527f5772617070656454434f3220616c72656164792065786973747300000000000060448201526064015b60405180910390fd5b600654604051600091839173ffffffffffffffffffffffffffffffffffffffff909116903090620005459062000b42565b73ffffffffffffffffffffffffffffffffffffffff938416815291831660208301529091166040820152606001604051809103906000f0801580156200058f573d6000803e3d6000fd5b50600180548082019091557fb10e2d527612073b26eecdfd717e6a320cf44b4afac2b0732d9fcbe2b7fa0cf601805473ffffffffffffffffffffffffffffffffffffffff8084167fffffffffffffffffffffffff00000000000000000000000000000000000000009283168117909355851660009081526002602052604080822080549093168417909255905192935090917f68dbab7bf7ba33cc24097f8864673e416548ae0c59e0d3a20d51eb3b6a8206fb9190a25050565b6200065362000a4a565b604080518082019091528281526020808201839052600780546001810182556000919091528251805160029092027fa66cc928b5edb82af9bd49922954155ab7b0942694bea4ce44661d9a8736c6880192620006b59284929091019062000b50565b506020828101518051620006d0926001850192019062000b50565b5050600754620006e4915060019062000f89565b6040517f1241757208f08d63f291d85cafba51f9c01fc80b77f21fb69b4b7ce9908b9a0e90600090a25050565b805160009082908203620007285750600092915050565b50506020015190565b606060018054806020026020016040519081016040528092919081815260200182805480156200079857602002820191906000526020600020905b815473ffffffffffffffffffffffffffffffffffffffff1681526001909101906020018083116200076c575b5050505050905090565b620007ac62000a4a565b73ffffffffffffffffffffffffffffffffffffffff811662000851576040517f08c379a000000000000000000000000000000000000000000000000000000000815260206004820152602660248201527f4f776e61626c653a206e6577206f776e657220697320746865207a65726f206160448201527f646472657373000000000000000000000000000000000000000000000000000060648201526084016200050b565b6200085c8162000acd565b50565b60408051808201909152606080825260208201526007548210620008e0576040517f08c379a000000000000000000000000000000000000000000000000000000000815260206004820152601260248201527f496e76616c69642072657175657374206964000000000000000000000000000060448201526064016200050b565b60078281548110620008f657620008f662000fc8565b9060005260206000209060020201604051806040016040529081600082018054620009219062000f34565b80601f01602080910402602001604051908101604052809291908181526020018280546200094f9062000f34565b8015620009a05780601f106200097457610100808354040283529160200191620009a0565b820191906000526020600020905b8154815290600101906020018083116200098257829003601f168201915b50505050508152602001600182018054620009bb9062000f34565b80601f0160208091040260200160405190810160405280929190818152602001828054620009e99062000f34565b801562000a3a5780601f1062000a0e5761010080835404028352916020019162000a3a565b820191906000526020600020905b81548152906001019060200180831162000a1c57829003601f168201915b5050505050815250509050919050565b60005473ffffffffffffffffffffffffffffffffffffffff163314620002f0576040517f08c379a000000000000000000000000000000000000000000000000000000000815260206004820181905260248201527f4f776e61626c653a2063616c6c6572206973206e6f7420746865206f776e657260448201526064016200050b565b6000805473ffffffffffffffffffffffffffffffffffffffff8381167fffffffffffffffffffffffff0000000000000000000000000000000000000000831681178455604051919092169283917f8be0079c531659141344cd1fd0a4f28419497f9722a3daafe3b4186f6b6457e09190a35050565b613fe98062000ff883390190565b82805462000b5e9062000f34565b90600052602060002090601f01602090048101928262000b82576000855562000bcd565b82601f1062000b9d57805160ff191683800117855562000bcd565b8280016001018555821562000bcd579182015b8281111562000bcd57825182559160200191906001019062000bb0565b5062000bdb92915062000bdf565b5090565b5b8082111562000bdb576000815560010162000be0565b60006020828403121562000c0957600080fd5b5035919050565b6000815180845260005b8181101562000c385760208185018101518683018201520162000c1a565b8181111562000c4b576000602083870101525b50601f017fffffffffffffffffffffffffffffffffffffffffffffffffffffffffffffffe0169290920160200192915050565b60408152600062000c93604083018562000c10565b828103602084015262000ca7818562000c10565b95945050505050565b60006020828403121562000cc357600080fd5b813573ffffffffffffffffffffffffffffffffffffffff8116811462000ce857600080fd5b9392505050565b7f4e487b7100000000000000000000000000000000000000000000000000000000600052604160045260246000fd5b600082601f83011262000d3057600080fd5b813567ffffffffffffffff8082111562000d4e5762000d4e62000cef565b604051601f83017fffffffffffffffffffffffffffffffffffffffffffffffffffffffffffffffe0908116603f0116810190828211818310171562000d975762000d9762000cef565b8160405283815286602085880101111562000db157600080fd5b836020870160208301376000602085830101528094505050505092915050565b6000806040838503121562000de557600080fd5b823567ffffffffffffffff8082111562000dfe57600080fd5b62000e0c8683870162000d1e565b9350602085013591508082111562000e2357600080fd5b5062000e328582860162000d1e565b9150509250929050565b60006020828403121562000e4f57600080fd5b813567ffffffffffffffff81111562000e6757600080fd5b62000e758482850162000d1e565b949350505050565b6020808252825182820181905260009190848201906040850190845b8181101562000ecd57835173ffffffffffffffffffffffffffffffffffffffff168352928401929184019160010162000e99565b50909695505050505050565b60208152600082516040602084015262000ef7606084018262000c10565b905060208401517fffffffffffffffffffffffffffffffffffffffffffffffffffffffffffffffe084830301604085015262000ca7828262000c10565b600181811c9082168062000f4957607f821691505b60208210810362000f83577f4e487b7100000000000000000000000000000000000000000000000000000000600052602260045260246000fd5b50919050565b60008282101562000fc3577f4e487b7100000000000000000000000000000000000000000000000000000000600052601160045260246000fd5b500390565b7f4e487b7100000000000000000000000000000000000000000000000000000000600052603260045260246000fdfe608060405260016009553480156200001657600080fd5b5060405162003fe938038062003fe98339810160408190526200003991620003a3565b6200004483620000fa565b6200004f846200019f565b815162000064906003906020850190620002e0565b5080516200007a906004906020840190620002e0565b5050600c80546001600160a01b0319166001600160a01b038681169190911790915583169050620000b557620000af6200023f565b620000d1565b600780546001600160a01b0319166001600160a01b0384161790555b600b80546001600160a01b0319166001600160a01b039290921691909117905550620006149050565b60606000829050600080826001600160a01b03166364c5a4036040518163ffffffff1660e01b8152600401600060405180830381865afa15801562000143573d6000803e3d6000fd5b505050506040513d6000823e601f3d908101601f191682016040526200016d9190810190620004c7565b9150915081816040516020016200018692919062000531565b6040516020818303038152906040529350505050919050565b606060008290506000816001600160a01b03166364c5a4036040518163ffffffff1660e01b8152600401600060405180830381865afa158015620001e7573d6000803e3d6000fd5b505050506040513d6000823e601f3d908101601f19168201604052620002119190810190620004c7565b5090508060405160200162000227919062000583565b60405160208183030381529060405292505050919050565b620002de73c89bd4e1632d3a43cb03aaad5262cbe4038bc5716001600160a01b03166338cc48316040518163ffffffff1660e01b8152600401602060405180830381865afa15801562000296573d6000803e3d6000fd5b505050506040513d601f19601f82011682018060405250810190620002bc9190620005b3565b600780546001600160a01b0319166001600160a01b0392909216919091179055565b565b828054620002ee90620005d8565b90600052602060002090601f0160209004810192826200031257600085556200035d565b82601f106200032d57805160ff19168380011785556200035d565b828001600101855582156200035d579182015b828111156200035d57825182559160200191906001019062000340565b506200036b9291506200036f565b5090565b5b808211156200036b576000815560010162000370565b80516001600160a01b03811681146200039e57600080fd5b919050565b600080600060608486031215620003b957600080fd5b620003c48462000386565b9250620003d46020850162000386565b9150620003e46040850162000386565b90509250925092565b634e487b7160e01b600052604160045260246000fd5b60005b838110156200042057818101518382015260200162000406565b8381111562000430576000848401525b50505050565b600082601f8301126200044857600080fd5b81516001600160401b0380821115620004655762000465620003ed565b604051601f8301601f19908116603f01168101908282118183101715620004905762000490620003ed565b81604052838152866020858801011115620004aa57600080fd5b620004bd84602083016020890162000403565b9695505050505050565b60008060408385031215620004db57600080fd5b82516001600160401b0380821115620004f357600080fd5b620005018683870162000436565b935060208501519150808211156200051857600080fd5b50620005278582860162000436565b9150509250929050565b657754434f322d60d01b8152600083516200055481600685016020880162000403565b602d60f81b60069184019182015283516200057781600784016020880162000403565b01600701949350505050565b657754434f322d60d01b815260008251620005a681600685016020870162000403565b9190910160060192915050565b600060208284031215620005c657600080fd5b620005d18262000386565b9392505050565b600181811c90821680620005ed57607f821691505b6020821081036200060e57634e487b7160e01b600052602260045260246000fd5b50919050565b6139c580620006246000396000f3fe608060405234801561001057600080fd5b50600436106101ae5760003560e01c80636746e7be116100ee578063a457c2d711610097578063de0e9a3e11610071578063de0e9a3e146103ef578063e819426c14610402578063ea598cb01461040a578063f2e148381461041d57600080fd5b8063a457c2d714610383578063a9059cbb14610396578063dd62ed3e146103a957600080fd5b806379cc6790116100c857806379cc67901461034857806391da1ed21461035b57806395d89b411461037b57600080fd5b80636746e7be146102ec5780636b24ffd6146102ff57806370a082311461031257600080fd5b80632ef292901161015b578063395093511161013557806339509351146102795780633a8f0f3d1461028c5780633c31175e1461029f57806345a54ca6146102a757600080fd5b80632ef2929014610242578063313ce56714610257578063374419961461026657600080fd5b806318160ddd1161018c57806318160ddd1461020a57806323b872dd1461021c5780632adb9e3c1461022f57600080fd5b806306fdde03146101b3578063095ea7b3146101d1578063152583de146101f4575b600080fd5b6101bb610430565b6040516101c8919061275a565b60405180910390f35b6101e46101df36600461279f565b6104c2565b60405190151581526020016101c8565b6101fc6104dc565b6040516101c89291906128f0565b6002545b6040519081526020016101c8565b6101e461022a366004612a5a565b610689565b61020e61023d366004612a9b565b6106ad565b610255610250366004612afd565b610aff565b005b604051601281526020016101c8565b610255610274366004612cc5565b610ba9565b6101e461028736600461279f565b610cfc565b61020e61029a366004612a9b565b610d48565b6101bb610f23565b600c546102c79073ffffffffffffffffffffffffffffffffffffffff1681565b60405173ffffffffffffffffffffffffffffffffffffffff90911681526020016101c8565b6102556102fa366004612d4f565b610fde565b61020e61030d36600461279f565b61107a565b61020e610320366004612da7565b73ffffffffffffffffffffffffffffffffffffffff1660009081526020819052604090205490565b61025561035636600461279f565b61111f565b600b546102c79073ffffffffffffffffffffffffffffffffffffffff1681565b6101bb61117e565b6101e461039136600461279f565b61118d565b6101e46103a436600461279f565b61125e565b61020e6103b7366004612dc4565b73ffffffffffffffffffffffffffffffffffffffff918216600090815260016020908152604080832093909416825291909152205490565b6102556103fd366004612a9b565b61126c565b61020e6113f3565b610255610418366004612a9b565b611487565b6101bb61042b366004612a9b565b611598565b60606003805461043f90612df2565b80601f016020809104026020016040519081016040528092919081815260200182805461046b90612df2565b80156104b85780601f1061048d576101008083540402835291602001916104b8565b820191906000526020600020905b81548152906001019060200180831161049b57829003601f168201915b5050505050905090565b6000336104d0818585611632565b60019150505b92915050565b610548604051806101400160405280606081526020016060815260200160608152602001606081526020016060815260200160608152602001606081526020016060815260200160608152602001600073ffffffffffffffffffffffffffffffffffffffff1681525090565b6105ce60405180610180016040528060608152602001600067ffffffffffffffff168152602001600067ffffffffffffffff16815260200160008152602001600067ffffffffffffffff16815260200160001515815260200160001515815260200160608152602001606081526020016060815260200160608152602001606081525090565b600c60009054906101000a900473ffffffffffffffffffffffffffffffffffffffff1673ffffffffffffffffffffffffffffffffffffffff1663152583de6040518163ffffffff1660e01b8152600401600060405180830381865afa15801561063b573d6000803e3d6000fd5b505050506040513d6000823e601f3d9081017fffffffffffffffffffffffffffffffffffffffffffffffffffffffffffffffe01682016040526106819190810190613022565b915091509091565b6000336106978582856117e5565b6106a28585856118bc565b506001949350505050565b60008061076b600b60009054906101000a900473ffffffffffffffffffffffffffffffffffffffff1673ffffffffffffffffffffffffffffffffffffffff1663c2939d976040518163ffffffff1660e01b8152600401602060405180830381865afa158015610720573d6000803e3d6000fd5b505050506040513d601f19601f8201168201806040525081019061074491906131ea565b307f3744199600000000000000000000000000000000000000000000000000000000611b2b565b600b546040517ff34d4c630000000000000000000000000000000000000000000000000000000081526004810186905291925060009173ffffffffffffffffffffffffffffffffffffffff9091169063f34d4c6390602401600060405180830381865afa1580156107e0573d6000803e3d6000fd5b505050506040513d6000823e601f3d9081017fffffffffffffffffffffffffffffffffffffffffffffffffffffffffffffffe01682016040526108269190810190613203565b9050600080600c60009054906101000a900473ffffffffffffffffffffffffffffffffffffffff1673ffffffffffffffffffffffffffffffffffffffff166364c5a4036040518163ffffffff1660e01b8152600401600060405180830381865afa158015610898573d6000803e3d6000fd5b505050506040513d6000823e601f3d9081017fffffffffffffffffffffffffffffffffffffffffffffffffffffffffffffffe01682016040526108de91908101906132aa565b915091506109686040518060400160405280600381526020017f6765740000000000000000000000000000000000000000000000000000000000815250846000015184604051602001610932929190613304565b604080517fffffffffffffffffffffffffffffffffffffffffffffffffffffffffffffffe0818403018152919052869190611bbc565b6109b66040518060400160405280600481526020017f7061746800000000000000000000000000000000000000000000000000000000815250846020015186611bbc9092919063ffffffff16565b600b54604080517f7dc0d1d00000000000000000000000000000000000000000000000000000000081529051610ae39273ffffffffffffffffffffffffffffffffffffffff1691637dc0d1d09160048083019260209291908290030181865afa158015610a27573d6000803e3d6000fd5b505050506040513d601f19601f82011682018060405250810190610a4b9190613333565b600b54604080517fddca3f430000000000000000000000000000000000000000000000000000000081529051889273ffffffffffffffffffffffffffffffffffffffff169163ddca3f439160048083019260209291908290030181865afa158015610aba573d6000803e3d6000fd5b505050506040513d601f19601f82011682018060405250810190610ade91906131ea565b611bdf565b6000818152600d60205260409020969096555093949350505050565b610b093382611cd6565b600c546040517f2ef2929000000000000000000000000000000000000000000000000000000000815273ffffffffffffffffffffffffffffffffffffffff90911690632ef2929090610b6d908b908b908b908b908b908b908b908b90600401613399565b600060405180830381600087803b158015610b8757600080fd5b505af1158015610b9b573d6000803e3d6000fd5b505050505050505050505050565b6000828152600a6020526040902054829073ffffffffffffffffffffffffffffffffffffffff163314610c63576040517f08c379a000000000000000000000000000000000000000000000000000000000815260206004820152602860248201527f536f75726365206d75737420626520746865206f7261636c65206f662074686560448201527f207265717565737400000000000000000000000000000000000000000000000060648201526084015b60405180910390fd5b6000818152600a602052604080822080547fffffffffffffffffffffffff00000000000000000000000000000000000000001690555182917f7cc135e0cebb02c3480ae5d74d377283180a2601f8f644edf7987b009316c63a91a26000838152600d6020908152604080832054808452600e835292208451610ce79286019061264b565b505050600091825250600d6020526040812055565b33600081815260016020908152604080832073ffffffffffffffffffffffffffffffffffffffff871684529091528120549091906104d09082908690610d43908790613436565b611632565b6000610d6960075473ffffffffffffffffffffffffffffffffffffffff1690565b73ffffffffffffffffffffffffffffffffffffffff166323b872dd3330600b60009054906101000a900473ffffffffffffffffffffffffffffffffffffffff1673ffffffffffffffffffffffffffffffffffffffff1663ddca3f436040518163ffffffff1660e01b8152600401602060405180830381865afa158015610df3573d6000803e3d6000fd5b505050506040513d601f19601f82011682018060405250810190610e1791906131ea565b6040517fffffffff0000000000000000000000000000000000000000000000000000000060e086901b16815273ffffffffffffffffffffffffffffffffffffffff938416600482015292909116602483015260448201526064016020604051808303816000875af1158015610e90573d6000803e3d6000fd5b505050506040513d601f19601f82011682018060405250810190610eb4919061344e565b610f1a576040517f08c379a000000000000000000000000000000000000000000000000000000000815260206004820152601760248201527f556e61626c6520746f207472616e73666572204c494e4b0000000000000000006044820152606401610c5a565b6104d6826106ad565b600c54604080517f3c31175e000000000000000000000000000000000000000000000000000000008152905160609273ffffffffffffffffffffffffffffffffffffffff1691633c31175e9160048083019260009291908290030181865afa158015610f93573d6000803e3d6000fd5b505050506040513d6000823e601f3d9081017fffffffffffffffffffffffffffffffffffffffffffffffffffffffffffffffe0168201604052610fd99190810190613469565b905090565b610fec338260200135611cd6565b600c546040517f6746e7be00000000000000000000000000000000000000000000000000000000815273ffffffffffffffffffffffffffffffffffffffff90911690636746e7be9061104490859085906004016135b8565b600060405180830381600087803b15801561105e57600080fd5b505af1158015611072573d6000803e3d6000fd5b505050505050565b600c546040517f6b24ffd600000000000000000000000000000000000000000000000000000000815273ffffffffffffffffffffffffffffffffffffffff8481166004830152602482018490526000921690636b24ffd6906044016020604051808303816000875af11580156110f4573d6000803e3d6000fd5b505050506040513d601f19601f8201168201806040525081019061111891906131ea565b9392505050565b600c546040517f79cc679000000000000000000000000000000000000000000000000000000000815273ffffffffffffffffffffffffffffffffffffffff848116600483015260248201849052909116906379cc679090604401611044565b60606004805461043f90612df2565b33600081815260016020908152604080832073ffffffffffffffffffffffffffffffffffffffff8716845290915281205490919083811015611251576040517f08c379a000000000000000000000000000000000000000000000000000000000815260206004820152602560248201527f45524332303a2064656372656173656420616c6c6f77616e63652062656c6f7760448201527f207a65726f0000000000000000000000000000000000000000000000000000006064820152608401610c5a565b6106a28286868403611632565b6000336104d08185856118bc565b336000908152602081905260409020548111156112e5576040517f08c379a000000000000000000000000000000000000000000000000000000000815260206004820152601460248201527f496e73756666696369656e742062616c616e63650000000000000000000000006044820152606401610c5a565b6112ef3382611cd6565b600c546040517fa9059cbb0000000000000000000000000000000000000000000000000000000081523360048201526024810183905273ffffffffffffffffffffffffffffffffffffffff9091169063a9059cbb906044016020604051808303816000875af1158015611366573d6000803e3d6000fd5b505050506040513d601f19601f8201168201806040525081019061138a919061344e565b6113f0576040517f08c379a000000000000000000000000000000000000000000000000000000000815260206004820152600f60248201527f5472616e73666572206661696c656400000000000000000000000000000000006044820152606401610c5a565b50565b600c54604080517fe819426c000000000000000000000000000000000000000000000000000000008152905160009273ffffffffffffffffffffffffffffffffffffffff169163e819426c9160048083019260209291908290030181865afa158015611463573d6000803e3d6000fd5b505050506040513d601f19601f82011682018060405250810190610fd991906131ea565b600c546040517f23b872dd0000000000000000000000000000000000000000000000000000000081523360048201523060248201526044810183905273ffffffffffffffffffffffffffffffffffffffff909116906323b872dd906064016020604051808303816000875af1158015611504573d6000803e3d6000fd5b505050506040513d601f19601f82011682018060405250810190611528919061344e565b61158e576040517f08c379a000000000000000000000000000000000000000000000000000000000815260206004820152600f60248201527f5472616e73666572206661696c656400000000000000000000000000000000006044820152606401610c5a565b6113f03382611e9a565b600e60205260009081526040902080546115b190612df2565b80601f01602080910402602001604051908101604052809291908181526020018280546115dd90612df2565b801561162a5780601f106115ff5761010080835404028352916020019161162a565b820191906000526020600020905b81548152906001019060200180831161160d57829003601f168201915b505050505081565b73ffffffffffffffffffffffffffffffffffffffff83166116d4576040517f08c379a0000000000000000000000000000000000000000000000000000000008152602060048201526024808201527f45524332303a20617070726f76652066726f6d20746865207a65726f2061646460448201527f72657373000000000000000000000000000000000000000000000000000000006064820152608401610c5a565b73ffffffffffffffffffffffffffffffffffffffff8216611777576040517f08c379a000000000000000000000000000000000000000000000000000000000815260206004820152602260248201527f45524332303a20617070726f766520746f20746865207a65726f20616464726560448201527f73730000000000000000000000000000000000000000000000000000000000006064820152608401610c5a565b73ffffffffffffffffffffffffffffffffffffffff83811660008181526001602090815260408083209487168084529482529182902085905590518481527f8c5be1e5ebec7d5bd14f71427d1e84f3dd0314c0f7b2291e5b200ac8c7c3b925910160405180910390a3505050565b73ffffffffffffffffffffffffffffffffffffffff8381166000908152600160209081526040808320938616835292905220547fffffffffffffffffffffffffffffffffffffffffffffffffffffffffffffffff81146118b657818110156118a9576040517f08c379a000000000000000000000000000000000000000000000000000000000815260206004820152601d60248201527f45524332303a20696e73756666696369656e7420616c6c6f77616e63650000006044820152606401610c5a565b6118b68484848403611632565b50505050565b73ffffffffffffffffffffffffffffffffffffffff831661195f576040517f08c379a000000000000000000000000000000000000000000000000000000000815260206004820152602560248201527f45524332303a207472616e736665722066726f6d20746865207a65726f20616460448201527f64726573730000000000000000000000000000000000000000000000000000006064820152608401610c5a565b73ffffffffffffffffffffffffffffffffffffffff8216611a02576040517f08c379a000000000000000000000000000000000000000000000000000000000815260206004820152602360248201527f45524332303a207472616e7366657220746f20746865207a65726f206164647260448201527f65737300000000000000000000000000000000000000000000000000000000006064820152608401610c5a565b73ffffffffffffffffffffffffffffffffffffffff831660009081526020819052604090205481811015611ab8576040517f08c379a000000000000000000000000000000000000000000000000000000000815260206004820152602660248201527f45524332303a207472616e7366657220616d6f756e742065786365656473206260448201527f616c616e636500000000000000000000000000000000000000000000000000006064820152608401610c5a565b73ffffffffffffffffffffffffffffffffffffffff848116600081815260208181526040808320878703905593871680835291849020805487019055925185815290927fddf252ad1be2c89b69c2b068fc378daa952ba7f163c4a11628f55a4df523b3ef910160405180910390a36118b6565b611b696040805160a0810182526000808252602080830182905282840182905260608084018390528451808601909552845283015290608082015290565b611ba76040805160a0810182526000808252602080830182905282840182905260608084018390528451808601909552845283015290608082015290565b611bb381868686611f8d565b95945050505050565b6080830151611bcb908361202e565b6080830151611bda908261202e565b505050565b600954600090611bf0816001613436565b600955835160408086015160808701515191516000937f404299460000000000000000000000000000000000000000000000000000000093611c419386938493923092918a9160019160240161373f565b604080517fffffffffffffffffffffffffffffffffffffffffffffffffffffffffffffffe08184030181529190526020810180517bffffffffffffffffffffffffffffffffffffffffffffffffffffffff167fffffffff00000000000000000000000000000000000000000000000000000000909316929092179091529050611ccc86838684612045565b9695505050505050565b73ffffffffffffffffffffffffffffffffffffffff8216611d79576040517f08c379a000000000000000000000000000000000000000000000000000000000815260206004820152602160248201527f45524332303a206275726e2066726f6d20746865207a65726f2061646472657360448201527f73000000000000000000000000000000000000000000000000000000000000006064820152608401610c5a565b73ffffffffffffffffffffffffffffffffffffffff821660009081526020819052604090205481811015611e2f576040517f08c379a000000000000000000000000000000000000000000000000000000000815260206004820152602260248201527f45524332303a206275726e20616d6f756e7420657863656564732062616c616e60448201527f63650000000000000000000000000000000000000000000000000000000000006064820152608401610c5a565b73ffffffffffffffffffffffffffffffffffffffff83166000818152602081815260408083208686039055600280548790039055518581529192917fddf252ad1be2c89b69c2b068fc378daa952ba7f163c4a11628f55a4df523b3ef910160405180910390a3505050565b73ffffffffffffffffffffffffffffffffffffffff8216611f17576040517f08c379a000000000000000000000000000000000000000000000000000000000815260206004820152601f60248201527f45524332303a206d696e7420746f20746865207a65726f2061646472657373006044820152606401610c5a565b8060026000828254611f299190613436565b909155505073ffffffffffffffffffffffffffffffffffffffff8216600081815260208181526040808320805486019055518481527fddf252ad1be2c89b69c2b068fc378daa952ba7f163c4a11628f55a4df523b3ef910160405180910390a35050565b611fcb6040805160a0810182526000808252602080830182905282840182905260608084018390528451808601909552845283015290608082015290565b611fdb8560800151610100612253565b505082845273ffffffffffffffffffffffffffffffffffffffff821660208501527fffffffff0000000000000000000000000000000000000000000000000000000081166040850152835b949350505050565b61203b82600383516122b8565b611bda82826123c7565b6040517fffffffffffffffffffffffffffffffffffffffff0000000000000000000000003060601b16602082015260348101849052600090605401604080518083037fffffffffffffffffffffffffffffffffffffffffffffffffffffffffffffffe001815282825280516020918201206000818152600a90925291812080547fffffffffffffffffffffffff00000000000000000000000000000000000000001673ffffffffffffffffffffffffffffffffffffffff8a1617905590925082917fb5e6e01e79f91267dc17b4e6314d5d4d03593d2ceee0fbb452b750bd70ea5af99190a26007546040517f4000aea000000000000000000000000000000000000000000000000000000000815273ffffffffffffffffffffffffffffffffffffffff90911690634000aea090612184908890879087906004016137c8565b6020604051808303816000875af11580156121a3573d6000803e3d6000fd5b505050506040513d601f19601f820116820180604052508101906121c7919061344e565b612026576040517f08c379a000000000000000000000000000000000000000000000000000000000815260206004820152602360248201527f756e61626c6520746f207472616e73666572416e6443616c6c20746f206f726160448201527f636c6500000000000000000000000000000000000000000000000000000000006064820152608401610c5a565b6040805180820190915260608152600060208201526122736020836137fd565b1561229b576122836020836137fd565b61228e906020613838565b6122989083613436565b91505b506020828101829052604080518085526000815290920101905290565b60178167ffffffffffffffff16116122dd576118b68360e0600585901b1683176123ee565b60ff8167ffffffffffffffff161161231b57612304836018611fe0600586901b16176123ee565b506118b68367ffffffffffffffff83166001612413565b61ffff8167ffffffffffffffff161161235a57612343836019611fe0600586901b16176123ee565b506118b68367ffffffffffffffff83166002612413565b63ffffffff8167ffffffffffffffff161161239b5761238483601a611fe0600586901b16176123ee565b506118b68367ffffffffffffffff83166004612413565b6123b083601b611fe0600586901b16176123ee565b506118b68367ffffffffffffffff83166008612413565b60408051808201909152606081526000602082015261111883846000015151848551612439565b6040805180820190915260608152600060208201526111188384600001515184612541565b60408051808201909152606081526000602082015261202684856000015151858561259c565b604080518082019091526060815260006020820152825182111561245c57600080fd5b602085015161246b8386613436565b111561249e5761249e8561248e876020015187866124899190613436565b61261d565b61249990600261384f565b612634565b6000808651805187602083010193508088870111156124bd5787860182525b505050602084015b602084106124fd57805182526124dc602083613436565b91506124e9602082613436565b90506124f6602085613838565b93506124c5565b5181517fffffffffffffffffffffffffffffffffffffffffffffffffffffffffffffffff60208690036101000a019081169019919091161790525083949350505050565b60408051808201909152606081526000602082015283602001518310612576576125768485602001516002612499919061384f565b8351805160208583010184815350808503612592576001810182525b5093949350505050565b60408051808201909152606081526000602082015260208501516125c08584613436565b11156125d4576125d48561248e8685613436565b600060016125e4846101006139ac565b6125ee9190613838565b90508551838682010185831982511617815250805184870111156126125783860181525b509495945050505050565b60008183111561262e5750816104d6565b50919050565b81516126408383612253565b506118b683826123c7565b82805461265790612df2565b90600052602060002090601f01602090048101928261267957600085556126bf565b82601f1061269257805160ff19168380011785556126bf565b828001600101855582156126bf579182015b828111156126bf5782518255916020019190600101906126a4565b506126cb9291506126cf565b5090565b5b808211156126cb57600081556001016126d0565b60005b838110156126ff5781810151838201526020016126e7565b838111156118b65750506000910152565b600081518084526127288160208601602086016126e4565b601f017fffffffffffffffffffffffffffffffffffffffffffffffffffffffffffffffe0169290920160200192915050565b6020815260006111186020830184612710565b73ffffffffffffffffffffffffffffffffffffffff811681146113f057600080fd5b803561279a8161276d565b919050565b600080604083850312156127b257600080fd5b82356127bd8161276d565b946020939093013593505050565b600061018082518185526127e182860182612710565b91505060208301516127ff602086018267ffffffffffffffff169052565b50604083015161281b604086018267ffffffffffffffff169052565b50606083015160608501526080830151612841608086018267ffffffffffffffff169052565b5060a083015161285560a086018215159052565b5060c083015161286960c086018215159052565b5060e083015184820360e08601526128818282612710565b915050610100808401518583038287015261289c8382612710565b9250505061012080840151858303828701526128b88382612710565b9250505061014080840151858303828701526128d48382612710565b925050506101608084015185830382870152611ccc8382612710565b604081526000835161014080604085015261290f610180850183612710565b915060208601517fffffffffffffffffffffffffffffffffffffffffffffffffffffffffffffffc08086850301606087015261294b8483612710565b935060408801519150808685030160808701526129688483612710565b935060608801519150808685030160a08701526129858483612710565b935060808801519150808685030160c08701526129a28483612710565b935060a08801519150808685030160e08701526129bf8483612710565b935060c088015191506101008187860301818801526129de8584612710565b945060e089015192506101208288870301818901526129fd8685612710565b9550818a01519350828887030185890152612a188685612710565b9550808a0151945050505050612a4761016085018273ffffffffffffffffffffffffffffffffffffffff169052565b508281036020840152611bb381856127cb565b600080600060608486031215612a6f57600080fd5b8335612a7a8161276d565b92506020840135612a8a8161276d565b929592945050506040919091013590565b600060208284031215612aad57600080fd5b5035919050565b60008083601f840112612ac657600080fd5b50813567ffffffffffffffff811115612ade57600080fd5b602083019150836020828501011115612af657600080fd5b9250929050565b60008060008060008060008060a0898b031215612b1957600080fd5b883567ffffffffffffffff80821115612b3157600080fd5b612b3d8c838d01612ab4565b909a50985060208b01359150612b528261276d565b90965060408a01359080821115612b6857600080fd5b612b748c838d01612ab4565b909750955060608b0135915080821115612b8d57600080fd5b50612b9a8b828c01612ab4565b999c989b50969995989497949560800135949350505050565b7f4e487b7100000000000000000000000000000000000000000000000000000000600052604160045260246000fd5b604051610180810167ffffffffffffffff81118282101715612c0657612c06612bb3565b60405290565b604051610140810167ffffffffffffffff81118282101715612c0657612c06612bb3565b604051601f82017fffffffffffffffffffffffffffffffffffffffffffffffffffffffffffffffe016810167ffffffffffffffff81118282101715612c7757612c77612bb3565b604052919050565b600067ffffffffffffffff821115612c9957612c99612bb3565b50601f017fffffffffffffffffffffffffffffffffffffffffffffffffffffffffffffffe01660200190565b60008060408385031215612cd857600080fd5b82359150602083013567ffffffffffffffff811115612cf657600080fd5b8301601f81018513612d0757600080fd5b8035612d1a612d1582612c7f565b612c30565b818152866020838501011115612d2f57600080fd5b816020840160208301376000602083830101528093505050509250929050565b60008060408385031215612d6257600080fd5b8235612d6d8161276d565b9150602083013567ffffffffffffffff811115612d8957600080fd5b83016101408186031215612d9c57600080fd5b809150509250929050565b600060208284031215612db957600080fd5b81356111188161276d565b60008060408385031215612dd757600080fd5b8235612de28161276d565b91506020830135612d9c8161276d565b600181811c90821680612e0657607f821691505b60208210810361262e577f4e487b7100000000000000000000000000000000000000000000000000000000600052602260045260246000fd5b600082601f830112612e5057600080fd5b8151612e5e612d1582612c7f565b818152846020838601011115612e7357600080fd5b6120268260208301602087016126e4565b805161279a8161276d565b805167ffffffffffffffff8116811461279a57600080fd5b8051801515811461279a57600080fd5b60006101808284031215612eca57600080fd5b612ed2612be2565b9050815167ffffffffffffffff80821115612eec57600080fd5b612ef885838601612e3f565b8352612f0660208501612e8f565b6020840152612f1760408501612e8f565b604084015260608401516060840152612f3260808501612e8f565b6080840152612f4360a08501612ea7565b60a0840152612f5460c08501612ea7565b60c084015260e0840151915080821115612f6d57600080fd5b612f7985838601612e3f565b60e084015261010091508184015181811115612f9457600080fd5b612fa086828701612e3f565b838501525061012091508184015181811115612fbb57600080fd5b612fc786828701612e3f565b838501525061014091508184015181811115612fe257600080fd5b612fee86828701612e3f565b83850152506101609150818401518181111561300957600080fd5b61301586828701612e3f565b8385015250505092915050565b6000806040838503121561303557600080fd5b825167ffffffffffffffff8082111561304d57600080fd5b90840190610140828703121561306257600080fd5b61306a612c0c565b82518281111561307957600080fd5b61308588828601612e3f565b82525060208301518281111561309a57600080fd5b6130a688828601612e3f565b6020830152506040830151828111156130be57600080fd5b6130ca88828601612e3f565b6040830152506060830151828111156130e257600080fd5b6130ee88828601612e3f565b60608301525060808301518281111561310657600080fd5b61311288828601612e3f565b60808301525060a08301518281111561312a57600080fd5b61313688828601612e3f565b60a08301525060c08301518281111561314e57600080fd5b61315a88828601612e3f565b60c08301525060e08301518281111561317257600080fd5b61317e88828601612e3f565b60e083015250610100808401518381111561319857600080fd5b6131a489828701612e3f565b8284015250506101206131b8818501612e84565b9082015260208601519094509150808211156131d357600080fd5b506131e085828601612eb7565b9150509250929050565b6000602082840312156131fc57600080fd5b5051919050565b60006020828403121561321557600080fd5b815167ffffffffffffffff8082111561322d57600080fd5b908301906040828603121561324157600080fd5b60405160408101818110838211171561325c5761325c612bb3565b60405282518281111561326e57600080fd5b61327a87828601612e3f565b82525060208301518281111561328f57600080fd5b61329b87828601612e3f565b60208301525095945050505050565b600080604083850312156132bd57600080fd5b825167ffffffffffffffff808211156132d557600080fd5b6132e186838701612e3f565b935060208501519150808211156132f757600080fd5b506131e085828601612e3f565b600083516133168184602088016126e4565b83519083019061332a8183602088016126e4565b01949350505050565b60006020828403121561334557600080fd5b81516111188161276d565b8183528181602085013750600060208284010152600060207fffffffffffffffffffffffffffffffffffffffffffffffffffffffffffffffe0601f840116840101905092915050565b60a0815260006133ad60a083018a8c613350565b73ffffffffffffffffffffffffffffffffffffffff8916602084015282810360408401526133dc81888a613350565b905082810360608401526133f1818688613350565b9150508260808301529998505050505050505050565b7f4e487b7100000000000000000000000000000000000000000000000000000000600052601160045260246000fd5b6000821982111561344957613449613407565b500190565b60006020828403121561346057600080fd5b61111882612ea7565b60006020828403121561347b57600080fd5b815167ffffffffffffffff81111561349257600080fd5b61202684828501612e3f565b60008083357fffffffffffffffffffffffffffffffffffffffffffffffffffffffffffffffe18436030181126134d357600080fd5b830160208101925035905067ffffffffffffffff8111156134f357600080fd5b8060051b3603821315612af657600080fd5b81835260007f07ffffffffffffffffffffffffffffffffffffffffffffffffffffffffffffff83111561353757600080fd5b8260051b8083602087013760009401602001938452509192915050565b60008083357fffffffffffffffffffffffffffffffffffffffffffffffffffffffffffffffe184360301811261358957600080fd5b830160208101925035905067ffffffffffffffff8111156135a957600080fd5b803603821315612af657600080fd5b73ffffffffffffffffffffffffffffffffffffffff831681526040602082015260006135e4838461349e565b6101408060408601526135fc61018086018385613505565b9250602086013560608601526136156040870187613554565b92507fffffffffffffffffffffffffffffffffffffffffffffffffffffffffffffffc08087860301608088015261364d858584613350565b945061365b6060890161278f565b73ffffffffffffffffffffffffffffffffffffffff811660a089015293506136866080890189613554565b94509150808786030160c088015261369f858584613350565b94506136ae60a0890189613554565b94509150808786030160e08801526136c7858584613350565b94506136d660c0890189613554565b945091506101008188870301818901526136f1868685613350565b955061370060e08a018a613554565b955092506101208289880301818a015261371b878786613350565b918a0135948901949094529290970135610160909601959095529695505050505050565b600061010073ffffffffffffffffffffffffffffffffffffffff808c1684528a60208501528960408501528089166060850152507fffffffff00000000000000000000000000000000000000000000000000000000871660808401528560a08401528460c08401528060e08401526137b981840185612710565b9b9a5050505050505050505050565b73ffffffffffffffffffffffffffffffffffffffff84168152826020820152606060408201526000611bb36060830184612710565b600082613833577f4e487b7100000000000000000000000000000000000000000000000000000000600052601260045260246000fd5b500690565b60008282101561384a5761384a613407565b500390565b6000817fffffffffffffffffffffffffffffffffffffffffffffffffffffffffffffffff048311821515161561388757613887613407565b500290565b600181815b808511156138e557817fffffffffffffffffffffffffffffffffffffffffffffffffffffffffffffffff048211156138cb576138cb613407565b808516156138d857918102915b93841c9390800290613891565b509250929050565b6000826138fc575060016104d6565b81613909575060006104d6565b816001811461391f576002811461392957613945565b60019150506104d6565b60ff84111561393a5761393a613407565b50506001821b6104d6565b5060208310610133831016604e8410600b8410161715613968575081810a6104d6565b613972838361388c565b807fffffffffffffffffffffffffffffffffffffffffffffffffffffffffffffffff048211156139a4576139a4613407565b029392505050565b600061111883836138ed56fea164736f6c634300080e000aa164736f6c634300080e000a",
  "devdoc": {
    "kind": "dev",
    "methods": {
      "owner()": {
        "details": "Returns the address of the current owner."
      },
      "renounceOwnership()": {
        "details": "Leaves the contract without owner. It will not be possible to call `onlyOwner` functions. Can only be called by the current owner. NOTE: Renouncing ownership will leave the contract without an owner, thereby disabling any functionality that is only available to the owner."
      },
      "transferOwnership(address)": {
        "details": "Transfers ownership of the contract to a new account (`newOwner`). Can only be called by the current owner."
      }
    },
    "version": 1
  },
  "userdoc": {
    "kind": "user",
    "methods": {},
    "version": 1
  },
  "storageLayout": {
    "storage": [
      {
        "astId": 2183,
        "contract": "contracts/WrappedTCO2Factory.sol:WrappedTCO2Factory",
        "label": "_owner",
        "offset": 0,
        "slot": "0",
        "type": "t_address"
      },
      {
        "astId": 3651,
        "contract": "contracts/WrappedTCO2Factory.sol:WrappedTCO2Factory",
        "label": "wrappedTCO2Contracts",
        "offset": 0,
        "slot": "1",
        "type": "t_array(t_address)dyn_storage"
      },
      {
        "astId": 3655,
        "contract": "contracts/WrappedTCO2Factory.sol:WrappedTCO2Factory",
        "label": "underlyingToWrapped",
        "offset": 0,
        "slot": "2",
        "type": "t_mapping(t_address,t_address)"
      },
      {
        "astId": 3657,
        "contract": "contracts/WrappedTCO2Factory.sol:WrappedTCO2Factory",
        "label": "jobId",
        "offset": 0,
        "slot": "3",
        "type": "t_bytes32"
      },
      {
        "astId": 3659,
        "contract": "contracts/WrappedTCO2Factory.sol:WrappedTCO2Factory",
        "label": "fee",
        "offset": 0,
        "slot": "4",
        "type": "t_uint256"
      },
      {
        "astId": 3661,
        "contract": "contracts/WrappedTCO2Factory.sol:WrappedTCO2Factory",
        "label": "oracle",
        "offset": 0,
        "slot": "5",
        "type": "t_address"
      },
      {
        "astId": 3663,
        "contract": "contracts/WrappedTCO2Factory.sol:WrappedTCO2Factory",
        "label": "link",
        "offset": 0,
        "slot": "6",
        "type": "t_address"
      },
      {
        "astId": 3667,
        "contract": "contracts/WrappedTCO2Factory.sol:WrappedTCO2Factory",
        "label": "requests",
        "offset": 0,
        "slot": "7",
        "type": "t_array(t_struct(RequestDetails)3007_storage)dyn_storage"
      }
    ],
    "types": {
      "t_address": {
        "encoding": "inplace",
        "label": "address",
        "numberOfBytes": "20"
      },
      "t_array(t_address)dyn_storage": {
        "base": "t_address",
        "encoding": "dynamic_array",
        "label": "address[]",
        "numberOfBytes": "32"
      },
      "t_array(t_struct(RequestDetails)3007_storage)dyn_storage": {
        "base": "t_struct(RequestDetails)3007_storage",
        "encoding": "dynamic_array",
        "label": "struct IOracleUrlSource.RequestDetails[]",
        "numberOfBytes": "32"
      },
      "t_bytes32": {
        "encoding": "inplace",
        "label": "bytes32",
        "numberOfBytes": "32"
      },
      "t_mapping(t_address,t_address)": {
        "encoding": "mapping",
        "key": "t_address",
        "label": "mapping(address => address)",
        "numberOfBytes": "32",
        "value": "t_address"
      },
      "t_string_storage": {
        "encoding": "bytes",
        "label": "string",
        "numberOfBytes": "32"
      },
      "t_struct(RequestDetails)3007_storage": {
        "encoding": "inplace",
        "label": "struct IOracleUrlSource.RequestDetails",
        "members": [
          {
            "astId": 3004,
            "contract": "contracts/WrappedTCO2Factory.sol:WrappedTCO2Factory",
            "label": "url",
            "offset": 0,
            "slot": "0",
            "type": "t_string_storage"
          },
          {
            "astId": 3006,
            "contract": "contracts/WrappedTCO2Factory.sol:WrappedTCO2Factory",
            "label": "path",
            "offset": 0,
            "slot": "1",
            "type": "t_string_storage"
          }
        ],
        "numberOfBytes": "64"
      },
      "t_uint256": {
        "encoding": "inplace",
        "label": "uint256",
        "numberOfBytes": "32"
      }
    }
  }
}