{
  "address": "0x43F837432A98d8Fa9CDA94Dc81Ea2A2e6e2B90ab",
  "abi": [
    {
      "inputs": [
        {
          "internalType": "address",
          "name": "_oracle",
          "type": "address"
        },
        {
          "internalType": "string",
          "name": "_jobId",
          "type": "string"
        },
        {
          "internalType": "uint256",
          "name": "_fee",
          "type": "uint256"
        },
        {
          "internalType": "address",
          "name": "_link",
          "type": "address"
        }
      ],
      "stateMutability": "nonpayable",
      "type": "constructor"
    },
    {
      "anonymous": false,
      "inputs": [
        {
          "indexed": true,
          "internalType": "address",
          "name": "previousOwner",
          "type": "address"
        },
        {
          "indexed": true,
          "internalType": "address",
          "name": "newOwner",
          "type": "address"
        }
      ],
      "name": "OwnershipTransferred",
      "type": "event"
    },
    {
      "anonymous": false,
      "inputs": [
        {
          "indexed": true,
          "internalType": "uint256",
          "name": "id",
          "type": "uint256"
        }
      ],
      "name": "RequestAdded",
      "type": "event"
    },
    {
      "anonymous": false,
      "inputs": [
        {
          "indexed": true,
          "internalType": "address",
          "name": "wrappedTCO2Address",
          "type": "address"
        }
      ],
      "name": "WrappedTCO2Created",
      "type": "event"
    },
    {
      "inputs": [
        {
          "internalType": "string",
          "name": "url",
          "type": "string"
        },
        {
          "internalType": "string",
          "name": "path",
          "type": "string"
        }
      ],
      "name": "addRequest",
      "outputs": [],
      "stateMutability": "nonpayable",
      "type": "function"
    },
    {
      "inputs": [
        {
          "internalType": "address",
          "name": "_tco2TokenAddress",
          "type": "address"
        }
      ],
      "name": "createWrappedTCO2",
      "outputs": [],
      "stateMutability": "nonpayable",
      "type": "function"
    },
    {
      "inputs": [],
      "name": "fee",
      "outputs": [
        {
          "internalType": "uint256",
          "name": "",
          "type": "uint256"
        }
      ],
      "stateMutability": "view",
      "type": "function"
    },
    {
      "inputs": [
        {
          "internalType": "uint256",
          "name": "id",
          "type": "uint256"
        }
      ],
      "name": "getRequestDetails",
      "outputs": [
        {
          "components": [
            {
              "internalType": "string",
              "name": "url",
              "type": "string"
            },
            {
              "internalType": "string",
              "name": "path",
              "type": "string"
            }
          ],
          "internalType": "struct IOracleUrlSource.RequestDetails",
          "name": "",
          "type": "tuple"
        }
      ],
      "stateMutability": "view",
      "type": "function"
    },
    {
      "inputs": [],
      "name": "getWrappedTCO2Contracts",
      "outputs": [
        {
          "internalType": "address[]",
          "name": "",
          "type": "address[]"
        }
      ],
      "stateMutability": "view",
      "type": "function"
    },
    {
      "inputs": [],
      "name": "jobId",
      "outputs": [
        {
          "internalType": "bytes32",
          "name": "",
          "type": "bytes32"
        }
      ],
      "stateMutability": "view",
      "type": "function"
    },
    {
      "inputs": [],
      "name": "link",
      "outputs": [
        {
          "internalType": "address",
          "name": "",
          "type": "address"
        }
      ],
      "stateMutability": "view",
      "type": "function"
    },
    {
      "inputs": [],
      "name": "oracle",
      "outputs": [
        {
          "internalType": "address",
          "name": "",
          "type": "address"
        }
      ],
      "stateMutability": "view",
      "type": "function"
    },
    {
      "inputs": [],
      "name": "owner",
      "outputs": [
        {
          "internalType": "address",
          "name": "",
          "type": "address"
        }
      ],
      "stateMutability": "view",
      "type": "function"
    },
    {
      "inputs": [],
      "name": "renounceOwnership",
      "outputs": [],
      "stateMutability": "nonpayable",
      "type": "function"
    },
    {
      "inputs": [
        {
          "internalType": "uint256",
          "name": "",
          "type": "uint256"
        }
      ],
      "name": "requests",
      "outputs": [
        {
          "internalType": "string",
          "name": "url",
          "type": "string"
        },
        {
          "internalType": "string",
          "name": "path",
          "type": "string"
        }
      ],
      "stateMutability": "view",
      "type": "function"
    },
    {
      "inputs": [
        {
          "internalType": "string",
          "name": "source",
          "type": "string"
        }
      ],
      "name": "stringToBytes32",
      "outputs": [
        {
          "internalType": "bytes32",
          "name": "result",
          "type": "bytes32"
        }
      ],
      "stateMutability": "pure",
      "type": "function"
    },
    {
      "inputs": [
        {
          "internalType": "address",
          "name": "newOwner",
          "type": "address"
        }
      ],
      "name": "transferOwnership",
      "outputs": [],
      "stateMutability": "nonpayable",
      "type": "function"
    },
    {
      "inputs": [
        {
          "internalType": "address",
          "name": "",
          "type": "address"
        }
      ],
      "name": "underlyingToWrapped",
      "outputs": [
        {
          "internalType": "address",
          "name": "",
          "type": "address"
        }
      ],
      "stateMutability": "view",
      "type": "function"
    },
    {
      "inputs": [
        {
          "internalType": "uint256",
          "name": "",
          "type": "uint256"
        }
      ],
      "name": "wrappedTCO2Contracts",
      "outputs": [
        {
          "internalType": "address",
          "name": "",
          "type": "address"
        }
      ],
      "stateMutability": "view",
      "type": "function"
    }
  ],
  "transactionHash": "0x9466cd2f39d297ce5185d4e506476f1715708e2e9dddcd43589ba791ec4fccfc",
  "args": [
    "0x40193c8518BB267228Fc409a613bDbD8eC5a97b3",
    "ca98366cc7314957b8c012c72f05aeeb",
    "100000000000000000",
    "0x326C977E6efc84E512bB9C30f76E30c160eD06FB"
  ],
  "numDeployments": 1,
  "solcInputHash": "d06f69b66d4ee219bc4e4c7d92c3898e",
  "bytecode": "0x60806040523480156200001157600080fd5b5060405162004ce438038062004ce4833981016040819052620000349162000139565b6200003f3362000096565b600580546001600160a01b0319166001600160a01b0386161790556200006583620000e6565b600355600491909155600680546001600160a01b0319166001600160a01b0390921691909117905550620002489050565b600080546001600160a01b038381166001600160a01b0319831681178455604051919092169283917f8be0079c531659141344cd1fd0a4f28419497f9722a3daafe3b4186f6b6457e09190a35050565b805160009082908203620000fd5750600092915050565b50506020015190565b80516001600160a01b03811681146200011e57600080fd5b919050565b634e487b7160e01b600052604160045260246000fd5b600080600080608085870312156200015057600080fd5b6200015b8562000106565b602086810151919550906001600160401b03808211156200017b57600080fd5b818801915088601f8301126200019057600080fd5b815181811115620001a557620001a562000123565b604051601f8201601f19908116603f01168101908382118183101715620001d057620001d062000123565b816040528281528b86848701011115620001e957600080fd5b600093505b828410156200020d5784840186015181850187015292850192620001ee565b828411156200021f5760008684830101525b809850505050505050604085015191506200023d6060860162000106565b905092959194509250565b614a8c80620002586000396000f3fe60806040523480156200001157600080fd5b5060043610620001095760003560e01c8063b4ec337211620000a3578063ddca3f43116200006e578063ddca3f43146200027a578063e73ebd811462000284578063f2fde38b146200029d578063f34d4c6314620002b457600080fd5b8063b4ec337214620001fa578063b9da4af81462000233578063c2939d97146200024a578063cfb51928146200026357600080fd5b806381d12c5811620000e457806381d12c58146200018657806383d00d2914620001ad5780638da5cb5b14620001c45780639559c07f14620001e357600080fd5b80631c4695f4146200010e578063715018a614620001595780637dc0d1d01462000165575b600080fd5b6006546200012f9073ffffffffffffffffffffffffffffffffffffffff1681565b60405173ffffffffffffffffffffffffffffffffffffffff90911681526020015b60405180910390f35b62000163620002da565b005b6005546200012f9073ffffffffffffffffffffffffffffffffffffffff1681565b6200019d6200019736600462000bf6565b620002f2565b6040516200015092919062000c7e565b6200012f620001be36600462000bf6565b62000447565b60005473ffffffffffffffffffffffffffffffffffffffff166200012f565b62000163620001f436600462000cb0565b6200047f565b6200012f6200020b36600462000cb0565b60026020526000908152604090205473ffffffffffffffffffffffffffffffffffffffff1681565b620001636200024436600462000dd1565b62000649565b6200025460035481565b60405190815260200162000150565b620002546200027436600462000e3c565b62000711565b6200025460045481565b6200028e62000731565b60405162000150919062000e7d565b62000163620002ae36600462000cb0565b620007a2565b620002cb620002c536600462000bf6565b6200085f565b60405162000150919062000ed9565b620002e462000a4a565b620002f0600062000acd565b565b600781815481106200030357600080fd5b9060005260206000209060020201600091509050806000018054620003289062000f34565b80601f0160208091040260200160405190810160405280929190818152602001828054620003569062000f34565b8015620003a75780601f106200037b57610100808354040283529160200191620003a7565b820191906000526020600020905b8154815290600101906020018083116200038957829003601f168201915b505050505090806001018054620003be9062000f34565b80601f0160208091040260200160405190810160405280929190818152602001828054620003ec9062000f34565b80156200043d5780601f1062000411576101008083540402835291602001916200043d565b820191906000526020600020905b8154815290600101906020018083116200041f57829003601f168201915b5050505050905082565b600181815481106200045857600080fd5b60009182526020909120015473ffffffffffffffffffffffffffffffffffffffff16905081565b73ffffffffffffffffffffffffffffffffffffffff818116600090815260026020526040902054161562000514576040517f08c379a000000000000000000000000000000000000000000000000000000000815260206004820152601a60248201527f5772617070656454434f3220616c72656164792065786973747300000000000060448201526064015b60405180910390fd5b600654604051600091839173ffffffffffffffffffffffffffffffffffffffff909116903090620005459062000b42565b73ffffffffffffffffffffffffffffffffffffffff938416815291831660208301529091166040820152606001604051809103906000f0801580156200058f573d6000803e3d6000fd5b50600180548082019091557fb10e2d527612073b26eecdfd717e6a320cf44b4afac2b0732d9fcbe2b7fa0cf601805473ffffffffffffffffffffffffffffffffffffffff8084167fffffffffffffffffffffffff00000000000000000000000000000000000000009283168117909355851660009081526002602052604080822080549093168417909255905192935090917f68dbab7bf7ba33cc24097f8864673e416548ae0c59e0d3a20d51eb3b6a8206fb9190a25050565b6200065362000a4a565b604080518082019091528281526020808201839052600780546001810182556000919091528251805160029092027fa66cc928b5edb82af9bd49922954155ab7b0942694bea4ce44661d9a8736c6880192620006b59284929091019062000b50565b506020828101518051620006d0926001850192019062000b50565b5050600754620006e4915060019062000f89565b6040517f1241757208f08d63f291d85cafba51f9c01fc80b77f21fb69b4b7ce9908b9a0e90600090a25050565b805160009082908203620007285750600092915050565b50506020015190565b606060018054806020026020016040519081016040528092919081815260200182805480156200079857602002820191906000526020600020905b815473ffffffffffffffffffffffffffffffffffffffff1681526001909101906020018083116200076c575b5050505050905090565b620007ac62000a4a565b73ffffffffffffffffffffffffffffffffffffffff811662000851576040517f08c379a000000000000000000000000000000000000000000000000000000000815260206004820152602660248201527f4f776e61626c653a206e6577206f776e657220697320746865207a65726f206160448201527f646472657373000000000000000000000000000000000000000000000000000060648201526084016200050b565b6200085c8162000acd565b50565b60408051808201909152606080825260208201526007548210620008e0576040517f08c379a000000000000000000000000000000000000000000000000000000000815260206004820152601260248201527f496e76616c69642072657175657374206964000000000000000000000000000060448201526064016200050b565b60078281548110620008f657620008f662000fc8565b9060005260206000209060020201604051806040016040529081600082018054620009219062000f34565b80601f01602080910402602001604051908101604052809291908181526020018280546200094f9062000f34565b8015620009a05780601f106200097457610100808354040283529160200191620009a0565b820191906000526020600020905b8154815290600101906020018083116200098257829003601f168201915b50505050508152602001600182018054620009bb9062000f34565b80601f0160208091040260200160405190810160405280929190818152602001828054620009e99062000f34565b801562000a3a5780601f1062000a0e5761010080835404028352916020019162000a3a565b820191906000526020600020905b81548152906001019060200180831162000a1c57829003601f168201915b5050505050815250509050919050565b60005473ffffffffffffffffffffffffffffffffffffffff163314620002f0576040517f08c379a000000000000000000000000000000000000000000000000000000000815260206004820181905260248201527f4f776e61626c653a2063616c6c6572206973206e6f7420746865206f776e657260448201526064016200050b565b6000805473ffffffffffffffffffffffffffffffffffffffff8381167fffffffffffffffffffffffff0000000000000000000000000000000000000000831681178455604051919092169283917f8be0079c531659141344cd1fd0a4f28419497f9722a3daafe3b4186f6b6457e09190a35050565b613a888062000ff883390190565b82805462000b5e9062000f34565b90600052602060002090601f01602090048101928262000b82576000855562000bcd565b82601f1062000b9d57805160ff191683800117855562000bcd565b8280016001018555821562000bcd579182015b8281111562000bcd57825182559160200191906001019062000bb0565b5062000bdb92915062000bdf565b5090565b5b8082111562000bdb576000815560010162000be0565b60006020828403121562000c0957600080fd5b5035919050565b6000815180845260005b8181101562000c385760208185018101518683018201520162000c1a565b8181111562000c4b576000602083870101525b50601f017fffffffffffffffffffffffffffffffffffffffffffffffffffffffffffffffe0169290920160200192915050565b60408152600062000c93604083018562000c10565b828103602084015262000ca7818562000c10565b95945050505050565b60006020828403121562000cc357600080fd5b813573ffffffffffffffffffffffffffffffffffffffff8116811462000ce857600080fd5b9392505050565b7f4e487b7100000000000000000000000000000000000000000000000000000000600052604160045260246000fd5b600082601f83011262000d3057600080fd5b813567ffffffffffffffff8082111562000d4e5762000d4e62000cef565b604051601f83017fffffffffffffffffffffffffffffffffffffffffffffffffffffffffffffffe0908116603f0116810190828211818310171562000d975762000d9762000cef565b8160405283815286602085880101111562000db157600080fd5b836020870160208301376000602085830101528094505050505092915050565b6000806040838503121562000de557600080fd5b823567ffffffffffffffff8082111562000dfe57600080fd5b62000e0c8683870162000d1e565b9350602085013591508082111562000e2357600080fd5b5062000e328582860162000d1e565b9150509250929050565b60006020828403121562000e4f57600080fd5b813567ffffffffffffffff81111562000e6757600080fd5b62000e758482850162000d1e565b949350505050565b6020808252825182820181905260009190848201906040850190845b8181101562000ecd57835173ffffffffffffffffffffffffffffffffffffffff168352928401929184019160010162000e99565b50909695505050505050565b60208152600082516040602084015262000ef7606084018262000c10565b905060208401517fffffffffffffffffffffffffffffffffffffffffffffffffffffffffffffffe084830301604085015262000ca7828262000c10565b600181811c9082168062000f4957607f821691505b60208210810362000f83577f4e487b7100000000000000000000000000000000000000000000000000000000600052602260045260246000fd5b50919050565b60008282101562000fc3577f4e487b7100000000000000000000000000000000000000000000000000000000600052601160045260246000fd5b500390565b7f4e487b7100000000000000000000000000000000000000000000000000000000600052603260045260246000fdfe608060405260016009553480156200001657600080fd5b5060405162003a8838038062003a888339810160408190526200003991620003a3565b6200004483620000fa565b6200004f846200019f565b815162000064906003906020850190620002e0565b5080516200007a906004906020840190620002e0565b5050600c80546001600160a01b0319166001600160a01b038681169190911790915583169050620000b557620000af6200023f565b620000d1565b600780546001600160a01b0319166001600160a01b0384161790555b600b80546001600160a01b0319166001600160a01b039290921691909117905550620006149050565b60606000829050600080826001600160a01b03166364c5a4036040518163ffffffff1660e01b8152600401600060405180830381865afa15801562000143573d6000803e3d6000fd5b505050506040513d6000823e601f3d908101601f191682016040526200016d9190810190620004c7565b9150915081816040516020016200018692919062000531565b6040516020818303038152906040529350505050919050565b606060008290506000816001600160a01b03166364c5a4036040518163ffffffff1660e01b8152600401600060405180830381865afa158015620001e7573d6000803e3d6000fd5b505050506040513d6000823e601f3d908101601f19168201604052620002119190810190620004c7565b5090508060405160200162000227919062000583565b60405160208183030381529060405292505050919050565b620002de73c89bd4e1632d3a43cb03aaad5262cbe4038bc5716001600160a01b03166338cc48316040518163ffffffff1660e01b8152600401602060405180830381865afa15801562000296573d6000803e3d6000fd5b505050506040513d601f19601f82011682018060405250810190620002bc9190620005b3565b600780546001600160a01b0319166001600160a01b0392909216919091179055565b565b828054620002ee90620005d8565b90600052602060002090601f0160209004810192826200031257600085556200035d565b82601f106200032d57805160ff19168380011785556200035d565b828001600101855582156200035d579182015b828111156200035d57825182559160200191906001019062000340565b506200036b9291506200036f565b5090565b5b808211156200036b576000815560010162000370565b80516001600160a01b03811681146200039e57600080fd5b919050565b600080600060608486031215620003b957600080fd5b620003c48462000386565b9250620003d46020850162000386565b9150620003e46040850162000386565b90509250925092565b634e487b7160e01b600052604160045260246000fd5b60005b838110156200042057818101518382015260200162000406565b8381111562000430576000848401525b50505050565b600082601f8301126200044857600080fd5b81516001600160401b0380821115620004655762000465620003ed565b604051601f8301601f19908116603f01168101908282118183101715620004905762000490620003ed565b81604052838152866020858801011115620004aa57600080fd5b620004bd84602083016020890162000403565b9695505050505050565b60008060408385031215620004db57600080fd5b82516001600160401b0380821115620004f357600080fd5b620005018683870162000436565b935060208501519150808211156200051857600080fd5b50620005278582860162000436565b9150509250929050565b657754434f322d60d01b8152600083516200055481600685016020880162000403565b602d60f81b60069184019182015283516200057781600784016020880162000403565b01600701949350505050565b657754434f322d60d01b815260008251620005a681600685016020870162000403565b9190910160060192915050565b600060208284031215620005c657600080fd5b620005d18262000386565b9392505050565b600181811c90821680620005ed57607f821691505b6020821081036200060e57634e487b7160e01b600052602260045260246000fd5b50919050565b61346480620006246000396000f3fe608060405234801561001057600080fd5b50600436106101a35760003560e01c80636746e7be116100ee578063a457c2d711610097578063de0e9a3e11610071578063de0e9a3e146103d1578063e819426c146103e4578063ea598cb0146103ec578063f2e14838146103ff57600080fd5b8063a457c2d714610365578063a9059cbb14610378578063dd62ed3e1461038b57600080fd5b806379cc6790116100c857806379cc67901461032a57806391da1ed21461033d57806395d89b411461035d57600080fd5b80636746e7be146102ce5780636b24ffd6146102e157806370a08231146102f457600080fd5b80632ef29290116101505780633c31175e1161012a5780633c31175e1461026e5780634357855e1461027657806345a54ca61461028957600080fd5b80632ef2929014610237578063313ce5671461024c578063395093511461025b57600080fd5b806318160ddd1161018157806318160ddd146101ff57806323b872dd146102115780632adb9e3c1461022457600080fd5b806306fdde03146101a8578063095ea7b3146101c6578063152583de146101e9575b600080fd5b6101b061041f565b6040516101bd9190612328565b60405180910390f35b6101d96101d436600461236d565b6104b1565b60405190151581526020016101bd565b6101f16104cb565b6040516101bd9291906124be565b6002545b6040519081526020016101bd565b6101d961021f366004612628565b610678565b610203610232366004612669565b61069c565b61024a6102453660046126cb565b6109ef565b005b604051601281526020016101bd565b6101d961026936600461236d565b610a99565b6101b0610ae5565b61024a610284366004612781565b610ba0565b600c546102a99073ffffffffffffffffffffffffffffffffffffffff1681565b60405173ffffffffffffffffffffffffffffffffffffffff90911681526020016101bd565b61024a6102dc3660046127a3565b610cdf565b6102036102ef36600461236d565b610d7b565b6102036103023660046127fb565b73ffffffffffffffffffffffffffffffffffffffff1660009081526020819052604090205490565b61024a61033836600461236d565b610e20565b600b546102a99073ffffffffffffffffffffffffffffffffffffffff1681565b6101b0610e7f565b6101d961037336600461236d565b610e8e565b6101d961038636600461236d565b610f5f565b610203610399366004612818565b73ffffffffffffffffffffffffffffffffffffffff918216600090815260016020908152604080832093909416825291909152205490565b61024a6103df366004612669565b610f6d565b6102036110f4565b61024a6103fa366004612669565b611188565b61020361040d366004612669565b600e6020526000908152604090205481565b60606003805461042e90612846565b80601f016020809104026020016040519081016040528092919081815260200182805461045a90612846565b80156104a75780601f1061047c576101008083540402835291602001916104a7565b820191906000526020600020905b81548152906001019060200180831161048a57829003601f168201915b5050505050905090565b6000336104bf818585611299565b60019150505b92915050565b610537604051806101400160405280606081526020016060815260200160608152602001606081526020016060815260200160608152602001606081526020016060815260200160608152602001600073ffffffffffffffffffffffffffffffffffffffff1681525090565b6105bd60405180610180016040528060608152602001600067ffffffffffffffff168152602001600067ffffffffffffffff16815260200160008152602001600067ffffffffffffffff16815260200160001515815260200160001515815260200160608152602001606081526020016060815260200160608152602001606081525090565b600c60009054906101000a900473ffffffffffffffffffffffffffffffffffffffff1673ffffffffffffffffffffffffffffffffffffffff1663152583de6040518163ffffffff1660e01b8152600401600060405180830381865afa15801561062a573d6000803e3d6000fd5b505050506040513d6000823e601f3d9081017fffffffffffffffffffffffffffffffffffffffffffffffffffffffffffffffe01682016040526106709190810190612b4a565b915091509091565b60003361068685828561144c565b610691858585611523565b506001949350505050565b60008061075a600b60009054906101000a900473ffffffffffffffffffffffffffffffffffffffff1673ffffffffffffffffffffffffffffffffffffffff1663c2939d976040518163ffffffff1660e01b8152600401602060405180830381865afa15801561070f573d6000803e3d6000fd5b505050506040513d601f19601f820116820180604052508101906107339190612d12565b307f4357855e00000000000000000000000000000000000000000000000000000000611792565b600b546040517ff34d4c630000000000000000000000000000000000000000000000000000000081526004810186905291925060009173ffffffffffffffffffffffffffffffffffffffff9091169063f34d4c6390602401600060405180830381865afa1580156107cf573d6000803e3d6000fd5b505050506040513d6000823e601f3d9081017fffffffffffffffffffffffffffffffffffffffffffffffffffffffffffffffe01682016040526108159190810190612d2b565b60408051808201909152600381527f67657400000000000000000000000000000000000000000000000000000000006020820152815191925061085a91849190611823565b6108a86040518060400160405280600481526020017f70617468000000000000000000000000000000000000000000000000000000008152508260200151846118239092919063ffffffff16565b600b54604080517f7dc0d1d000000000000000000000000000000000000000000000000000000000815290516109d59273ffffffffffffffffffffffffffffffffffffffff1691637dc0d1d09160048083019260209291908290030181865afa158015610919573d6000803e3d6000fd5b505050506040513d601f19601f8201168201806040525081019061093d9190612dd2565b600b54604080517fddca3f430000000000000000000000000000000000000000000000000000000081529051869273ffffffffffffffffffffffffffffffffffffffff169163ddca3f439160048083019260209291908290030181865afa1580156109ac573d6000803e3d6000fd5b505050506040513d601f19601f820116820180604052508101906109d09190612d12565b611846565b6000818152600d6020526040902094909455509192915050565b6109f9338261193d565b600c546040517f2ef2929000000000000000000000000000000000000000000000000000000000815273ffffffffffffffffffffffffffffffffffffffff90911690632ef2929090610a5d908b908b908b908b908b908b908b908b90600401612e38565b600060405180830381600087803b158015610a7757600080fd5b505af1158015610a8b573d6000803e3d6000fd5b505050505050505050505050565b33600081815260016020908152604080832073ffffffffffffffffffffffffffffffffffffffff871684529091528120549091906104bf9082908690610ae0908790612ed5565b611299565b600c54604080517f3c31175e000000000000000000000000000000000000000000000000000000008152905160609273ffffffffffffffffffffffffffffffffffffffff1691633c31175e9160048083019260009291908290030181865afa158015610b55573d6000803e3d6000fd5b505050506040513d6000823e601f3d9081017fffffffffffffffffffffffffffffffffffffffffffffffffffffffffffffffe0168201604052610b9b9190810190612eed565b905090565b6000828152600a6020526040902054829073ffffffffffffffffffffffffffffffffffffffff163314610c5a576040517f08c379a000000000000000000000000000000000000000000000000000000000815260206004820152602860248201527f536f75726365206d75737420626520746865206f7261636c65206f662074686560448201527f207265717565737400000000000000000000000000000000000000000000000060648201526084015b60405180910390fd5b6000818152600a602052604080822080547fffffffffffffffffffffffff00000000000000000000000000000000000000001690555182917f7cc135e0cebb02c3480ae5d74d377283180a2601f8f644edf7987b009316c63a91a2506000828152600d6020818152604080842080548552600e83529084209490945593825290925255565b610ced33826020013561193d565b600c546040517f6746e7be00000000000000000000000000000000000000000000000000000000815273ffffffffffffffffffffffffffffffffffffffff90911690636746e7be90610d45908590859060040161303c565b600060405180830381600087803b158015610d5f57600080fd5b505af1158015610d73573d6000803e3d6000fd5b505050505050565b600c546040517f6b24ffd600000000000000000000000000000000000000000000000000000000815273ffffffffffffffffffffffffffffffffffffffff8481166004830152602482018490526000921690636b24ffd6906044016020604051808303816000875af1158015610df5573d6000803e3d6000fd5b505050506040513d601f19601f82011682018060405250810190610e199190612d12565b9392505050565b600c546040517f79cc679000000000000000000000000000000000000000000000000000000000815273ffffffffffffffffffffffffffffffffffffffff848116600483015260248201849052909116906379cc679090604401610d45565b60606004805461042e90612846565b33600081815260016020908152604080832073ffffffffffffffffffffffffffffffffffffffff8716845290915281205490919083811015610f52576040517f08c379a000000000000000000000000000000000000000000000000000000000815260206004820152602560248201527f45524332303a2064656372656173656420616c6c6f77616e63652062656c6f7760448201527f207a65726f0000000000000000000000000000000000000000000000000000006064820152608401610c51565b6106918286868403611299565b6000336104bf818585611523565b33600090815260208190526040902054811115610fe6576040517f08c379a000000000000000000000000000000000000000000000000000000000815260206004820152601460248201527f496e73756666696369656e742062616c616e63650000000000000000000000006044820152606401610c51565b610ff0338261193d565b600c546040517fa9059cbb0000000000000000000000000000000000000000000000000000000081523360048201526024810183905273ffffffffffffffffffffffffffffffffffffffff9091169063a9059cbb906044016020604051808303816000875af1158015611067573d6000803e3d6000fd5b505050506040513d601f19601f8201168201806040525081019061108b91906131c3565b6110f1576040517f08c379a000000000000000000000000000000000000000000000000000000000815260206004820152600f60248201527f5472616e73666572206661696c656400000000000000000000000000000000006044820152606401610c51565b50565b600c54604080517fe819426c000000000000000000000000000000000000000000000000000000008152905160009273ffffffffffffffffffffffffffffffffffffffff169163e819426c9160048083019260209291908290030181865afa158015611164573d6000803e3d6000fd5b505050506040513d601f19601f82011682018060405250810190610b9b9190612d12565b600c546040517f23b872dd0000000000000000000000000000000000000000000000000000000081523360048201523060248201526044810183905273ffffffffffffffffffffffffffffffffffffffff909116906323b872dd906064016020604051808303816000875af1158015611205573d6000803e3d6000fd5b505050506040513d601f19601f8201168201806040525081019061122991906131c3565b61128f576040517f08c379a000000000000000000000000000000000000000000000000000000000815260206004820152600f60248201527f5472616e73666572206661696c656400000000000000000000000000000000006044820152606401610c51565b6110f13382611b01565b73ffffffffffffffffffffffffffffffffffffffff831661133b576040517f08c379a0000000000000000000000000000000000000000000000000000000008152602060048201526024808201527f45524332303a20617070726f76652066726f6d20746865207a65726f2061646460448201527f72657373000000000000000000000000000000000000000000000000000000006064820152608401610c51565b73ffffffffffffffffffffffffffffffffffffffff82166113de576040517f08c379a000000000000000000000000000000000000000000000000000000000815260206004820152602260248201527f45524332303a20617070726f766520746f20746865207a65726f20616464726560448201527f73730000000000000000000000000000000000000000000000000000000000006064820152608401610c51565b73ffffffffffffffffffffffffffffffffffffffff83811660008181526001602090815260408083209487168084529482529182902085905590518481527f8c5be1e5ebec7d5bd14f71427d1e84f3dd0314c0f7b2291e5b200ac8c7c3b925910160405180910390a3505050565b73ffffffffffffffffffffffffffffffffffffffff8381166000908152600160209081526040808320938616835292905220547fffffffffffffffffffffffffffffffffffffffffffffffffffffffffffffffff811461151d5781811015611510576040517f08c379a000000000000000000000000000000000000000000000000000000000815260206004820152601d60248201527f45524332303a20696e73756666696369656e7420616c6c6f77616e63650000006044820152606401610c51565b61151d8484848403611299565b50505050565b73ffffffffffffffffffffffffffffffffffffffff83166115c6576040517f08c379a000000000000000000000000000000000000000000000000000000000815260206004820152602560248201527f45524332303a207472616e736665722066726f6d20746865207a65726f20616460448201527f64726573730000000000000000000000000000000000000000000000000000006064820152608401610c51565b73ffffffffffffffffffffffffffffffffffffffff8216611669576040517f08c379a000000000000000000000000000000000000000000000000000000000815260206004820152602360248201527f45524332303a207472616e7366657220746f20746865207a65726f206164647260448201527f65737300000000000000000000000000000000000000000000000000000000006064820152608401610c51565b73ffffffffffffffffffffffffffffffffffffffff83166000908152602081905260409020548181101561171f576040517f08c379a000000000000000000000000000000000000000000000000000000000815260206004820152602660248201527f45524332303a207472616e7366657220616d6f756e742065786365656473206260448201527f616c616e636500000000000000000000000000000000000000000000000000006064820152608401610c51565b73ffffffffffffffffffffffffffffffffffffffff848116600081815260208181526040808320878703905593871680835291849020805487019055925185815290927fddf252ad1be2c89b69c2b068fc378daa952ba7f163c4a11628f55a4df523b3ef910160405180910390a361151d565b6117d06040805160a0810182526000808252602080830182905282840182905260608084018390528451808601909552845283015290608082015290565b61180e6040805160a0810182526000808252602080830182905282840182905260608084018390528451808601909552845283015290608082015290565b61181a81868686611bf4565b95945050505050565b60808301516118329083611c95565b60808301516118419082611c95565b505050565b600954600090611857816001612ed5565b600955835160408086015160808701515191516000937f4042994600000000000000000000000000000000000000000000000000000000936118a89386938493923092918a916001916024016131de565b604080517fffffffffffffffffffffffffffffffffffffffffffffffffffffffffffffffe08184030181529190526020810180517bffffffffffffffffffffffffffffffffffffffffffffffffffffffff167fffffffff0000000000000000000000000000000000000000000000000000000090931692909217909152905061193386838684611cac565b9695505050505050565b73ffffffffffffffffffffffffffffffffffffffff82166119e0576040517f08c379a000000000000000000000000000000000000000000000000000000000815260206004820152602160248201527f45524332303a206275726e2066726f6d20746865207a65726f2061646472657360448201527f73000000000000000000000000000000000000000000000000000000000000006064820152608401610c51565b73ffffffffffffffffffffffffffffffffffffffff821660009081526020819052604090205481811015611a96576040517f08c379a000000000000000000000000000000000000000000000000000000000815260206004820152602260248201527f45524332303a206275726e20616d6f756e7420657863656564732062616c616e60448201527f63650000000000000000000000000000000000000000000000000000000000006064820152608401610c51565b73ffffffffffffffffffffffffffffffffffffffff83166000818152602081815260408083208686039055600280548790039055518581529192917fddf252ad1be2c89b69c2b068fc378daa952ba7f163c4a11628f55a4df523b3ef910160405180910390a3505050565b73ffffffffffffffffffffffffffffffffffffffff8216611b7e576040517f08c379a000000000000000000000000000000000000000000000000000000000815260206004820152601f60248201527f45524332303a206d696e7420746f20746865207a65726f2061646472657373006044820152606401610c51565b8060026000828254611b909190612ed5565b909155505073ffffffffffffffffffffffffffffffffffffffff8216600081815260208181526040808320805486019055518481527fddf252ad1be2c89b69c2b068fc378daa952ba7f163c4a11628f55a4df523b3ef910160405180910390a35050565b611c326040805160a0810182526000808252602080830182905282840182905260608084018390528451808601909552845283015290608082015290565b611c428560800151610100611eba565b505082845273ffffffffffffffffffffffffffffffffffffffff821660208501527fffffffff0000000000000000000000000000000000000000000000000000000081166040850152835b949350505050565b611ca28260038351611f1f565b611841828261202e565b6040517fffffffffffffffffffffffffffffffffffffffff0000000000000000000000003060601b16602082015260348101849052600090605401604080518083037fffffffffffffffffffffffffffffffffffffffffffffffffffffffffffffffe001815282825280516020918201206000818152600a90925291812080547fffffffffffffffffffffffff00000000000000000000000000000000000000001673ffffffffffffffffffffffffffffffffffffffff8a1617905590925082917fb5e6e01e79f91267dc17b4e6314d5d4d03593d2ceee0fbb452b750bd70ea5af99190a26007546040517f4000aea000000000000000000000000000000000000000000000000000000000815273ffffffffffffffffffffffffffffffffffffffff90911690634000aea090611deb90889087908790600401613267565b6020604051808303816000875af1158015611e0a573d6000803e3d6000fd5b505050506040513d601f19601f82011682018060405250810190611e2e91906131c3565b611c8d576040517f08c379a000000000000000000000000000000000000000000000000000000000815260206004820152602360248201527f756e61626c6520746f207472616e73666572416e6443616c6c20746f206f726160448201527f636c6500000000000000000000000000000000000000000000000000000000006064820152608401610c51565b604080518082019091526060815260006020820152611eda60208361329c565b15611f0257611eea60208361329c565b611ef59060206132d7565b611eff9083612ed5565b91505b506020828101829052604080518085526000815290920101905290565b60178167ffffffffffffffff1611611f445761151d8360e0600585901b168317612055565b60ff8167ffffffffffffffff1611611f8257611f6b836018611fe0600586901b1617612055565b5061151d8367ffffffffffffffff8316600161207a565b61ffff8167ffffffffffffffff1611611fc157611faa836019611fe0600586901b1617612055565b5061151d8367ffffffffffffffff8316600261207a565b63ffffffff8167ffffffffffffffff161161200257611feb83601a611fe0600586901b1617612055565b5061151d8367ffffffffffffffff8316600461207a565b61201783601b611fe0600586901b1617612055565b5061151d8367ffffffffffffffff8316600861207a565b604080518082019091526060815260006020820152610e19838460000151518485516120a0565b604080518082019091526060815260006020820152610e1983846000015151846121a8565b604080518082019091526060815260006020820152611c8d848560000151518585612203565b60408051808201909152606081526000602082015282518211156120c357600080fd5b60208501516120d28386612ed5565b111561210557612105856120f5876020015187866120f09190612ed5565b612284565b6121009060026132ee565b61229b565b6000808651805187602083010193508088870111156121245787860182525b505050602084015b602084106121645780518252612143602083612ed5565b9150612150602082612ed5565b905061215d6020856132d7565b935061212c565b5181517fffffffffffffffffffffffffffffffffffffffffffffffffffffffffffffffff60208690036101000a019081169019919091161790525083949350505050565b604080518082019091526060815260006020820152836020015183106121dd576121dd848560200151600261210091906132ee565b83518051602085830101848153508085036121f9576001810182525b5093949350505050565b60408051808201909152606081526000602082015260208501516122278584612ed5565b111561223b5761223b856120f58685612ed5565b6000600161224b8461010061344b565b61225591906132d7565b90508551838682010185831982511617815250805184870111156122795783860181525b509495945050505050565b6000818311156122955750816104c5565b50919050565b81516122a78383611eba565b5061151d838261202e565b60005b838110156122cd5781810151838201526020016122b5565b8381111561151d5750506000910152565b600081518084526122f68160208601602086016122b2565b601f017fffffffffffffffffffffffffffffffffffffffffffffffffffffffffffffffe0169290920160200192915050565b602081526000610e1960208301846122de565b73ffffffffffffffffffffffffffffffffffffffff811681146110f157600080fd5b80356123688161233b565b919050565b6000806040838503121561238057600080fd5b823561238b8161233b565b946020939093013593505050565b600061018082518185526123af828601826122de565b91505060208301516123cd602086018267ffffffffffffffff169052565b5060408301516123e9604086018267ffffffffffffffff169052565b5060608301516060850152608083015161240f608086018267ffffffffffffffff169052565b5060a083015161242360a086018215159052565b5060c083015161243760c086018215159052565b5060e083015184820360e086015261244f82826122de565b915050610100808401518583038287015261246a83826122de565b92505050610120808401518583038287015261248683826122de565b9250505061014080840151858303828701526124a283826122de565b92505050610160808401518583038287015261193383826122de565b60408152600083516101408060408501526124dd6101808501836122de565b915060208601517fffffffffffffffffffffffffffffffffffffffffffffffffffffffffffffffc08086850301606087015261251984836122de565b9350604088015191508086850301608087015261253684836122de565b935060608801519150808685030160a087015261255384836122de565b935060808801519150808685030160c087015261257084836122de565b935060a08801519150808685030160e087015261258d84836122de565b935060c088015191506101008187860301818801526125ac85846122de565b945060e089015192506101208288870301818901526125cb86856122de565b9550818a015193508288870301858901526125e686856122de565b9550808a015194505050505061261561016085018273ffffffffffffffffffffffffffffffffffffffff169052565b50828103602084015261181a8185612399565b60008060006060848603121561263d57600080fd5b83356126488161233b565b925060208401356126588161233b565b929592945050506040919091013590565b60006020828403121561267b57600080fd5b5035919050565b60008083601f84011261269457600080fd5b50813567ffffffffffffffff8111156126ac57600080fd5b6020830191508360208285010111156126c457600080fd5b9250929050565b60008060008060008060008060a0898b0312156126e757600080fd5b883567ffffffffffffffff808211156126ff57600080fd5b61270b8c838d01612682565b909a50985060208b013591506127208261233b565b90965060408a0135908082111561273657600080fd5b6127428c838d01612682565b909750955060608b013591508082111561275b57600080fd5b506127688b828c01612682565b999c989b50969995989497949560800135949350505050565b6000806040838503121561279457600080fd5b50508035926020909101359150565b600080604083850312156127b657600080fd5b82356127c18161233b565b9150602083013567ffffffffffffffff8111156127dd57600080fd5b830161014081860312156127f057600080fd5b809150509250929050565b60006020828403121561280d57600080fd5b8135610e198161233b565b6000806040838503121561282b57600080fd5b82356128368161233b565b915060208301356127f08161233b565b600181811c9082168061285a57607f821691505b602082108103612295577f4e487b7100000000000000000000000000000000000000000000000000000000600052602260045260246000fd5b7f4e487b7100000000000000000000000000000000000000000000000000000000600052604160045260246000fd5b604051610180810167ffffffffffffffff811182821017156128e6576128e6612893565b60405290565b604051610140810167ffffffffffffffff811182821017156128e6576128e6612893565b600082601f83011261292157600080fd5b815167ffffffffffffffff8082111561293c5761293c612893565b604051601f83017fffffffffffffffffffffffffffffffffffffffffffffffffffffffffffffffe0908116603f0116810190828211818310171561298257612982612893565b8160405283815286602085880101111561299b57600080fd5b6119338460208301602089016122b2565b80516123688161233b565b805167ffffffffffffffff8116811461236857600080fd5b8051801515811461236857600080fd5b600061018082840312156129f257600080fd5b6129fa6128c2565b9050815167ffffffffffffffff80821115612a1457600080fd5b612a2085838601612910565b8352612a2e602085016129b7565b6020840152612a3f604085016129b7565b604084015260608401516060840152612a5a608085016129b7565b6080840152612a6b60a085016129cf565b60a0840152612a7c60c085016129cf565b60c084015260e0840151915080821115612a9557600080fd5b612aa185838601612910565b60e084015261010091508184015181811115612abc57600080fd5b612ac886828701612910565b838501525061012091508184015181811115612ae357600080fd5b612aef86828701612910565b838501525061014091508184015181811115612b0a57600080fd5b612b1686828701612910565b838501525061016091508184015181811115612b3157600080fd5b612b3d86828701612910565b8385015250505092915050565b60008060408385031215612b5d57600080fd5b825167ffffffffffffffff80821115612b7557600080fd5b908401906101408287031215612b8a57600080fd5b612b926128ec565b825182811115612ba157600080fd5b612bad88828601612910565b825250602083015182811115612bc257600080fd5b612bce88828601612910565b602083015250604083015182811115612be657600080fd5b612bf288828601612910565b604083015250606083015182811115612c0a57600080fd5b612c1688828601612910565b606083015250608083015182811115612c2e57600080fd5b612c3a88828601612910565b60808301525060a083015182811115612c5257600080fd5b612c5e88828601612910565b60a08301525060c083015182811115612c7657600080fd5b612c8288828601612910565b60c08301525060e083015182811115612c9a57600080fd5b612ca688828601612910565b60e0830152506101008084015183811115612cc057600080fd5b612ccc89828701612910565b828401525050610120612ce08185016129ac565b908201526020860151909450915080821115612cfb57600080fd5b50612d08858286016129df565b9150509250929050565b600060208284031215612d2457600080fd5b5051919050565b600060208284031215612d3d57600080fd5b815167ffffffffffffffff80821115612d5557600080fd5b9083019060408286031215612d6957600080fd5b604051604081018181108382111715612d8457612d84612893565b604052825182811115612d9657600080fd5b612da287828601612910565b825250602083015182811115612db757600080fd5b612dc387828601612910565b60208301525095945050505050565b600060208284031215612de457600080fd5b8151610e198161233b565b8183528181602085013750600060208284010152600060207fffffffffffffffffffffffffffffffffffffffffffffffffffffffffffffffe0601f840116840101905092915050565b60a081526000612e4c60a083018a8c612def565b73ffffffffffffffffffffffffffffffffffffffff891660208401528281036040840152612e7b81888a612def565b90508281036060840152612e90818688612def565b9150508260808301529998505050505050505050565b7f4e487b7100000000000000000000000000000000000000000000000000000000600052601160045260246000fd5b60008219821115612ee857612ee8612ea6565b500190565b600060208284031215612eff57600080fd5b815167ffffffffffffffff811115612f1657600080fd5b611c8d84828501612910565b60008083357fffffffffffffffffffffffffffffffffffffffffffffffffffffffffffffffe1843603018112612f5757600080fd5b830160208101925035905067ffffffffffffffff811115612f7757600080fd5b8060051b36038213156126c457600080fd5b81835260007f07ffffffffffffffffffffffffffffffffffffffffffffffffffffffffffffff831115612fbb57600080fd5b8260051b8083602087013760009401602001938452509192915050565b60008083357fffffffffffffffffffffffffffffffffffffffffffffffffffffffffffffffe184360301811261300d57600080fd5b830160208101925035905067ffffffffffffffff81111561302d57600080fd5b8036038213156126c457600080fd5b73ffffffffffffffffffffffffffffffffffffffff831681526040602082015260006130688384612f22565b61014080604086015261308061018086018385612f89565b9250602086013560608601526130996040870187612fd8565b92507fffffffffffffffffffffffffffffffffffffffffffffffffffffffffffffffc0808786030160808801526130d1858584612def565b94506130df6060890161235d565b73ffffffffffffffffffffffffffffffffffffffff811660a0890152935061310a6080890189612fd8565b94509150808786030160c0880152613123858584612def565b945061313260a0890189612fd8565b94509150808786030160e088015261314b858584612def565b945061315a60c0890189612fd8565b94509150610100818887030181890152613175868685612def565b955061318460e08a018a612fd8565b955092506101208289880301818a015261319f878786612def565b918a0135948901949094529290970135610160909601959095529695505050505050565b6000602082840312156131d557600080fd5b610e19826129cf565b600061010073ffffffffffffffffffffffffffffffffffffffff808c1684528a60208501528960408501528089166060850152507fffffffff00000000000000000000000000000000000000000000000000000000871660808401528560a08401528460c08401528060e0840152613258818401856122de565b9b9a5050505050505050505050565b73ffffffffffffffffffffffffffffffffffffffff8416815282602082015260606040820152600061181a60608301846122de565b6000826132d2577f4e487b7100000000000000000000000000000000000000000000000000000000600052601260045260246000fd5b500690565b6000828210156132e9576132e9612ea6565b500390565b6000817fffffffffffffffffffffffffffffffffffffffffffffffffffffffffffffffff048311821515161561332657613326612ea6565b500290565b600181815b8085111561338457817fffffffffffffffffffffffffffffffffffffffffffffffffffffffffffffffff0482111561336a5761336a612ea6565b8085161561337757918102915b93841c9390800290613330565b509250929050565b60008261339b575060016104c5565b816133a8575060006104c5565b81600181146133be57600281146133c8576133e4565b60019150506104c5565b60ff8411156133d9576133d9612ea6565b50506001821b6104c5565b5060208310610133831016604e8410600b8410161715613407575081810a6104c5565b613411838361332b565b807fffffffffffffffffffffffffffffffffffffffffffffffffffffffffffffffff0482111561344357613443612ea6565b029392505050565b6000610e19838361338c56fea164736f6c634300080e000aa164736f6c634300080e000a",
  "devdoc": {
    "kind": "dev",
    "methods": {
      "owner()": {
        "details": "Returns the address of the current owner."
      },
      "renounceOwnership()": {
        "details": "Leaves the contract without owner. It will not be possible to call `onlyOwner` functions. Can only be called by the current owner. NOTE: Renouncing ownership will leave the contract without an owner, thereby disabling any functionality that is only available to the owner."
      },
      "transferOwnership(address)": {
        "details": "Transfers ownership of the contract to a new account (`newOwner`). Can only be called by the current owner."
      }
    },
    "version": 1
  },
  "userdoc": {
    "kind": "user",
    "methods": {},
    "version": 1
  },
  "storageLayout": {
    "storage": [
      {
        "astId": 2183,
        "contract": "contracts/WrappedTCO2Factory.sol:WrappedTCO2Factory",
        "label": "_owner",
        "offset": 0,
        "slot": "0",
        "type": "t_address"
      },
      {
        "astId": 3605,
        "contract": "contracts/WrappedTCO2Factory.sol:WrappedTCO2Factory",
        "label": "wrappedTCO2Contracts",
        "offset": 0,
        "slot": "1",
        "type": "t_array(t_address)dyn_storage"
      },
      {
        "astId": 3609,
        "contract": "contracts/WrappedTCO2Factory.sol:WrappedTCO2Factory",
        "label": "underlyingToWrapped",
        "offset": 0,
        "slot": "2",
        "type": "t_mapping(t_address,t_address)"
      },
      {
        "astId": 3611,
        "contract": "contracts/WrappedTCO2Factory.sol:WrappedTCO2Factory",
        "label": "jobId",
        "offset": 0,
        "slot": "3",
        "type": "t_bytes32"
      },
      {
        "astId": 3613,
        "contract": "contracts/WrappedTCO2Factory.sol:WrappedTCO2Factory",
        "label": "fee",
        "offset": 0,
        "slot": "4",
        "type": "t_uint256"
      },
      {
        "astId": 3615,
        "contract": "contracts/WrappedTCO2Factory.sol:WrappedTCO2Factory",
        "label": "oracle",
        "offset": 0,
        "slot": "5",
        "type": "t_address"
      },
      {
        "astId": 3617,
        "contract": "contracts/WrappedTCO2Factory.sol:WrappedTCO2Factory",
        "label": "link",
        "offset": 0,
        "slot": "6",
        "type": "t_address"
      },
      {
        "astId": 3621,
        "contract": "contracts/WrappedTCO2Factory.sol:WrappedTCO2Factory",
        "label": "requests",
        "offset": 0,
        "slot": "7",
        "type": "t_array(t_struct(RequestDetails)3007_storage)dyn_storage"
      }
    ],
    "types": {
      "t_address": {
        "encoding": "inplace",
        "label": "address",
        "numberOfBytes": "20"
      },
      "t_array(t_address)dyn_storage": {
        "base": "t_address",
        "encoding": "dynamic_array",
        "label": "address[]",
        "numberOfBytes": "32"
      },
      "t_array(t_struct(RequestDetails)3007_storage)dyn_storage": {
        "base": "t_struct(RequestDetails)3007_storage",
        "encoding": "dynamic_array",
        "label": "struct IOracleUrlSource.RequestDetails[]",
        "numberOfBytes": "32"
      },
      "t_bytes32": {
        "encoding": "inplace",
        "label": "bytes32",
        "numberOfBytes": "32"
      },
      "t_mapping(t_address,t_address)": {
        "encoding": "mapping",
        "key": "t_address",
        "label": "mapping(address => address)",
        "numberOfBytes": "32",
        "value": "t_address"
      },
      "t_string_storage": {
        "encoding": "bytes",
        "label": "string",
        "numberOfBytes": "32"
      },
      "t_struct(RequestDetails)3007_storage": {
        "encoding": "inplace",
        "label": "struct IOracleUrlSource.RequestDetails",
        "members": [
          {
            "astId": 3004,
            "contract": "contracts/WrappedTCO2Factory.sol:WrappedTCO2Factory",
            "label": "url",
            "offset": 0,
            "slot": "0",
            "type": "t_string_storage"
          },
          {
            "astId": 3006,
            "contract": "contracts/WrappedTCO2Factory.sol:WrappedTCO2Factory",
            "label": "path",
            "offset": 0,
            "slot": "1",
            "type": "t_string_storage"
          }
        ],
        "numberOfBytes": "64"
      },
      "t_uint256": {
        "encoding": "inplace",
        "label": "uint256",
        "numberOfBytes": "32"
      }
    }
  }
}