{
  "address": "0xfA1B371D2d645eE93E5BA3d933d9782dBd17aEc6",
  "abi": [
    {
      "inputs": [
        {
          "internalType": "address",
          "name": "_oracle",
          "type": "address"
        },
        {
          "internalType": "string",
          "name": "_jobId",
          "type": "string"
        },
        {
          "internalType": "uint256",
          "name": "_fee",
          "type": "uint256"
        },
        {
          "internalType": "address",
          "name": "_link",
          "type": "address"
        }
      ],
      "stateMutability": "nonpayable",
      "type": "constructor"
    },
    {
      "anonymous": false,
      "inputs": [
        {
          "indexed": true,
          "internalType": "address",
          "name": "previousOwner",
          "type": "address"
        },
        {
          "indexed": true,
          "internalType": "address",
          "name": "newOwner",
          "type": "address"
        }
      ],
      "name": "OwnershipTransferred",
      "type": "event"
    },
    {
      "anonymous": false,
      "inputs": [
        {
          "indexed": true,
          "internalType": "uint256",
          "name": "id",
          "type": "uint256"
        }
      ],
      "name": "RequestAdded",
      "type": "event"
    },
    {
      "anonymous": false,
      "inputs": [
        {
          "indexed": true,
          "internalType": "address",
          "name": "wrappedTCO2Address",
          "type": "address"
        }
      ],
      "name": "WrappedTCO2Created",
      "type": "event"
    },
    {
      "inputs": [
        {
          "internalType": "string",
          "name": "url",
          "type": "string"
        },
        {
          "internalType": "string",
          "name": "path",
          "type": "string"
        }
      ],
      "name": "addRequest",
      "outputs": [],
      "stateMutability": "nonpayable",
      "type": "function"
    },
    {
      "inputs": [
        {
          "internalType": "address",
          "name": "_tco2TokenAddress",
          "type": "address"
        }
      ],
      "name": "createWrappedTCO2",
      "outputs": [],
      "stateMutability": "nonpayable",
      "type": "function"
    },
    {
      "inputs": [
        {
          "internalType": "uint256",
          "name": "id",
          "type": "uint256"
        }
      ],
      "name": "getRequestDetails",
      "outputs": [
        {
          "components": [
            {
              "internalType": "string",
              "name": "url",
              "type": "string"
            },
            {
              "internalType": "string",
              "name": "path",
              "type": "string"
            }
          ],
          "internalType": "struct IOracleUrlSource.RequestDetails",
          "name": "",
          "type": "tuple"
        }
      ],
      "stateMutability": "view",
      "type": "function"
    },
    {
      "inputs": [],
      "name": "getWrappedTCO2Contracts",
      "outputs": [
        {
          "internalType": "address[]",
          "name": "",
          "type": "address[]"
        }
      ],
      "stateMutability": "view",
      "type": "function"
    },
    {
      "inputs": [],
      "name": "link",
      "outputs": [
        {
          "internalType": "address",
          "name": "",
          "type": "address"
        }
      ],
      "stateMutability": "view",
      "type": "function"
    },
    {
      "inputs": [],
      "name": "oracle",
      "outputs": [
        {
          "internalType": "address",
          "name": "",
          "type": "address"
        }
      ],
      "stateMutability": "view",
      "type": "function"
    },
    {
      "inputs": [],
      "name": "owner",
      "outputs": [
        {
          "internalType": "address",
          "name": "",
          "type": "address"
        }
      ],
      "stateMutability": "view",
      "type": "function"
    },
    {
      "inputs": [],
      "name": "renounceOwnership",
      "outputs": [],
      "stateMutability": "nonpayable",
      "type": "function"
    },
    {
      "inputs": [
        {
          "internalType": "uint256",
          "name": "",
          "type": "uint256"
        }
      ],
      "name": "requests",
      "outputs": [
        {
          "internalType": "string",
          "name": "url",
          "type": "string"
        },
        {
          "internalType": "string",
          "name": "path",
          "type": "string"
        }
      ],
      "stateMutability": "view",
      "type": "function"
    },
    {
      "inputs": [
        {
          "internalType": "string",
          "name": "source",
          "type": "string"
        }
      ],
      "name": "stringToBytes32",
      "outputs": [
        {
          "internalType": "bytes32",
          "name": "result",
          "type": "bytes32"
        }
      ],
      "stateMutability": "pure",
      "type": "function"
    },
    {
      "inputs": [
        {
          "internalType": "address",
          "name": "newOwner",
          "type": "address"
        }
      ],
      "name": "transferOwnership",
      "outputs": [],
      "stateMutability": "nonpayable",
      "type": "function"
    },
    {
      "inputs": [
        {
          "internalType": "uint256",
          "name": "",
          "type": "uint256"
        }
      ],
      "name": "wrappedTCO2Contracts",
      "outputs": [
        {
          "internalType": "address",
          "name": "",
          "type": "address"
        }
      ],
      "stateMutability": "view",
      "type": "function"
    }
  ],
  "transactionHash": "0x6548c40e5db48635506ab93a7d96b3c28d7c5c24c15520698e5270feef431407",
  "args": [
    "0x40193c8518BB267228Fc409a613bDbD8eC5a97b3",
    "ca98366cc7314957b8c012c72f05aeeb",
    "100000000000000000",
    "0x326C977E6efc84E512bB9C30f76E30c160eD06FB"
  ],
  "numDeployments": 1,
  "solcInputHash": "36a86c5c8da1d2ac6ce7a916e744591c",
  "bytecode": "0x60806040523480156200001157600080fd5b5060405162004ab738038062004ab7833981016040819052620000349162000139565b6200003f3362000096565b600580546001600160a01b0319166001600160a01b0386161790556200006583620000e6565b600355600491909155600680546001600160a01b0319166001600160a01b0390921691909117905550620002489050565b600080546001600160a01b038381166001600160a01b0319831681178455604051919092169283917f8be0079c531659141344cd1fd0a4f28419497f9722a3daafe3b4186f6b6457e09190a35050565b805160009082908203620000fd5750600092915050565b50506020015190565b80516001600160a01b03811681146200011e57600080fd5b919050565b634e487b7160e01b600052604160045260246000fd5b600080600080608085870312156200015057600080fd5b6200015b8562000106565b602086810151919550906001600160401b03808211156200017b57600080fd5b818801915088601f8301126200019057600080fd5b815181811115620001a557620001a562000123565b604051601f8201601f19908116603f01168101908382118183101715620001d057620001d062000123565b816040528281528b86848701011115620001e957600080fd5b600093505b828410156200020d5784840186015181850187015292850192620001ee565b828411156200021f5760008684830101525b809850505050505050604085015191506200023d6060860162000106565b905092959194509250565b61485f80620002586000396000f3fe60806040523480156200001157600080fd5b5060043610620000e55760003560e01c80639559c07f116200008b578063e73ebd811162000062578063e73ebd811462000213578063f2fde38b146200022c578063f34d4c63146200024357600080fd5b80639559c07f14620001bf578063b9da4af814620001d6578063cfb5192814620001ed57600080fd5b806381d12c5811620000c057806381d12c58146200016257806383d00d2914620001895780638da5cb5b14620001a057600080fd5b80631c4695f414620000ea578063715018a614620001355780637dc0d1d01462000141575b600080fd5b6006546200010b9073ffffffffffffffffffffffffffffffffffffffff1681565b60405173ffffffffffffffffffffffffffffffffffffffff90911681526020015b60405180910390f35b6200013f62000269565b005b6005546200010b9073ffffffffffffffffffffffffffffffffffffffff1681565b620001796200017336600462000bac565b62000281565b6040516200012c92919062000c34565b6200010b6200019a36600462000bac565b620003d6565b60005473ffffffffffffffffffffffffffffffffffffffff166200010b565b6200013f620001d036600462000c66565b6200040e565b6200013f620001e736600462000d87565b620005ff565b62000204620001fe36600462000df2565b620006c7565b6040519081526020016200012c565b6200021d620006e7565b6040516200012c919062000e33565b6200013f6200023d36600462000c66565b62000758565b6200025a6200025436600462000bac565b62000815565b6040516200012c919062000e8f565b6200027362000a00565b6200027f600062000a83565b565b600781815481106200029257600080fd5b9060005260206000209060020201600091509050806000018054620002b79062000eea565b80601f0160208091040260200160405190810160405280929190818152602001828054620002e59062000eea565b8015620003365780601f106200030a5761010080835404028352916020019162000336565b820191906000526020600020905b8154815290600101906020018083116200031857829003601f168201915b5050505050908060010180546200034d9062000eea565b80601f01602080910402602001604051908101604052809291908181526020018280546200037b9062000eea565b8015620003cc5780601f10620003a057610100808354040283529160200191620003cc565b820191906000526020600020905b815481529060010190602001808311620003ae57829003601f168201915b5050505050905082565b60018181548110620003e757600080fd5b60009182526020909120015473ffffffffffffffffffffffffffffffffffffffff16905081565b73ffffffffffffffffffffffffffffffffffffffff8181166000908152600260205260409020541615620004a3576040517f08c379a000000000000000000000000000000000000000000000000000000000815260206004820152601a60248201527f5772617070656454434f3220616c72656164792065786973747300000000000060448201526064015b60405180910390fd5b600554600354600454600654604051600094869473ffffffffffffffffffffffffffffffffffffffff91821694909390929116903090620004e49062000af8565b73ffffffffffffffffffffffffffffffffffffffff96871681529486166020860152604085019390935260608401919091528316608083015290911660a082015260c001604051809103906000f08015801562000545573d6000803e3d6000fd5b50600180548082019091557fb10e2d527612073b26eecdfd717e6a320cf44b4afac2b0732d9fcbe2b7fa0cf601805473ffffffffffffffffffffffffffffffffffffffff8084167fffffffffffffffffffffffff00000000000000000000000000000000000000009283168117909355851660009081526002602052604080822080549093168417909255905192935090917f68dbab7bf7ba33cc24097f8864673e416548ae0c59e0d3a20d51eb3b6a8206fb9190a25050565b6200060962000a00565b604080518082019091528281526020808201839052600780546001810182556000919091528251805160029092027fa66cc928b5edb82af9bd49922954155ab7b0942694bea4ce44661d9a8736c68801926200066b9284929091019062000b06565b50602082810151805162000686926001850192019062000b06565b50506007546200069a915060019062000f3f565b6040517f1241757208f08d63f291d85cafba51f9c01fc80b77f21fb69b4b7ce9908b9a0e90600090a25050565b805160009082908203620006de5750600092915050565b50506020015190565b606060018054806020026020016040519081016040528092919081815260200182805480156200074e57602002820191906000526020600020905b815473ffffffffffffffffffffffffffffffffffffffff16815260019091019060200180831162000722575b5050505050905090565b6200076262000a00565b73ffffffffffffffffffffffffffffffffffffffff811662000807576040517f08c379a000000000000000000000000000000000000000000000000000000000815260206004820152602660248201527f4f776e61626c653a206e6577206f776e657220697320746865207a65726f206160448201527f646472657373000000000000000000000000000000000000000000000000000060648201526084016200049a565b620008128162000a83565b50565b6040805180820190915260608082526020820152600754821062000896576040517f08c379a000000000000000000000000000000000000000000000000000000000815260206004820152601260248201527f496e76616c69642072657175657374206964000000000000000000000000000060448201526064016200049a565b60078281548110620008ac57620008ac62000f7e565b9060005260206000209060020201604051806040016040529081600082018054620008d79062000eea565b80601f0160208091040260200160405190810160405280929190818152602001828054620009059062000eea565b8015620009565780601f106200092a5761010080835404028352916020019162000956565b820191906000526020600020905b8154815290600101906020018083116200093857829003601f168201915b50505050508152602001600182018054620009719062000eea565b80601f01602080910402602001604051908101604052809291908181526020018280546200099f9062000eea565b8015620009f05780601f10620009c457610100808354040283529160200191620009f0565b820191906000526020600020905b815481529060010190602001808311620009d257829003601f168201915b5050505050815250509050919050565b60005473ffffffffffffffffffffffffffffffffffffffff1633146200027f576040517f08c379a000000000000000000000000000000000000000000000000000000000815260206004820181905260248201527f4f776e61626c653a2063616c6c6572206973206e6f7420746865206f776e657260448201526064016200049a565b6000805473ffffffffffffffffffffffffffffffffffffffff8381167fffffffffffffffffffffffff0000000000000000000000000000000000000000831681178455604051919092169283917f8be0079c531659141344cd1fd0a4f28419497f9722a3daafe3b4186f6b6457e09190a35050565b6138a58062000fae83390190565b82805462000b149062000eea565b90600052602060002090601f01602090048101928262000b38576000855562000b83565b82601f1062000b5357805160ff191683800117855562000b83565b8280016001018555821562000b83579182015b8281111562000b8357825182559160200191906001019062000b66565b5062000b9192915062000b95565b5090565b5b8082111562000b91576000815560010162000b96565b60006020828403121562000bbf57600080fd5b5035919050565b6000815180845260005b8181101562000bee5760208185018101518683018201520162000bd0565b8181111562000c01576000602083870101525b50601f017fffffffffffffffffffffffffffffffffffffffffffffffffffffffffffffffe0169290920160200192915050565b60408152600062000c49604083018562000bc6565b828103602084015262000c5d818562000bc6565b95945050505050565b60006020828403121562000c7957600080fd5b813573ffffffffffffffffffffffffffffffffffffffff8116811462000c9e57600080fd5b9392505050565b7f4e487b7100000000000000000000000000000000000000000000000000000000600052604160045260246000fd5b600082601f83011262000ce657600080fd5b813567ffffffffffffffff8082111562000d045762000d0462000ca5565b604051601f83017fffffffffffffffffffffffffffffffffffffffffffffffffffffffffffffffe0908116603f0116810190828211818310171562000d4d5762000d4d62000ca5565b8160405283815286602085880101111562000d6757600080fd5b836020870160208301376000602085830101528094505050505092915050565b6000806040838503121562000d9b57600080fd5b823567ffffffffffffffff8082111562000db457600080fd5b62000dc28683870162000cd4565b9350602085013591508082111562000dd957600080fd5b5062000de88582860162000cd4565b9150509250929050565b60006020828403121562000e0557600080fd5b813567ffffffffffffffff81111562000e1d57600080fd5b62000e2b8482850162000cd4565b949350505050565b6020808252825182820181905260009190848201906040850190845b8181101562000e8357835173ffffffffffffffffffffffffffffffffffffffff168352928401929184019160010162000e4f565b50909695505050505050565b60208152600082516040602084015262000ead606084018262000bc6565b905060208401517fffffffffffffffffffffffffffffffffffffffffffffffffffffffffffffffe084830301604085015262000c5d828262000bc6565b600181811c9082168062000eff57607f821691505b60208210810362000f39577f4e487b7100000000000000000000000000000000000000000000000000000000600052602260045260246000fd5b50919050565b60008282101562000f79577f4e487b7100000000000000000000000000000000000000000000000000000000600052601160045260246000fd5b500390565b7f4e487b7100000000000000000000000000000000000000000000000000000000600052603260045260246000fdfe608060405260016009553480156200001657600080fd5b50604051620038a5380380620038a5833981016040819052620000399162000369565b604080516020808201808452600080845284519283019094529281528151919290916200006991600391620002a6565b5080516200007f906004906020840190620002a6565b5050600f80546001600160a01b0319166001600160a01b038916908117909155604080516364c5a40360e01b81529051606093508392916364c5a4039160048083019260009291908290030181865afa158015620000e1573d6000803e3d6000fd5b505050506040513d6000823e601f3d908101601f191682016040526200010b9190810190620004b2565b60405191935091506200012590839083906020016200051c565b604051602081830303815290604052601290805190602001906200014b929190620002a6565b508181604051602001620001619291906200051c565b6040516020818303038152906040526013908051906020019062000187929190620002a6565b506001600160a01b038416620001a757620001a162000205565b620001c3565b600780546001600160a01b0319166001600160a01b0386161790555b5050600d80546001600160a01b039687166001600160a01b031991821617909155600b94909455600c9290925550600e805491909316911617905550620005cf565b620002a473c89bd4e1632d3a43cb03aaad5262cbe4038bc5716001600160a01b03166338cc48316040518163ffffffff1660e01b8152600401602060405180830381865afa1580156200025c573d6000803e3d6000fd5b505050506040513d601f19601f820116820180604052508101906200028291906200056e565b600780546001600160a01b0319166001600160a01b0392909216919091179055565b565b828054620002b49062000593565b90600052602060002090601f016020900481019282620002d8576000855562000323565b82601f10620002f357805160ff191683800117855562000323565b8280016001018555821562000323579182015b828111156200032357825182559160200191906001019062000306565b506200033192915062000335565b5090565b5b8082111562000331576000815560010162000336565b80516001600160a01b03811681146200036457600080fd5b919050565b60008060008060008060c087890312156200038357600080fd5b6200038e876200034c565b95506200039e602088016200034c565b94506040870151935060608701519250620003bc608088016200034c565b9150620003cc60a088016200034c565b90509295509295509295565b634e487b7160e01b600052604160045260246000fd5b60005b838110156200040b578181015183820152602001620003f1565b838111156200041b576000848401525b50505050565b600082601f8301126200043357600080fd5b81516001600160401b0380821115620004505762000450620003d8565b604051601f8301601f19908116603f011681019082821181831017156200047b576200047b620003d8565b816040528381528660208588010111156200049557600080fd5b620004a8846020830160208901620003ee565b9695505050505050565b60008060408385031215620004c657600080fd5b82516001600160401b0380821115620004de57600080fd5b620004ec8683870162000421565b935060208501519150808211156200050357600080fd5b50620005128582860162000421565b9150509250929050565b657754434f322d60d01b8152600083516200053f816006850160208801620003ee565b602d60f81b600691840191820152835162000562816007840160208801620003ee565b01600701949350505050565b6000602082840312156200058157600080fd5b6200058c826200034c565b9392505050565b600181811c90821680620005a857607f821691505b602082108103620005c957634e487b7160e01b600052602260045260246000fd5b50919050565b6132c680620005df6000396000f3fe608060405234801561001057600080fd5b50600436106101ae5760003560e01c80636b24ffd6116100ee578063a457c2d711610097578063de0e9a3e11610071578063de0e9a3e146103fc578063e819426c1461040f578063ea598cb014610417578063f2e148381461042a57600080fd5b8063a457c2d714610390578063a9059cbb146103a3578063dd62ed3e146103b657600080fd5b80637dc0d1d0116100c85780637dc0d1d01461034857806391da1ed21461036857806395d89b411461038857600080fd5b80636b24ffd6146102ec57806370a08231146102ff57806379cc67901461033557600080fd5b80632ef292901161015b5780633c31175e116101355780633c31175e146102795780634357855e1461028157806345a54ca6146102945780636746e7be146102d957600080fd5b80632ef2929014610242578063313ce56714610257578063395093511461026657600080fd5b806318160ddd1161018c57806318160ddd1461020a57806323b872dd1461021c5780632adb9e3c1461022f57600080fd5b806306fdde03146101b3578063095ea7b3146101d1578063152583de146101f4575b600080fd5b6101bb61044a565b6040516101c891906121a7565b60405180910390f35b6101e46101df3660046121ec565b6104dc565b60405190151581526020016101c8565b6101fc6104f6565b6040516101c892919061233d565b6002545b6040519081526020016101c8565b6101e461022a3660046124a7565b6106a3565b61020e61023d3660046124e8565b6106c7565b61025561025036600461254a565b61086e565b005b604051601281526020016101c8565b6101e46102743660046121ec565b610918565b6101bb610964565b61025561028f366004612600565b610a1f565b600f546102b49073ffffffffffffffffffffffffffffffffffffffff1681565b60405173ffffffffffffffffffffffffffffffffffffffff90911681526020016101c8565b6102556102e7366004612622565b610b5e565b61020e6102fa3660046121ec565b610bfa565b61020e61030d36600461267a565b73ffffffffffffffffffffffffffffffffffffffff1660009081526020819052604090205490565b6102556103433660046121ec565b610c9f565b600d546102b49073ffffffffffffffffffffffffffffffffffffffff1681565b600e546102b49073ffffffffffffffffffffffffffffffffffffffff1681565b6101bb610cfe565b6101e461039e3660046121ec565b610d0d565b6101e46103b13660046121ec565b610dde565b61020e6103c4366004612697565b73ffffffffffffffffffffffffffffffffffffffff918216600090815260016020908152604080832093909416825291909152205490565b61025561040a3660046124e8565b610dec565b61020e610f73565b6102556104253660046124e8565b611007565b61020e6104383660046124e8565b60116020526000908152604090205481565b606060128054610459906126c5565b80601f0160208091040260200160405190810160405280929190818152602001828054610485906126c5565b80156104d25780601f106104a7576101008083540402835291602001916104d2565b820191906000526020600020905b8154815290600101906020018083116104b557829003601f168201915b5050505050905090565b6000336104ea818585611118565b60019150505b92915050565b610562604051806101400160405280606081526020016060815260200160608152602001606081526020016060815260200160608152602001606081526020016060815260200160608152602001600073ffffffffffffffffffffffffffffffffffffffff1681525090565b6105e860405180610180016040528060608152602001600067ffffffffffffffff168152602001600067ffffffffffffffff16815260200160008152602001600067ffffffffffffffff16815260200160001515815260200160001515815260200160608152602001606081526020016060815260200160608152602001606081525090565b600f60009054906101000a900473ffffffffffffffffffffffffffffffffffffffff1673ffffffffffffffffffffffffffffffffffffffff1663152583de6040518163ffffffff1660e01b8152600401600060405180830381865afa158015610655573d6000803e3d6000fd5b505050506040513d6000823e601f3d9081017fffffffffffffffffffffffffffffffffffffffffffffffffffffffffffffffe016820160405261069b91908101906129c9565b915091509091565b6000336106b18582856112cb565b6106bc8585856113a2565b506001949350505050565b6000806106de600b5430634357855e60e01b611611565b600e546040517ff34d4c630000000000000000000000000000000000000000000000000000000081526004810186905291925060009173ffffffffffffffffffffffffffffffffffffffff9091169063f34d4c6390602401600060405180830381865afa158015610753573d6000803e3d6000fd5b505050506040513d6000823e601f3d9081017fffffffffffffffffffffffffffffffffffffffffffffffffffffffffffffffe01682016040526107999190810190612b91565b60408051808201909152600381527f6765740000000000000000000000000000000000000000000000000000000000602082015281519192506107de918491906116a2565b61082c6040518060400160405280600481526020017f70617468000000000000000000000000000000000000000000000000000000008152508260200151846116a29092919063ffffffff16565b600d54600c546108549173ffffffffffffffffffffffffffffffffffffffff169084906116c5565b600081815260106020526040902094909455509192915050565b61087833826117bc565b600f546040517f2ef2929000000000000000000000000000000000000000000000000000000000815273ffffffffffffffffffffffffffffffffffffffff90911690632ef29290906108dc908b908b908b908b908b908b908b908b90600401612c81565b600060405180830381600087803b1580156108f657600080fd5b505af115801561090a573d6000803e3d6000fd5b505050505050505050505050565b33600081815260016020908152604080832073ffffffffffffffffffffffffffffffffffffffff871684529091528120549091906104ea908290869061095f908790612d1e565b611118565b600f54604080517f3c31175e000000000000000000000000000000000000000000000000000000008152905160609273ffffffffffffffffffffffffffffffffffffffff1691633c31175e9160048083019260009291908290030181865afa1580156109d4573d6000803e3d6000fd5b505050506040513d6000823e601f3d9081017fffffffffffffffffffffffffffffffffffffffffffffffffffffffffffffffe0168201604052610a1a9190810190612d36565b905090565b6000828152600a6020526040902054829073ffffffffffffffffffffffffffffffffffffffff163314610ad9576040517f08c379a000000000000000000000000000000000000000000000000000000000815260206004820152602860248201527f536f75726365206d75737420626520746865206f7261636c65206f662074686560448201527f207265717565737400000000000000000000000000000000000000000000000060648201526084015b60405180910390fd5b6000818152600a602052604080822080547fffffffffffffffffffffffff00000000000000000000000000000000000000001690555182917f7cc135e0cebb02c3480ae5d74d377283180a2601f8f644edf7987b009316c63a91a250600082815260106020818152604080842080548552601183529084209490945593825290925255565b610b6c3382602001356117bc565b600f546040517f6746e7be00000000000000000000000000000000000000000000000000000000815273ffffffffffffffffffffffffffffffffffffffff90911690636746e7be90610bc49085908590600401612e85565b600060405180830381600087803b158015610bde57600080fd5b505af1158015610bf2573d6000803e3d6000fd5b505050505050565b600f546040517f6b24ffd600000000000000000000000000000000000000000000000000000000815273ffffffffffffffffffffffffffffffffffffffff8481166004830152602482018490526000921690636b24ffd6906044016020604051808303816000875af1158015610c74573d6000803e3d6000fd5b505050506040513d601f19601f82011682018060405250810190610c98919061300c565b9392505050565b600f546040517f79cc679000000000000000000000000000000000000000000000000000000000815273ffffffffffffffffffffffffffffffffffffffff848116600483015260248201849052909116906379cc679090604401610bc4565b606060138054610459906126c5565b33600081815260016020908152604080832073ffffffffffffffffffffffffffffffffffffffff8716845290915281205490919083811015610dd1576040517f08c379a000000000000000000000000000000000000000000000000000000000815260206004820152602560248201527f45524332303a2064656372656173656420616c6c6f77616e63652062656c6f7760448201527f207a65726f0000000000000000000000000000000000000000000000000000006064820152608401610ad0565b6106bc8286868403611118565b6000336104ea8185856113a2565b33600090815260208190526040902054811115610e65576040517f08c379a000000000000000000000000000000000000000000000000000000000815260206004820152601460248201527f496e73756666696369656e742062616c616e63650000000000000000000000006044820152606401610ad0565b610e6f33826117bc565b600f546040517fa9059cbb0000000000000000000000000000000000000000000000000000000081523360048201526024810183905273ffffffffffffffffffffffffffffffffffffffff9091169063a9059cbb906044016020604051808303816000875af1158015610ee6573d6000803e3d6000fd5b505050506040513d601f19601f82011682018060405250810190610f0a9190613025565b610f70576040517f08c379a000000000000000000000000000000000000000000000000000000000815260206004820152600f60248201527f5472616e73666572206661696c656400000000000000000000000000000000006044820152606401610ad0565b50565b600f54604080517fe819426c000000000000000000000000000000000000000000000000000000008152905160009273ffffffffffffffffffffffffffffffffffffffff169163e819426c9160048083019260209291908290030181865afa158015610fe3573d6000803e3d6000fd5b505050506040513d601f19601f82011682018060405250810190610a1a919061300c565b600f546040517f23b872dd0000000000000000000000000000000000000000000000000000000081523360048201523060248201526044810183905273ffffffffffffffffffffffffffffffffffffffff909116906323b872dd906064016020604051808303816000875af1158015611084573d6000803e3d6000fd5b505050506040513d601f19601f820116820180604052508101906110a89190613025565b61110e576040517f08c379a000000000000000000000000000000000000000000000000000000000815260206004820152600f60248201527f5472616e73666572206661696c656400000000000000000000000000000000006044820152606401610ad0565b610f703382611980565b73ffffffffffffffffffffffffffffffffffffffff83166111ba576040517f08c379a0000000000000000000000000000000000000000000000000000000008152602060048201526024808201527f45524332303a20617070726f76652066726f6d20746865207a65726f2061646460448201527f72657373000000000000000000000000000000000000000000000000000000006064820152608401610ad0565b73ffffffffffffffffffffffffffffffffffffffff821661125d576040517f08c379a000000000000000000000000000000000000000000000000000000000815260206004820152602260248201527f45524332303a20617070726f766520746f20746865207a65726f20616464726560448201527f73730000000000000000000000000000000000000000000000000000000000006064820152608401610ad0565b73ffffffffffffffffffffffffffffffffffffffff83811660008181526001602090815260408083209487168084529482529182902085905590518481527f8c5be1e5ebec7d5bd14f71427d1e84f3dd0314c0f7b2291e5b200ac8c7c3b925910160405180910390a3505050565b73ffffffffffffffffffffffffffffffffffffffff8381166000908152600160209081526040808320938616835292905220547fffffffffffffffffffffffffffffffffffffffffffffffffffffffffffffffff811461139c578181101561138f576040517f08c379a000000000000000000000000000000000000000000000000000000000815260206004820152601d60248201527f45524332303a20696e73756666696369656e7420616c6c6f77616e63650000006044820152606401610ad0565b61139c8484848403611118565b50505050565b73ffffffffffffffffffffffffffffffffffffffff8316611445576040517f08c379a000000000000000000000000000000000000000000000000000000000815260206004820152602560248201527f45524332303a207472616e736665722066726f6d20746865207a65726f20616460448201527f64726573730000000000000000000000000000000000000000000000000000006064820152608401610ad0565b73ffffffffffffffffffffffffffffffffffffffff82166114e8576040517f08c379a000000000000000000000000000000000000000000000000000000000815260206004820152602360248201527f45524332303a207472616e7366657220746f20746865207a65726f206164647260448201527f65737300000000000000000000000000000000000000000000000000000000006064820152608401610ad0565b73ffffffffffffffffffffffffffffffffffffffff83166000908152602081905260409020548181101561159e576040517f08c379a000000000000000000000000000000000000000000000000000000000815260206004820152602660248201527f45524332303a207472616e7366657220616d6f756e742065786365656473206260448201527f616c616e636500000000000000000000000000000000000000000000000000006064820152608401610ad0565b73ffffffffffffffffffffffffffffffffffffffff848116600081815260208181526040808320878703905593871680835291849020805487019055925185815290927fddf252ad1be2c89b69c2b068fc378daa952ba7f163c4a11628f55a4df523b3ef910160405180910390a361139c565b61164f6040805160a0810182526000808252602080830182905282840182905260608084018390528451808601909552845283015290608082015290565b61168d6040805160a0810182526000808252602080830182905282840182905260608084018390528451808601909552845283015290608082015290565b61169981868686611a73565b95945050505050565b60808301516116b19083611b14565b60808301516116c09082611b14565b505050565b6009546000906116d6816001612d1e565b600955835160408086015160808701515191516000937f4042994600000000000000000000000000000000000000000000000000000000936117279386938493923092918a91600191602401613040565b604080517fffffffffffffffffffffffffffffffffffffffffffffffffffffffffffffffe08184030181529190526020810180517bffffffffffffffffffffffffffffffffffffffffffffffffffffffff167fffffffff000000000000000000000000000000000000000000000000000000009093169290921790915290506117b286838684611b2b565b9695505050505050565b73ffffffffffffffffffffffffffffffffffffffff821661185f576040517f08c379a000000000000000000000000000000000000000000000000000000000815260206004820152602160248201527f45524332303a206275726e2066726f6d20746865207a65726f2061646472657360448201527f73000000000000000000000000000000000000000000000000000000000000006064820152608401610ad0565b73ffffffffffffffffffffffffffffffffffffffff821660009081526020819052604090205481811015611915576040517f08c379a000000000000000000000000000000000000000000000000000000000815260206004820152602260248201527f45524332303a206275726e20616d6f756e7420657863656564732062616c616e60448201527f63650000000000000000000000000000000000000000000000000000000000006064820152608401610ad0565b73ffffffffffffffffffffffffffffffffffffffff83166000818152602081815260408083208686039055600280548790039055518581529192917fddf252ad1be2c89b69c2b068fc378daa952ba7f163c4a11628f55a4df523b3ef910160405180910390a3505050565b73ffffffffffffffffffffffffffffffffffffffff82166119fd576040517f08c379a000000000000000000000000000000000000000000000000000000000815260206004820152601f60248201527f45524332303a206d696e7420746f20746865207a65726f2061646472657373006044820152606401610ad0565b8060026000828254611a0f9190612d1e565b909155505073ffffffffffffffffffffffffffffffffffffffff8216600081815260208181526040808320805486019055518481527fddf252ad1be2c89b69c2b068fc378daa952ba7f163c4a11628f55a4df523b3ef910160405180910390a35050565b611ab16040805160a0810182526000808252602080830182905282840182905260608084018390528451808601909552845283015290608082015290565b611ac18560800151610100611d39565b505082845273ffffffffffffffffffffffffffffffffffffffff821660208501527fffffffff0000000000000000000000000000000000000000000000000000000081166040850152835b949350505050565b611b218260038351611d9e565b6116c08282611ead565b6040517fffffffffffffffffffffffffffffffffffffffff0000000000000000000000003060601b16602082015260348101849052600090605401604080518083037fffffffffffffffffffffffffffffffffffffffffffffffffffffffffffffffe001815282825280516020918201206000818152600a90925291812080547fffffffffffffffffffffffff00000000000000000000000000000000000000001673ffffffffffffffffffffffffffffffffffffffff8a1617905590925082917fb5e6e01e79f91267dc17b4e6314d5d4d03593d2ceee0fbb452b750bd70ea5af99190a26007546040517f4000aea000000000000000000000000000000000000000000000000000000000815273ffffffffffffffffffffffffffffffffffffffff90911690634000aea090611c6a908890879087906004016130c9565b6020604051808303816000875af1158015611c89573d6000803e3d6000fd5b505050506040513d601f19601f82011682018060405250810190611cad9190613025565b611b0c576040517f08c379a000000000000000000000000000000000000000000000000000000000815260206004820152602360248201527f756e61626c6520746f207472616e73666572416e6443616c6c20746f206f726160448201527f636c6500000000000000000000000000000000000000000000000000000000006064820152608401610ad0565b604080518082019091526060815260006020820152611d596020836130fe565b15611d8157611d696020836130fe565b611d74906020613139565b611d7e9083612d1e565b91505b506020828101829052604080518085526000815290920101905290565b60178167ffffffffffffffff1611611dc35761139c8360e0600585901b168317611ed4565b60ff8167ffffffffffffffff1611611e0157611dea836018611fe0600586901b1617611ed4565b5061139c8367ffffffffffffffff83166001611ef9565b61ffff8167ffffffffffffffff1611611e4057611e29836019611fe0600586901b1617611ed4565b5061139c8367ffffffffffffffff83166002611ef9565b63ffffffff8167ffffffffffffffff1611611e8157611e6a83601a611fe0600586901b1617611ed4565b5061139c8367ffffffffffffffff83166004611ef9565b611e9683601b611fe0600586901b1617611ed4565b5061139c8367ffffffffffffffff83166008611ef9565b604080518082019091526060815260006020820152610c9883846000015151848551611f1f565b604080518082019091526060815260006020820152610c988384600001515184612027565b604080518082019091526060815260006020820152611b0c848560000151518585612082565b6040805180820190915260608152600060208201528251821115611f4257600080fd5b6020850151611f518386612d1e565b1115611f8457611f8485611f7487602001518786611f6f9190612d1e565b612103565b611f7f906002613150565b61211a565b600080865180518760208301019350808887011115611fa35787860182525b505050602084015b60208410611fe35780518252611fc2602083612d1e565b9150611fcf602082612d1e565b9050611fdc602085613139565b9350611fab565b5181517fffffffffffffffffffffffffffffffffffffffffffffffffffffffffffffffff60208690036101000a019081169019919091161790525083949350505050565b6040805180820190915260608152600060208201528360200151831061205c5761205c8485602001516002611f7f9190613150565b8351805160208583010184815350808503612078576001810182525b5093949350505050565b60408051808201909152606081526000602082015260208501516120a68584612d1e565b11156120ba576120ba85611f748685612d1e565b600060016120ca846101006132ad565b6120d49190613139565b90508551838682010185831982511617815250805184870111156120f85783860181525b509495945050505050565b6000818311156121145750816104f0565b50919050565b81516121268383611d39565b5061139c8382611ead565b60005b8381101561214c578181015183820152602001612134565b8381111561139c5750506000910152565b60008151808452612175816020860160208601612131565b601f017fffffffffffffffffffffffffffffffffffffffffffffffffffffffffffffffe0169290920160200192915050565b602081526000610c98602083018461215d565b73ffffffffffffffffffffffffffffffffffffffff81168114610f7057600080fd5b80356121e7816121ba565b919050565b600080604083850312156121ff57600080fd5b823561220a816121ba565b946020939093013593505050565b6000610180825181855261222e8286018261215d565b915050602083015161224c602086018267ffffffffffffffff169052565b506040830151612268604086018267ffffffffffffffff169052565b5060608301516060850152608083015161228e608086018267ffffffffffffffff169052565b5060a08301516122a260a086018215159052565b5060c08301516122b660c086018215159052565b5060e083015184820360e08601526122ce828261215d565b91505061010080840151858303828701526122e9838261215d565b925050506101208084015185830382870152612305838261215d565b925050506101408084015185830382870152612321838261215d565b9250505061016080840151858303828701526117b2838261215d565b604081526000835161014080604085015261235c61018085018361215d565b915060208601517fffffffffffffffffffffffffffffffffffffffffffffffffffffffffffffffc080868503016060870152612398848361215d565b935060408801519150808685030160808701526123b5848361215d565b935060608801519150808685030160a08701526123d2848361215d565b935060808801519150808685030160c08701526123ef848361215d565b935060a08801519150808685030160e087015261240c848361215d565b935060c0880151915061010081878603018188015261242b858461215d565b945060e0890151925061012082888703018189015261244a868561215d565b9550818a01519350828887030185890152612465868561215d565b9550808a015194505050505061249461016085018273ffffffffffffffffffffffffffffffffffffffff169052565b5082810360208401526116998185612218565b6000806000606084860312156124bc57600080fd5b83356124c7816121ba565b925060208401356124d7816121ba565b929592945050506040919091013590565b6000602082840312156124fa57600080fd5b5035919050565b60008083601f84011261251357600080fd5b50813567ffffffffffffffff81111561252b57600080fd5b60208301915083602082850101111561254357600080fd5b9250929050565b60008060008060008060008060a0898b03121561256657600080fd5b883567ffffffffffffffff8082111561257e57600080fd5b61258a8c838d01612501565b909a50985060208b0135915061259f826121ba565b90965060408a013590808211156125b557600080fd5b6125c18c838d01612501565b909750955060608b01359150808211156125da57600080fd5b506125e78b828c01612501565b999c989b50969995989497949560800135949350505050565b6000806040838503121561261357600080fd5b50508035926020909101359150565b6000806040838503121561263557600080fd5b8235612640816121ba565b9150602083013567ffffffffffffffff81111561265c57600080fd5b8301610140818603121561266f57600080fd5b809150509250929050565b60006020828403121561268c57600080fd5b8135610c98816121ba565b600080604083850312156126aa57600080fd5b82356126b5816121ba565b9150602083013561266f816121ba565b600181811c908216806126d957607f821691505b602082108103612114577f4e487b7100000000000000000000000000000000000000000000000000000000600052602260045260246000fd5b7f4e487b7100000000000000000000000000000000000000000000000000000000600052604160045260246000fd5b604051610180810167ffffffffffffffff8111828210171561276557612765612712565b60405290565b604051610140810167ffffffffffffffff8111828210171561276557612765612712565b600082601f8301126127a057600080fd5b815167ffffffffffffffff808211156127bb576127bb612712565b604051601f83017fffffffffffffffffffffffffffffffffffffffffffffffffffffffffffffffe0908116603f0116810190828211818310171561280157612801612712565b8160405283815286602085880101111561281a57600080fd5b6117b2846020830160208901612131565b80516121e7816121ba565b805167ffffffffffffffff811681146121e757600080fd5b805180151581146121e757600080fd5b6000610180828403121561287157600080fd5b612879612741565b9050815167ffffffffffffffff8082111561289357600080fd5b61289f8583860161278f565b83526128ad60208501612836565b60208401526128be60408501612836565b6040840152606084015160608401526128d960808501612836565b60808401526128ea60a0850161284e565b60a08401526128fb60c0850161284e565b60c084015260e084015191508082111561291457600080fd5b6129208583860161278f565b60e08401526101009150818401518181111561293b57600080fd5b6129478682870161278f565b83850152506101209150818401518181111561296257600080fd5b61296e8682870161278f565b83850152506101409150818401518181111561298957600080fd5b6129958682870161278f565b8385015250610160915081840151818111156129b057600080fd5b6129bc8682870161278f565b8385015250505092915050565b600080604083850312156129dc57600080fd5b825167ffffffffffffffff808211156129f457600080fd5b908401906101408287031215612a0957600080fd5b612a1161276b565b825182811115612a2057600080fd5b612a2c8882860161278f565b825250602083015182811115612a4157600080fd5b612a4d8882860161278f565b602083015250604083015182811115612a6557600080fd5b612a718882860161278f565b604083015250606083015182811115612a8957600080fd5b612a958882860161278f565b606083015250608083015182811115612aad57600080fd5b612ab98882860161278f565b60808301525060a083015182811115612ad157600080fd5b612add8882860161278f565b60a08301525060c083015182811115612af557600080fd5b612b018882860161278f565b60c08301525060e083015182811115612b1957600080fd5b612b258882860161278f565b60e0830152506101008084015183811115612b3f57600080fd5b612b4b8982870161278f565b828401525050610120612b5f81850161282b565b908201526020860151909450915080821115612b7a57600080fd5b50612b878582860161285e565b9150509250929050565b600060208284031215612ba357600080fd5b815167ffffffffffffffff80821115612bbb57600080fd5b9083019060408286031215612bcf57600080fd5b604051604081018181108382111715612bea57612bea612712565b604052825182811115612bfc57600080fd5b612c088782860161278f565b825250602083015182811115612c1d57600080fd5b612c298782860161278f565b60208301525095945050505050565b8183528181602085013750600060208284010152600060207fffffffffffffffffffffffffffffffffffffffffffffffffffffffffffffffe0601f840116840101905092915050565b60a081526000612c9560a083018a8c612c38565b73ffffffffffffffffffffffffffffffffffffffff891660208401528281036040840152612cc481888a612c38565b90508281036060840152612cd9818688612c38565b9150508260808301529998505050505050505050565b7f4e487b7100000000000000000000000000000000000000000000000000000000600052601160045260246000fd5b60008219821115612d3157612d31612cef565b500190565b600060208284031215612d4857600080fd5b815167ffffffffffffffff811115612d5f57600080fd5b611b0c8482850161278f565b60008083357fffffffffffffffffffffffffffffffffffffffffffffffffffffffffffffffe1843603018112612da057600080fd5b830160208101925035905067ffffffffffffffff811115612dc057600080fd5b8060051b360382131561254357600080fd5b81835260007f07ffffffffffffffffffffffffffffffffffffffffffffffffffffffffffffff831115612e0457600080fd5b8260051b8083602087013760009401602001938452509192915050565b60008083357fffffffffffffffffffffffffffffffffffffffffffffffffffffffffffffffe1843603018112612e5657600080fd5b830160208101925035905067ffffffffffffffff811115612e7657600080fd5b80360382131561254357600080fd5b73ffffffffffffffffffffffffffffffffffffffff83168152604060208201526000612eb18384612d6b565b610140806040860152612ec961018086018385612dd2565b925060208601356060860152612ee26040870187612e21565b92507fffffffffffffffffffffffffffffffffffffffffffffffffffffffffffffffc080878603016080880152612f1a858584612c38565b9450612f28606089016121dc565b73ffffffffffffffffffffffffffffffffffffffff811660a08901529350612f536080890189612e21565b94509150808786030160c0880152612f6c858584612c38565b9450612f7b60a0890189612e21565b94509150808786030160e0880152612f94858584612c38565b9450612fa360c0890189612e21565b94509150610100818887030181890152612fbe868685612c38565b9550612fcd60e08a018a612e21565b955092506101208289880301818a0152612fe8878786612c38565b918a0135948901949094529290970135610160909601959095529695505050505050565b60006020828403121561301e57600080fd5b5051919050565b60006020828403121561303757600080fd5b610c988261284e565b600061010073ffffffffffffffffffffffffffffffffffffffff808c1684528a60208501528960408501528089166060850152507fffffffff00000000000000000000000000000000000000000000000000000000871660808401528560a08401528460c08401528060e08401526130ba8184018561215d565b9b9a5050505050505050505050565b73ffffffffffffffffffffffffffffffffffffffff84168152826020820152606060408201526000611699606083018461215d565b600082613134577f4e487b7100000000000000000000000000000000000000000000000000000000600052601260045260246000fd5b500690565b60008282101561314b5761314b612cef565b500390565b6000817fffffffffffffffffffffffffffffffffffffffffffffffffffffffffffffffff048311821515161561318857613188612cef565b500290565b600181815b808511156131e657817fffffffffffffffffffffffffffffffffffffffffffffffffffffffffffffffff048211156131cc576131cc612cef565b808516156131d957918102915b93841c9390800290613192565b509250929050565b6000826131fd575060016104f0565b8161320a575060006104f0565b8160018114613220576002811461322a57613246565b60019150506104f0565b60ff84111561323b5761323b612cef565b50506001821b6104f0565b5060208310610133831016604e8410600b8410161715613269575081810a6104f0565b613273838361318d565b807fffffffffffffffffffffffffffffffffffffffffffffffffffffffffffffffff048211156132a5576132a5612cef565b029392505050565b6000610c9883836131ee56fea164736f6c634300080e000aa164736f6c634300080e000a",
  "devdoc": {
    "kind": "dev",
    "methods": {
      "owner()": {
        "details": "Returns the address of the current owner."
      },
      "renounceOwnership()": {
        "details": "Leaves the contract without owner. It will not be possible to call `onlyOwner` functions. Can only be called by the current owner. NOTE: Renouncing ownership will leave the contract without an owner, thereby disabling any functionality that is only available to the owner."
      },
      "transferOwnership(address)": {
        "details": "Transfers ownership of the contract to a new account (`newOwner`). Can only be called by the current owner."
      }
    },
    "version": 1
  },
  "userdoc": {
    "kind": "user",
    "methods": {},
    "version": 1
  },
  "storageLayout": {
    "storage": [
      {
        "astId": 2183,
        "contract": "contracts/WrappedTCO2Factory.sol:WrappedTCO2Factory",
        "label": "_owner",
        "offset": 0,
        "slot": "0",
        "type": "t_address"
      },
      {
        "astId": 3599,
        "contract": "contracts/WrappedTCO2Factory.sol:WrappedTCO2Factory",
        "label": "wrappedTCO2Contracts",
        "offset": 0,
        "slot": "1",
        "type": "t_array(t_address)dyn_storage"
      },
      {
        "astId": 3603,
        "contract": "contracts/WrappedTCO2Factory.sol:WrappedTCO2Factory",
        "label": "underlyingToWrapped",
        "offset": 0,
        "slot": "2",
        "type": "t_mapping(t_address,t_address)"
      },
      {
        "astId": 3605,
        "contract": "contracts/WrappedTCO2Factory.sol:WrappedTCO2Factory",
        "label": "jobId",
        "offset": 0,
        "slot": "3",
        "type": "t_bytes32"
      },
      {
        "astId": 3607,
        "contract": "contracts/WrappedTCO2Factory.sol:WrappedTCO2Factory",
        "label": "fee",
        "offset": 0,
        "slot": "4",
        "type": "t_uint256"
      },
      {
        "astId": 3609,
        "contract": "contracts/WrappedTCO2Factory.sol:WrappedTCO2Factory",
        "label": "oracle",
        "offset": 0,
        "slot": "5",
        "type": "t_address"
      },
      {
        "astId": 3611,
        "contract": "contracts/WrappedTCO2Factory.sol:WrappedTCO2Factory",
        "label": "link",
        "offset": 0,
        "slot": "6",
        "type": "t_address"
      },
      {
        "astId": 3615,
        "contract": "contracts/WrappedTCO2Factory.sol:WrappedTCO2Factory",
        "label": "requests",
        "offset": 0,
        "slot": "7",
        "type": "t_array(t_struct(RequestDetails)3007_storage)dyn_storage"
      }
    ],
    "types": {
      "t_address": {
        "encoding": "inplace",
        "label": "address",
        "numberOfBytes": "20"
      },
      "t_array(t_address)dyn_storage": {
        "base": "t_address",
        "encoding": "dynamic_array",
        "label": "address[]",
        "numberOfBytes": "32"
      },
      "t_array(t_struct(RequestDetails)3007_storage)dyn_storage": {
        "base": "t_struct(RequestDetails)3007_storage",
        "encoding": "dynamic_array",
        "label": "struct IOracleUrlSource.RequestDetails[]",
        "numberOfBytes": "32"
      },
      "t_bytes32": {
        "encoding": "inplace",
        "label": "bytes32",
        "numberOfBytes": "32"
      },
      "t_mapping(t_address,t_address)": {
        "encoding": "mapping",
        "key": "t_address",
        "label": "mapping(address => address)",
        "numberOfBytes": "32",
        "value": "t_address"
      },
      "t_string_storage": {
        "encoding": "bytes",
        "label": "string",
        "numberOfBytes": "32"
      },
      "t_struct(RequestDetails)3007_storage": {
        "encoding": "inplace",
        "label": "struct IOracleUrlSource.RequestDetails",
        "members": [
          {
            "astId": 3004,
            "contract": "contracts/WrappedTCO2Factory.sol:WrappedTCO2Factory",
            "label": "url",
            "offset": 0,
            "slot": "0",
            "type": "t_string_storage"
          },
          {
            "astId": 3006,
            "contract": "contracts/WrappedTCO2Factory.sol:WrappedTCO2Factory",
            "label": "path",
            "offset": 0,
            "slot": "1",
            "type": "t_string_storage"
          }
        ],
        "numberOfBytes": "64"
      },
      "t_uint256": {
        "encoding": "inplace",
        "label": "uint256",
        "numberOfBytes": "32"
      }
    }
  }
}